:020000021000EC
:042000006F1000005D
:1020040000800020000000006F0080086F0080083E
:1020140000000000000000000000000000000000BC
:1020240000000000000000000000000000000000AC
:102034006F008006000000006F00400600000000F2
:102044006F0000066F0000066F0000066F000006B8
:102054006F0000066F0000066F000006000000001D
:102064006F00C0056F00C0056F00C0056F00C0059C
:102074006F00C0056F00C005000000006F00800500
:102084006F0080056F0080056F0080056F0080057C
:102094006F0000006F0000006F0000006F00000080
:1020A4006F0000006F0000006F0000006F00000070
:1020B4006F0000006F0000006F0000006F00000060
:1020C4006F0000006F0000006F0000006F00000050
:1020D4006F0000006F0000006F0000006F00000040
:0820E4006F0000006F00000016
:103000009731FF1F938101E81751FF1F130181FFC3
:1030100017050000130505FF9725FF1F9385855EA3
:103020001726FF1F1306065E63FCC50083220500FA
:1030300023A055001305450093854500E3E8C5FE30
:10304000175500001305858C9725FF1F9385856311
:103050001726FF1F1306866363FCC5008322050045
:1030600023A055001305450093854500E3E8C5FE00
:103070001725FF1F130585619725FF1F9385456160
:103080006378B5002320050013054500E36CB5FE09
:10309000B72200009382028873A00230EF00105321
:1030A00097F2FFFF938242F693E212007390523040
:1030B000970200009382820B7390123473002030C9
:1030C0003D432A876373C3029377F700BDEFADE5F5
:1030D000937606FF3D8ABA960CC34CC30CC74CC707
:1030E0004107E36BD7FE11E28280B306C3408A0634
:1030F0009702000096966780A6002307B700A306F4
:10310000B7002306B700A305B7002305B700A30443
:10311000B7002304B700A303B7002303B700A3023B
:10312000B7002302B700A301B7002301B700A30033
:10313000B7002300B700828093F5F50F93968500C2
:10314000D58D93960501D58D61B79396270097028B
:10315000000096968682E78086FA9680C1171D8FBA
:103160003E96E374C3F8A5B7397106DE22DC26DA91
:103170004AD84ED652D456D25AD05ECE62CC66CA07
:103180006AC86EC6174500001305C52B97200000BE
:10319000E780A08A174500001305C52E9720000080
:1031A000E780A089174500001305C531972000006E
:1031B000E780A088174500001305C534972000005C
:1031C000E780A087174500001305C537972000004A
:1031D000E780A086174500001305C53A9720000038
:1031E000E780A085174500001305C53D9720000026
:1031F000E780A084174500001305C5409720000014
:10320000E780A083174500001305051F97200000E5
:10321000E780A082A14273B00230054685451305C0
:10322000E01097000000E780402E014881471747D3
:1032300000001307A720144358431306803E8565FA
:10324000938585BB1305002097000000E780403B75
:10325000A14273A002308144014481490149194AC5
:10326000814A974C0000938CEC40174C0000130CE3
:10327000EC1C974B0000938BEB3C130B9005814D9E
:10328000014D4DA803260C0083264C004E85CA85AF
:1032900097200000E780A02DAA892E89AA854A865A
:1032A0001305002097100000E780C08B4E85CA856B
:1032B00097400000E78040CE2A84AA855E8597105B
:1032C0000000E780807763548B00EE896A891305DC
:1032D000A01097000000E780A02C8547630DF50043
:1032E0008544014481A899E0D684A9A00504D68428
:1032F00063628A0411A0054485451305E010970018
:103300000000E7806019174500001305E5359710A8
:103310000000E7808072C9BF0504D6851305E01060
:1033200097000000E7804017668597100000E7804F
:10333000C0708544E3688AF41305A010970000006C
:10334000E78000268547E300F5FA458D1375F50FF4
:1033500061D5CDB7411106C69727FF1F9387073365
:103360009C43FC57856601469315C5000545829729
:103370001375F50FB24041018280411106C63687B0
:1033800032059727FF1F938767309C43FC57B2860F
:103390003A86AA95094582971375F50FB240410107
:1033A00082808D068982B2052E9691CE8A06AA96D3
:1033B000AA873305A6403387A7009107184323AE99
:1033C000E7FEE39AD7FE8280797106D622D426D210
:1033D0004AD04ECE7D731A91AA892E89B284368442
:1033E0003307B600856763D6E70405660D8E42068F
:1033F000418297000000E78060FD8566B386264124
:103400007D7626964A9613851900A2964206418239
:1034100081454205418197000000E78020FB01457E
:1034200005631A91B250225492540259F2494561EF
:10343000828085660146AA857D7585671808BA97DA
:103440003E9597000000E78000F685C8A2877D774B
:1034500085661008B29636973AC6B305270105046B
:103460009386F4FFC206C182A29603C70700238099
:10347000E50085078505E39AD7FEFD768567180880
:10348000BA97BE96056681454E8597000000E78095
:1034900000EF71B7935785001375F50F89C705477E
:1034A000638BE70282808547638DF5003717004004
:1034B0008326C70A85473395A700558D2326A70A7B
:1034C0008280371700408326870A3395A700558DE1
:1034D0002324A70A82808547638DF50037170040B3
:1034E0008326C70C85473395A700558D2326A70C47
:1034F0008280371700408326870C3395A700558DAF
:103500002324A70C8280411106C693578500937629
:10351000F50F99C705476384E704B24041018280F3
:103520008547638FF500371700400326070A854754
:10353000B397D70093C7F7FFF18F2320F70AF1BFA6
:10354000371700408325070AB397D700CD8F232074
:10355000F70AB28597000000E78000F47DBF854739
:10356000638FF500371700400326070C8547B39794
:10357000D70093C7F7FFF18F2320F70C79BF3717D8
:1035800000408325070CB397D700CD8F2320F70C7D
:10359000B28597000000E78020F041B713578500FF
:1035A0001375F50FB716004003A6060A83A6060C8E
:1035B00011C785466309D7023E8582808547B39748
:1035C000A7007D8E09CA371700400327870AF98FA5
:1035D000B337F000D5B7371700400327470AF98FF4
:1035E000B337F000D1BFB717004003A7470C85479A
:1035F000B397A700F98FB337F0007DBF797106D676
:1036000022D426D24AD04ECE52CC56CA5AC85EC612
:1036100062C4AA84AE8A32843689BA89428A937790
:10362000F50F638F072CB785930393850570B3D58A
:10363000550393F5F50FB7570040A381B700937773
:103640001500ADEB93F72400B5EF93F74400D9E3F1
:1036500093F78400C9EB93F70401D9EF93F70402C1
:10366000CDE793F70404DDEB93F70408E9E3930750
:1036700000046302F41863F5870C93070008630BDA
:10368000F41463F387109307F00F6304F4129307A5
:1036900000106312F40C375700408347270093F75C
:1036A000270F2301F7009307F00F1727FF1F231B96
:1036B000F7FC55A005468545314597000000E78099
:1036C000C0E449B705468545354597000000E780C9
:1036D000C0E3A5BF0546854513050010970000000F
:1036E000E780A0E2B5B70546854513054010970071
:1036F0000000E78080E185B7054685451305601029
:1037000097000000E78060E091BF054685451305FE
:10371000701097000000E78040DFA1B7054685459F
:103720001305E01097000000E78020DE35BF054656
:1037300085451305701197000000E78000DD05BF87
:1037400093070002630BF40E9307F0036306F40C77
:10375000FD476304F41063100A1237570040834694
:10376000170093C7F4FFF58FA300F7000144375B00
:103770000040110B172CFF1F130CCCF0974B0000CF
:10378000938B4BF0A14A29A29307F007E315F4FCB1
:10379000375700408347270093F7270F93E75700D9
:1037A0002301F7009307E0071727FF1F231CF7ECFF
:1037B0005DB7375700408347270093F7270F93E7FC
:1037C00017002301F7009307E00F1727FF1F231BA4
:1037D000F7EA51B7375700408347270093F7270F81
:1037E00093E747002301F7009307F0071727FF1F10
:1037F000231AF7E88DB7375700408347270093F720
:10380000270F93E787002301F7009307F00317279B
:10381000FF1F2319F7E681B737570040834727007A
:1038200093F7270F93E797002301F7009307E0032F
:103830001727FF1F2318F7E439BF37570040834786
:10384000270093F7270F93E7C7002301F700FD47F1
:103850001727FF1F2318F7E2FDBD375700408347A6
:10386000270093E7D7002301F700F9471727FF1F29
:10387000231AF7E0CDB53757004083471700C58FAF
:1038800093F7F70FA300F700D5B5050463055405BA
:10389000B3D78440858BF5DB330A640103550C00F4
:1038A00097300000E780807B4A86CE869730000004
:1038B000E780A0AD03A60B0083A64B009720000075
:1038C000E780603E97300000E78080731375F50F46
:1038D0002300AA005DBF3757004083470700DD8CF7
:1038E00093F4F40F23009700B250225492540259DB
:1038F000F249624AD24A424BB24B224C4561828025
:103900008567938707F0E98FE5D393770510D1C3D7
:103910003785930313050570B335A6025686814695
:103920003305A40297100000E7808014372B004075
:103930002326AB0089472300FB000325CB009730EB
:103940000000E78000794A86CE8697300000E78045
:10395000C0A3974700009387E7D29043D4439720B2
:103960000000E780403497300000E780606923283A
:10397000AB00F1472300FB00B717004003A7470B3C
:10398000599B23AAE70A03A7070A1367970023A0F6
:10399000E70A93F70420D1CFB717004003A7470DDC
:1039A0001377F7BF23AAE70C03A7070C1367074099
:1039B00023A0E70C03D7870113672700239CE700A8
:1039C000372B004089472300FB40378593031305BD
:1039D0000570B335A402568681463305A4029710BC
:1039E0000000E780E0082326AB4093174A0093E7E6
:1039F000C7FC93F7F70F2300FB400325CB4097301C
:103A00000000E780006D4A86CE8697300000E78090
:103A1000C097974700009387E7C69043D443972009
:103A20000000E780402897300000E780605D232891
:103A3000AB4093F70440D1CFB717004003A7470D21
:103A4000FD769386F67F758F23AAE70C03A7070CF4
:103A5000856693860680558F23A0E70C03D78701E0
:103A600013674700239CE700373A0040894723004B
:103A7000FA803785930313050570B335A402568683
:103A800081463305A40297100000E78060FE2326DC
:103A9000AA809307C0FD2300FA800325CA809730CF
:103AA0000000E78000634A86CE8697300000E780FA
:103AB000C08D974700009387E7BC9043D44397207D
:103AC0000000E780401E97300000E7806053232805
:103AD000AA8093974401E3D907E0B73400408947AF
:103AE0002380F4803785930313050570B335A40252
:103AF000568681463305A40297100000E78040F700
:103B000023A6A4809307C0FD2380F48003A5C4C02E
:103B100097300000E780E05B4A86CE869730000051
:103B2000E780A086974700009387C7B59043D443AA
:103B300097200000E780201797300000E780404C76
:103B400023A8A480B717004003A7470D259B23AAED
:103B5000E70C03A7070C1367670123A0E70C69B301
:103B6000797106D622D426D24AD04ECE52CC56CA2D
:103B70005AC85EC662C42A8A2E89B2899377F50F25
:103B8000ADC70144375B0040110B172CFF1F130C0E
:103B90006CAF974B0000938BEBAEA14A21A00504BC
:103BA000630E5415B3578A40858BF5DBB30464016B
:103BB00003550C0097300000E780404A4A86CE86C5
:103BC00097200000E780607C03A60B0083A64B00D3
:103BD00097200000E780200D97300000E7804042EA
:103BE0001375F50F2380A4005DBF8567938707F0E9
:103BF000E98F63850710937705108DCF3724004038
:103C0000484497300000E780C04C4A86CE86972013
:103C10000000E7808077974700009387A7A690432E
:103C2000D44397200000E780000897300000E78029
:103C3000203D08C893770A209DCF372400400325F4
:103C4000C44097300000E780C0484A86CE8697205F
:103C50000000E7808073974700009387A7A29043F6
:103C6000D44397200000E780000497300000E780ED
:103C700020392328A44093770A409DCF3734004051
:103C80000325C48097300000E780A0444A86CE8692
:103C900097200000E780606F974700009387879E1A
:103CA0009043D44397200000E780E0FF9730000066
:103CB000E78000352328A48093174A0163D00704C6
:103CC000373400400325C4C097300000E7806040CF
:103CD0004A86CE8697200000E780206B9747000039
:103CE0009387479A9043D44397200000E780A0FB36
:103CF00097300000E780C0302328A480B2502254BF
:103D000092540259F249624AD24A424BB24B224C77
:103D100045618280B1476305F502B9476307F5083D
:103D20006D4781476311E50817E8FFFF1308483A1C
:103D30009727FF1F938787959C43B05FB85921A8A9
:103D400017E8FFFF1308C8359727FF1F93870794CD
:103D50009C43B05BD8596346070693579700856626
:103D600093860680F58FB7F60F00B375D700CD8F19
:103D700051831377E77FD98F33060641B2971395A6
:103D8000B70037070080798D13979700370610002A
:103D9000718F598DFD8E558DD2073707E07FF98FD2
:103DA000C98F93E7F7063E85828017E8FFFF130867
:103DB000682F9727FF1F9387678D9C43F05BD85D23
:103DC00059BF05050A052E951C41F1BF6D712326CB
:103DD0001110C1671727FF1F232AF78A93060010C7
:103DE0000146C9450A8597F0FFFFE780C05B49455A
:103DF00097F0FFFFE78040568A856D4597000000E9
:103E0000E78080F1AAD88A85394597000000E780CD
:103E1000A0F02ADE8A85314597000000E780C0EFD8
:103E20002ADA8A86130600108145494597F0FFFF7C
:103E3000E780C0591745000013054585971000001D
:103E4000E780A0BF8320C110516182800D47636469
:103E5000A71005476308E50613178501618749CB5D
:103E60000947630BE5020D47631FE50AB7470040AA
:103E700083C757C093F70702E9EB854737460040F1
:103E8000C1669386B6BB034756C0137707025DEF42
:103E90008507E39AD7FE41A8B747004083C75780FC
:103EA00093F70702C9EF854737460040C1669386FE
:103EB000B6BB034756801377070259E38507E39A99
:103EC000D7FE95A0B737004083C7574093F7070246
:103ED000ADE3854737360040C1669386B6BB0347DE
:103EE00056401377070239E78507E39AD7FE25A8DE
:103EF000B737004083C7570093F7070285E385472C
:103F000037360040C1669386B6BB03475600137729
:103F1000070211E78507E39AD7FE31A081473737BB
:103F200000402304B70041651305B5BB33B5A700B6
:103F300082808147373700402304B740EDB781477F
:103F4000374700402304B780F9BF81473747004017
:103F50002304B7C0C9BF01458280411106C622C4EF
:103F60002E841C420547638CE7000947638EE700F7
:103F70001C4085071CC0B2402244410182805C4243
:103F8000620561858297EDB71C462380A7001C4619
:103F900085071CC6F1BF93071500230005001DCE41
:103FA00098411308000315E393070003A300F500ED
:103FB0000546328582803306E8408507A38FC7FE19
:103FC0001386F7FF098E2E87EDD5B345D7023367E9
:103FD000D70213060703E35207FEF1BF9841368369
:103FE000A54805E393070003A300F5000546D1B7F4
:103FF0008507A38FB7FE1386F7FF098EE36B67FA79
:1040000042873358D7023376D70293057603E3E12C
:10401000C8FE93050603E9BF011106CE22CC26CACD
:104020004AC84EC62A84AE84B2893689635DB5001B
:104030004A86CE851305000297000000E78020F233
:104040000504E39784FEF2406244D2444249B249F7
:1040500005618280411106C69375F50F05459700ED
:104060000000E780E0DEB24041018280130101C818
:10407000232E1136232C8136232A913623282137EB
:104080002326313723244137232251372320613718
:10409000232E7135232C8135232A91352328A135F0
:1040A0002326B1352A842E8B328C130600198145C4
:1040B000081B97F0FFFFE780E00013060019814519
:1040C000081097F0FFFFE780E0FF444000402285A2
:1040D000A68597300000E7808006AA8CAE8BAA8A5E
:1040E0002E8A97300000E780600F2A86AE862285F0
:1040F000A68597200000E780C0752A84AE846306F9
:104100000C02130DFCFF973700009387273303A998
:10411000070083A94700FD5D4A86CE8697200000F0
:10412000E780A0267D1DE319BDFF97300000E780E2
:1041300000012ACEAE8D2A8DAE8997370000938775
:1041400067649043D4432285A68597200000E780CA
:104150006018635E050E014681462285A68597207C
:104160000000E780801001496DC5973700009387F4
:10417000E72C03A847009C433EC842CA973700007B
:104180009387476003A847009C433EC442C642460B
:10419000D2462285A68597200000E780001F2A844A
:1041A000AE8405092246B24697200000E7808012BF
:1041B000635B0500014681462285A68597200000A5
:1041C000E780A00A69F5B3EB9B0163960B089307A0
:1041D00000032300FB00854413841400B3079B00F5
:1041E0001307E0022380E7007247B3EDED00639A06
:1041F0000D0C630D0C0033078B01BA9413070003F9
:10420000A380E7008507E39DF4FE6294229B2300D0
:104210000B0022858320C137032481378324413753
:10422000032901378329C136032A8136832A41367F
:10423000032B0136832BC135032C8135832C41356B
:10424000032D0135832DC1341301013882800149CA
:104250009DBF01498DBF930C011B6684814B21A03A
:10426000AA8A2E8AA68B93841B00294681465685EE
:10427000D28597100000E780A0F608C02946814645
:104280005685D28597100000E78000BC1104E31921
:104290000AFC63150A00A547E3E457FD95DC8A0B89
:1042A0001C1BBE9B5A8711A0BE8B83A70B00938754
:1042B00007032300F7009387CBFF0507E3969BFFD7
:1042C00021BF130A0102D28A8144A54B19A02A8D6D
:1042D000AE898504294681466A85CE8597100000FF
:1042E000E78000F023A0AA00294681466A85CE8592
:1042F00097100000E78040B5910AE39A09FC6394A7
:104300000900E3E6ABFD630F090093972400181042
:10431000BA97CA9413972400529723A007009107D5
:10432000E39DE7FEE38404EE939724009806BA9792
:104330009387C7CDB3068B0011A0BA8798431307A4
:1043400007032380E6001387C7FF8506E317FAFEFD
:1043500026946DBD757106C722C526C34AC1CEDE3F
:10436000D2DCD6DADAD8DED6E2D4E6D2EAD0EECEA5
:104370002A8A02D602D802DA02DC02DE82C082C2B7
:1043800082C423060104930700032306F10202D42A
:1043900003850500630105682E8BB28B054D814CAA
:1043A0001734000013048431173C0000130C4C3503
:1043B00035A052862C10354597000000E78020BAC2
:1043C00052862C10294597000000E78040B9DA8A10
:1043D000138B1A0003851A00630F056293075002BE
:1043E000630DF500A947E306F5FC52862C109700F3
:1043F0000000E780C0B6DA8AE1BF8144414621A0CF
:1044000093E41400368B93061B0083471B0081172F
:1044100013F7F70F636CE60893172700A2979C43E6
:10442000A297828793E42400F1BF93E44400D9BFAC
:1044300093E48400C1BF93E40401E9B79317290012
:104440003E9906093A99368B93061B0003071B0019
:10445000130707FDE374E6FE03071B009307E00262
:104460006309F7048149014D93061B0083071B0074
:1044700013078006638AE7061307C006638EE70406
:104480001307C004638EE704930A1B0003051B0097
:10449000930785FA93F6F70F130700026367D74C6B
:1044A00093972600E2979C43E2978287014925462D
:1044B00061BF368B8149254639A093972900BE9963
:1044C0008609BA99368B93061B0003071B00130756
:1044D00007FDE374E6FE49BF93EC1C00368B6DB715
:1044E00093EC2C00368B4DB7368B79BF93874B00FE
:1044F0003EC683A70B003ED2A94605464C10681065
:1045000097000000E78060A92A8B7C10B389A70080
:10451000925763CA070093F724008DCF130B150041
:10452000930DB00229A0130B1500930DD00293F741
:10453000840095EB93F71400638E074AB24B638DAA
:104540000D2852862C106E8597000000E78020A170
:10455000B24B59A493F7440063860746130B15002A
:10456000930D0002E9B752862C106E85970000006B
:10457000E780E09E63592B3352862C10130500030D
:1045800097000000E780A09D050BE3172BFF4A8BE7
:10459000B24BE9A4138BCB0083AD4B0083AB8B00F4
:1045A0006ECC5ECE014681466E85DE85972000008A
:1045B000E78040D2634E050093F72400930BB002CE
:1045C00085E393FB4400638D0B00930B000209A865
:1045D0006ECCB7070080B3C777013ECE930BD002F5
:1045E000631C0D0663930C0819466C10280897008D
:1045F0000000E780E0A7AA8993F78400C1CB639FFE
:104600000B0663DD290152862C1013050003970069
:104610000000E780C0948509E39729FF0305C102E4
:10462000CA8909CD930BC102850B52862C109700C5
:104630000000E780C09203850B007DF58588DA8B4A
:10464000E38804D8D2863010CA854E8597000000D2
:10465000E780C09CDA8BADBB4E866C1028089700B3
:104660000000E780E0A0AA8941BF19466C10280825
:1046700097000000E780C09FAA89BDBF52862C101A
:104680005E8597000000E780808DA5BF93F714003A
:1046900099C7639D0B020305C10249F565B7D28630
:1046A0003010CA854E8597000000E78020976397F9
:1046B0000B000305C102DA8B35F519BB52862C10AD
:1046C0005E8597000000E7808089E5B752862C1050
:1046D0005E8597000000E780808875BF938D4B0052
:1046E00083A70B003ECAC14601464C0868109700DC
:1046F0000000E780808A2A8B7C10B389A70093F79B
:104700008400A5C393FB040163980B025EC6635B40
:10471000252952862C101305000397000000E7801E
:104720000084050BE3472BFF63850B184A8BEE8B48
:10473000B24763950712A1A452862C1013050003FB
:1047400097000000E780A08152862C101305800797
:1047500097000000E780A080635A2B1585473EC66E
:104760004DBF93F714006399072093F70401638EFC
:104770000722130B2500D2863010CA855A85970070
:104780000000E780A08952862C101305000397F0E3
:10479000FFFFE780C07C52862C101305800797F03E
:1047A000FFFFE780C07B09AC93894B0083A70B0018
:1047B0003ECAA14601464C08681097F0FFFFE7800B
:1047C000C07D2A8BCE8B7C10B389670193F7840060
:1047D000A5EB93F71400C5CF0385090059E179A82B
:1047E00093894B0083A70B003ECA894601464C08BB
:1047F000681097F0FFFFE780407A2A8BCE8BE1B7F5
:1048000093894B0083A70B003ECAC14601464C0862
:10481000681097F0FFFFE78040782A8BCE8B65B752
:1048200093894B0083A70B003ECAA94601464C085A
:10483000681097F0FFFFE78040762A8BCE8B61B738
:10484000635C2B0752862C101305000397F0FFFFC3
:10485000E780E070050BE3172BFF4A8B0385090007
:1048600019C9FD1952862C1097F0FFFFE780206FC1
:10487000038509007DF58588E38C04B4D286301069
:10488000CA855A8597F0FFFFE780407991B6D286B6
:104890003010CA855A8597F0FFFFE780207803859E
:1048A000090061F135B64A8BB24B4DBF4A8BEE8B96
:1048B00075B74A8BEE8B5DB74A8B4DB793844B002F
:1048C00052862C1003850B0097F0FFFFE7802069CC
:1048D000A68BFDBC938D4B0003AB0B00EE8BE30965
:1048E0000BAE5A8597300000E780E0AF2AC6858876
:1048F00085CC6393090403050B0019C9050B528687
:104900002C1097F0FFFFE780806503050B007DF515
:10491000EE8BE38F04AAD2863010CA85324597F019
:10492000FFFFE780A06F6DB4D2863010CA8597F084
:10493000FFFFE780A06E75BFE35C30FD03050B0051
:1049400061D9DA99050B52862C1097F0FFFFE780AA
:104950000061E30F3BFB03050B006DF555BF83A71B
:104960000B00225798C3910BA5B452862C1097F0D8
:10497000FFFFE780C05EA9BC93F70401B5C752866C
:104980002C101305000397F0FFFFE780405D52866F
:104990002C101305800797F0FFFFE780405C090BA0
:1049A000EE8B6DBD4A8BEE8B55BDD2863010CA851D
:1049B00097F0FFFFE780806603850900EE8BE31226
:1049C00005EA39B493FD8400E3960DBA93F7140019
:1049D000E39607B6D2863010CA855A8597F0FFFF56
:1049E000E780C063B24B65BD03850900EE8BE31A17
:1049F00005E669B5D2863010CA855A8597F0FFFF63
:104A0000E780C06152862C106E8597F0FFFFE7802B
:104A10000055B24B69B52255BA402A449A440A4916
:104A2000F659665AD65A465BB65B265C965C065DBE
:104A3000F64D49618280397106CE2ED232D436D6F7
:104A40003AD83EDA42DC46DE85473EC097F7FFFFA4
:104A5000938787603EC2501032C6AA850A859700A8
:104A60000000E780608FF24021618280014863C6C8
:104A7000050E63DB06003306C040B337C000B30643
:104A8000D0401348F8FF9D8EB6873283AA8EAE8839
:104A90006391061863FCC50C41676361E61EB707A6
:104AA00000016365F63693568601E147173700002B
:104AB0001307C7D5369703470700BA9713070002B5
:104AC0001D8F19CBB395E500B357F5003313E600FE
:104AD000B3E8B700B31EE50013560301B3D7C8020D
:104AE00093160301C18213D70E01B3F5C8023385B3
:104AF000F602C205B3E8E50063FAA8009A981387A6
:104B0000F7FF63E4680063E9A832BA87B388A84076
:104B1000B3D5C802C20E93DE0E01B3F8C802B38645
:104B2000B602C208B3E8D80163FBD8009A9813878D
:104B3000F5FF63E56800F91563E3D800BA851395BE
:104B400007014D8D8145630908003305A040B33747
:104B5000A000B305B0409D8D82803305A040B337DF
:104B6000A000B305B0409D8D7D5821B701E60543F7
:104B70003353D3024167636AE30EB7070001636BE7
:104B8000F32893568301E14717370000130707C83E
:104B9000369703470700BA97130700021D8F65EB8E
:104BA00093180301B3866540135F030193D808018E
:104BB000854513D70E01B3D7E603B3F6E603338674
:104BC0001703C206558F637AC7001A979386F7FFBB
:104BD000636467006365C726B687118FB356E70322
:104BE000C20E93DE0E013377E703B3881603420744
:104BF0003367D701637B17011A971386F6FF636546
:104C00006700F91663631701B28613950701558D86
:104C10001DBF63E1D504C16763E1F604B707000176
:104C200063E2F61E93D886016147973700009387A9
:104C3000E7BDC69703C30700930700023A93B38703
:104C40006740E9EB63ECB61C3335C500134515002E
:104C50008145D5BD81450145FDB59307F00F63F250
:104C6000D71C93D886002147C9B71307F00F9A863F
:104C7000E37C67F093568300A14739B71307F00F21
:104C8000B286E375C7E293568600A14705B5331394
:104C9000E30033D6F500135F0301335EE603B396FA
:104CA000E500B357F500DD8E9318030193D8080192
:104CB000B31EE50093D50601B377E6033387C80337
:104CC000C207CD8F63FBE7009A971306FEFF63E3ED
:104CD000671663F1E716791E9A97998F33D6E70323
:104CE000139706014183B3F7E7033385C802939610
:104CF0000701D98E63FBA6009A969307F6FF63E738
:104D0000661263F5A61279169A9693150E01898E8E
:104D1000D18D45B533576600B396F600D98EB3D81A
:104D2000650013DF0601B3DEE803139E060133536B
:104D30006500135E0E01B395F500B365B30013D79C
:104D400005013316F600B3F8E8033303DE03C208A7
:104D500033E7E800637B670036979388FEFF63695B
:104D6000D70C6377670CF91E3697330767403353C8
:104D7000E703C205C1813377E703B3086E02420738
:104D8000D98D63FB1501B6951307F3FF63EED508C4
:104D900063FC15097913B695C20E416FB3EE6E0030
:104DA0001307FFFFB3F6EE0013D30E01718F41829C
:104DB000338EE602B3851541B386C60293580E01C1
:104DC0003307E302BA96C6963306C30263F3E600DE
:104DD0007A9613D306011A9663E2C5026385C5006D
:104DE000768581458DB341677D17F98EC206337E86
:104DF000EE00B317F500F296E3F4D7FE1385FEFF3D
:104E0000814591B393D80601414705B593560601F4
:104E1000C14769B993560301C147BDB381450545F3
:104E20001DB3B688014711B53A83BDB73E86F1BDC3
:104E3000C68E25BF328E55B5F9179A98C1B9F917A4
:104E40001A9761BBB687B2882A832E88639D0614A1
:104E500063F9C50A4167636EE61AB7070001636329
:104E6000F63493568601E147173700001307079A77
:104E7000369703470700BA97130700021D8F19CB17
:104E80003398E500B357F500B318E60033E807019F
:104E90003313E50013D608013355C8029396080171
:104EA000C182935703013377C802B385A602420734
:104EB0003368F700637AB80046989307F5FF636498
:104EC00018016367B8303E853308B8403357C802CD
:104ED0004203135303013378C802B386E602420843
:104EE00033686800637BD80046989307F7FF6365D3
:104EF000180179176363D8003E874205598D8145B3
:104F0000828001E60547B358C702416763EAE80EAD
:104F1000B707000163ECF82893D68801E1471737FB
:104F200000001307A78E369783460700BE969307A7
:104F30000002958FE5EB939E08013387154113DF3F
:104F4000080193DE0E018545935703013355E703AE
:104F50003377E703B306D5034207D98F63FAD70047
:104F6000C6971307F5FF63E4170163E6D7263A8572
:104F7000958F33D7E703420313530301B3F7E703D6
:104F8000B30ED703C207B3E7670063FBD701C69729
:104F90009306F7FF63E51701791763E3D7013687B7
:104FA0004205598D828063E2D504C16763E2F6044D
:104FB000B707000163E4F61E13D7860161489737EF
:104FC00000009387A784BA9703C70700130E000257
:104FD0004297330EEE40631A0E0C63EDB61C333568
:104FE000C5001345150081458280814501458280B9
:104FF0009307F00F63F3D71C13D786002148C1B77E
:105000001307F00FC686E37C17F193D68800A147FB
:1050100039B71307F00FB286E378C7E493568600DA
:10502000A14799B5B398F80033D6D50013DF08012E
:10503000335EE6033397F500B356D500558F939E44
:10504000080193DE0E013313F50093550701B37683
:10505000E603B387CE03C206CD8E63FBF600C69689
:105060001306FEFF63E4161763F2F616791EC69662
:105070009D8E33D6E60393170701C183B3F6E6038B
:105080003385CE02139706015D8F637BA700469799
:105090009307F6FF636817136376A712791646978E
:1050A00093150E01098FD18D45B5B357E600B39620
:1050B000C601DD8E33D3E50013DF0601B357E303EA
:1050C000939E060193DE0E013398C5013357E50028
:1050D00033680701935808013316C6013373E3039D
:1050E000B385FE024203B368130163FBB800B698B0
:1050F0001387F7FF63EAD80C63F8B80CF917B69872
:10510000B388B84033D7E803420813580801B3F80E
:10511000E8033383EE02C208B3E5080163FB6500D0
:10512000B6951308F7FF63EDD50863FB650879179B
:10513000B695C207416FD98F1307FFFFB3F6E7009B
:1051400093D80701718F4182B38EE602B385654023
:10515000B386C60213D80E013387E802BA96C29608
:105160003386C80263F3E6007A9693D80601469622
:1051700063E2C5026385C5003E8581458280416743
:105180007D17F98EC206B3FEEE003315C501F69603
:10519000E374D5FE1385F7FF8145828013D706019E
:1051A000414831BD93560601C1477DB993D60801E8
:1051B000C147B5B38145054582803687014801B5B1
:1051C000428785BF3E86E9BDBA871DBF328E4DB589
:1051D00079154698D5B97915C69759BBB6873288DF
:1051E0002A832E872E8E6393061463F1C50A4167C6
:1051F0006378E61A1307F00FB2866375C7009356FB
:105200008600A1471727000013074760369703471A
:10521000070093080002BA97B388F840638C08002F
:10522000B3951501B357F5003318160133EEB700E7
:105230003313150113560801B357CE021315080195
:10524000418193560301337ECE02B307F502420E2D
:105250003367DE006378F700429763650701637385
:10526000F70042971D8FB356C70293170301C183FE
:105270003377C7023305D5024207D98F63ECA708FD
:105280003385A740335515018145828001E60547E6
:105290003358C7024167636CE80EB70700016365C6
:1052A000F82A93568801E14717270000130707568D
:1052B00036970347070093080002BA97B388F8406F
:1052C000639A081E131E0801B38505411356080191
:1052D000135E0E0113570301B3D6C502B3F5C50221
:1052E000B386C603C2054D8F6377D70042976364C8
:1052F0000701636AD726158F3355C702420313533C
:1053000003013377C7023305C5034207B36767005C
:1053100063F8A700C29763E5070163F3A700C2978C
:105320003385A74033551501814582802A88E3EEF5
:10533000D5F4C16763E5F604B707000163E2F62020
:1053400013D38601E148972700009387274C9A974B
:1053500003CE070013030002469E3303C3416319C3
:10536000030463E4B6006369C5003308C540958D46
:10537000333705013387E5404285BA85828093073C
:10538000F00F63FBD71C13D38600A1486DBF130732
:10539000F00FC286E37A07F193568800A14729B738
:1053A000B70700016366F61A93568601E14799BD77
:1053B000B357C601B3966600DD8EB3D8C50113D7C7
:1053C0000601B3DEE802139F0601B357C501135F60
:1053D0000F01B3956500DD8D13D805013316660006
:1053E00033156500B3F8E802B307DF03C20833E8FA
:1053F0000801637BF80036989388FEFF6363D81634
:105400006371F816F91E36983308F840B357E8026E
:10541000C205C1813378E802330FFF021317080178
:105420004D8F637BE70136979385F7FF6369D7124A
:105430006377E713F9173697C20EC162B3EEFE0029
:105440001388F2FFB3F80E019355060193DE0E01A7
:1054500033780601B38F08033307E74133880E031F
:1054600093D70F01B388B802C298C697B38EBE0215
:1054700063F30701969E41687D1893D50701B3F742
:105480000701C207B3FF0F01F695FE976362B70AE3
:10549000630EB708B307F5403335F500B305B740E1
:1054A000898D339EC50133D567003365AE00B3D512
:1054B000650082803318180133D7F50013560801B0
:1054C000B356C702131E0801B357F500135E0E0151
:1054D000B3951501DD8D93DE050133131501337787
:1054E000C702B307DE0293160701B3E6D60163F8DD
:1054F000F600C29663E5060163F3F600C2969D8E40
:1055000033D7C60293970501C183B3F6C6023307AA
:10551000EE0293950601DD8D63F8E500C29563E523
:10552000050163F3E500C295998D6DB3E374F5F65B
:105530003386C740B3B7C700B6979D8DB28799BF72
:1055400013D30601C14801B593560801C147A9BB51
:1055500093560601C1477DB136838148EDB3AE87CE
:10556000E1BDC68E55B5429779B3370810000111D9
:105570007D183377B80026CA3378D80093D4450114
:1055800013D34601131E37004EC61357D5010E081C
:105590009357D60193F4F47F1373F37F06CE22CC96
:1055A0004AC893D9F50193DEF6013367C701131F8B
:1055B000350033E80701931F3600338E6440638261
:1055C000D9196358C0136306031CB70680009307FC
:1055D000F07F3368D8006383F4389307800363C493
:1055E000C735FD4763C1C749130500023305C541EF
:1055F000B3D7CF01B316A8003399AF00DD8E33398E
:105600002001B357C80133E926011D8F33092F410B
:10561000B3372F013306F7409317860063D607246C
:10562000370780007D173374E600630E042C228553
:1056300097200000E780C0D3130785FF930700027F
:10564000998FB357F9003316E400D18F3319E9006D
:105650006341972A33059740130615007D47634F32
:10566000C73813070002118FB356C9003319E90078
:105670003397E700558F333920013369270133D63B
:10568000C70081449377790081CF1377F900914760
:105690006308F70013074900333927014A963A890E
:1056A0009317860063D6071C138514009307F07FB9
:1056B000CE856304F520B70780FFFD17F18F93981F
:1056C000D70113593900A607B3E82801B183137530
:1056D000F57F9396C7005205F2406244B182FE0501
:1056E000C98ECD8ED2444249B2494685B685056100
:1056F0008280631E0E0A138314001373E37F631901
:105700000322B367E701B368F801639D041A638954
:105710000740638808443309FF41B3070741333624
:105720002F013386C7409317860063D8074C33890F
:10573000EF41B307E84033B62F013386C740F689FF
:1057400091B76350C00F6300030CB7068000930746
:10575000F07F3368D800638CF43A9307800363CBFF
:10576000C713FD4763D1C73713090EFE9307000225
:10577000B3562801630AFE00130900043309C94126
:1057800033192801B3EF2F013339F0013369D90000
:1057900031A2B367F801638C071C9307FEFF638E89
:1057A00007389306F07F630BDE1A3E8E3DB5B305D6
:1057B000934063930422B367E701638907329387B9
:1057C000F5FF638307449306F07F638ED520BE8583
:1057D0009307800363CEB72AFD4763C1B73E9307A3
:1057E00000028D8F3319F700B356BF00B317FF00C7
:1057F0003369D900B337F0003357B7003369F90084
:105800003308E84051ACB367F8016382073493076B
:10581000FEFF638C07209306F07F630ADE2E3E8E28
:105820002DBF63100E169386140093F7E67F6393E3
:105830000734B367E7016397042C6382073EB367BD
:10584000F801638007323309FF01B3070701333FD3
:10585000E9013386E7019317860063D70700B7078E
:1058600080FFFD177D8E854493777900E39F07E0E5
:105870009317D60193583900B3E8F80093573600D0
:105880001307F07F638DE404B207B18313F5F47F4F
:10589000CE8581B53369F801333920017A99B33760
:1058A000E9013386E70093178600E3DF07FA8504F2
:1058B0009307F07F6398F418CE851305F07F814736
:1058C000814801BDD1EB6386083A931636009317E1
:1058D000D8018D82B3E8D700F68993573800B3E733
:1058E000F800F9DB81451305F07FB7070800814810
:1058F000CDB3370680FF7D167D8E93777900998C26
:10590000E39507D8B5B74A8597200000E78040A601
:1059100013078501FD47E3D3E7D2130685FFB317CD
:10592000C900014935B33369F80133392001F9B9A8
:105930003309FF413306074133342F0133048640D6
:105940009317840063CD0724B3688900E39F08CCD4
:105950008147814981440DBFE39608F80E059317EE
:10596000D7010D81B3E8A700935737008DBF0E050F
:105970009317D7010D81B3E8A700F284935737003E
:1059800001B73305934063820412B7068000930782
:10599000F07F558F630DF32E9307800363CBA72011
:1059A000FD4763C3A72A93070002898F3319F700C5
:1059B000B356AF00B317FF003369D900B337F00017
:1059C0003357A7003369F9003A987E99B337F90144
:1059D000338607019A84C1BDB70680009307F07F24
:1059E000558FE317F3DE931736008D839318D80194
:1059F000B3E81701F68993573800D5B5130715FE9C
:105A00009306000233D7E700630AD600930600042A
:105A10003386C6403396C7003369C9003339200145
:105A20003369E9000146814481B53309FF01B307B9
:105A300007013336E9013E96931786008544E3D586
:105A400007E28944B70780FFFD17F18F135719004C
:105A500013791900336927019398F70133E9280175
:105A600013D6170005B113090EFE93070002B356B3
:105A70002801630AFE00130900043309C9413319E0
:105A80002801B3EF2F013339F0013369D900BDBECE
:105A90003369E7013339200133892F41B3B72F012F
:105AA0003306F8409A84F68985BEB367E7016382BE
:105AB00007189307F5FF6384071C9306F07F6304C0
:105AC000D5123E85D1BD93070002B387C741B316F7
:105AD000F8003399FF0033D6CF01D18E333920013E
:105AE000B357C80133E926013E974DBB93173600E3
:105AF0008D839318D801B3E81701AE84935738000B
:105B0000F689BDBBEDC33369F801E31D09DC0E0561
:105B10009317D7010D81B368F50093573700C1B3D0
:105B20006381080E931636009317D8018D82B3E86F
:105B3000D700F6899357380081BB3309FF41B3077B
:105B40000741333F2F013386E7418544F1B40E0509
:105B50009317D7010D81B368F500F284935737008E
:105B600005B30E059317D7010D81B3E8A70093572E
:105B7000370019BB9307F07FE380F6D43309FF01A8
:105B80003336E901B3070701B2979398F701135928
:105B9000190033E9280113D61700B684F1B133890F
:105BA000EF413307E84033B62F013304C740F6898D
:105BB000ADBC3369E7013339200101BD938705FE90
:105BC00093060002B357F700638AD50093060004DA
:105BD000B385B6403317B700336FEF003339E001B8
:105BE0003369F90055BD931736008D839318D8019A
:105BF000B3E8170193573800DDB1B368C900E395E6
:105C000008C68147814949B13389EF41B307E8406C
:105C100033B62F013386C740F6898544F5BA93160B
:105C200036009317D8018D82B3E8D7009357380018
:105C3000A1B9931636009317D8018D82B3E8D70027
:105C4000AA84935738002DB9930705FE93060002E6
:105C5000B357F700630AD500930600043385A640C6
:105C60003317A700336FEF003339E0013369F900D0
:105C7000A9BB81451305F07FB707080099BC33091C
:105C8000FF01B30707013336F9013E9675B393164A
:105C900036009317D8018D82B3E8D70093573800A8
:105CA0003DB9397193D7450122DC4AD856D22A89A9
:105CB0001394C50006DE26DA4ED652D45AD05ECEF4
:105CC00013F5F77F318093DAF501630D0510930723
:105CD000F07F630FF514135AD9010E0433648A0060
:105CE000370A8000336A4401131B3900930415C03E
:105CF0000144814B13D846011399C6001378F87FED
:105D0000B2881359C90093D9F601630E08089307A6
:105D1000F07F6300F8041357D6010E093369270199
:105D2000130818C0B70780003367F90093183600CE
:105D3000B38404418145BD4733C83A0163E8871AFB
:105D400097270000938787A40A043E9410403E964C
:105D500002863367C90093841480631607101364A6
:105D6000240081488945C1BF1306F07F8147014760
:105D7000B207F25062545206B1837E08D18FB3E766
:105D80000701D2544259B259225A925A025BF24B3D
:105D90003A85BE852161828001481306F07FB707EE
:105DA00008000147F1B73367C9004DCB630E0930D6
:105DB0004A8532C497100000E780805B22461307B3
:105DC00055FFF547930685FF998F3319D900B357CF
:105DD000F60033E72701B318D60026959304353F24
:105DE000814591BF336A240163050A0636C632C471
:105DF0006308042A228597100000E7806057224636
:105E0000B246AA84130755FF754A138B84FF330AE1
:105E1000EA4033146401335A4901336A8A00331B60
:105E200069011305D0C0B30495400144814BD9B535
:105E3000336A240163180A002144014B9304F07F64
:105E4000894B4DBD228A4A8B31449304F07F8D4BA0
:105E500055B51144014B8144854B69BD1364140051
:105E600081488545C9BD136434004A878D45E1B535
:105E7000630E052E8547898F9306800363D1F63420
:105E8000014681470147EDB5CE8689476381F53CE0
:105E90008D47E383F5F085473688E383F5FE138568
:105EA000F43FE357A0FC93F77800639A072893D652
:105EB00038009317770063D80700B70700FFFD1776
:105EC0007D8F138504409307E07FE3CFA7E8131687
:105ED000D70193179700B1833367D6001376F57F08
:105EE00041BDD6865287DA88DE8545B7636547238C
:105EF0006301EA22DA86FD145284014B931787006E
:105F000013D388013363F300935E0301B357D403C3
:105F1000131F0301135F0F0193D50601139E880021
:105F20003374D4033307FF024204C18D63FBE500E1
:105F30009A951386F7FF63E2652863F0E528F91761
:105F40009A95998D33D7D503C206C182B3F5D5038F
:105F50003306EF02C205D58D63FBC5009A95930603
:105F6000F7FF63EA652463F8C52479179A95C20799
:105F700041645D8F9307F4FF3375F7009358070171
:105F8000935F0E01B377FE00B302F502B386C540FE
:105F9000B383F80293D502013386AF021E962E9684
:105FA0003385F803637376002295C168FD18935515
:105FB0000601337616014206B3F81201AA954696F9
:105FC00063EAB6126386B6123306CB408D8E333B3E
:105FD000CB00338B66411385F43F63006319B358DC
:105FE000DB0393550601337BDB03B3061F03420B30
:105FF00033EB6501637BDB001A9B9385F8FF6361DC
:106000006B22637FDB20F9181A9B330BDB40B356FE
:10601000DB0342064182337BDB03330FDF02420B9B
:1060200033666601637BE6011A969385F6FF636B20
:10603000661E6379E61FF9161A96C208B3E8D800FF
:106040009395080193D20801C181B38EF5023306FE
:10605000E641B385BF0293D60E01B387F202BE9527
:10606000AE96B38F5F0263F4F600C167BE9FC16551
:10607000FD1593D70601ED8EC206B3FEBE00BE9F8E
:10608000F6966373F60B1A969387F8FF636D661A9C
:10609000636CF6196303F61DBE8893E8180011B50A
:1060A0004A8597100000E780A02C13075501F145A1
:1060B000930405022246B246E3D8E5D4130485FFD3
:1060C000331A8900014BB1BB328532C497100000EE
:1060D000E780002A13075501F146AA8722461305D7
:1060E0000502E3D0E6CEE1173317F6008148F5B19B
:1060F000E37CCBEC729B3335CB011A95AA96130542
:10610000F7FF6378D30263E6B6106382D5102A875F
:1061100065BDE3611BDF93551B009316FA01135411
:106120001A00CD8E7E0BD9BBE319F6F7E38B06D6AA
:1061300099BFE31ED3FCE378CBFD2A8771B593F7B3
:10614000F8009146E385D7D693B7C8FF93864800F9
:1061500093C717008D823E97A9BB81468547E34CC4
:10616000A0FEFD58E31805D0930410C085471385A1
:10617000E441B316A70033D6F8003395A800D18EBA
:106180003335A000C98E13F676003357F70001CEE1
:1061900093F7F60011466388C70093874600B3B6AD
:1061A000D7003697BE869317870063D80704054645
:1061B0008147014775BE36875DBBB28759B3FD463F
:1061C000E3D7F6FA0556098E930600023356C70048
:1061D0006388D7009387E443B317F700B3E8F80068
:1061E000B3361001D18E13F67600814701CE93F7B6
:1061F000F60011460147E392C7FA9317970013166A
:10620000D701B18313D73600518F014695B6E3709D
:10621000CBF0729B3335CB011A957917AA966DB3E3
:10622000AE88E5B3AE8611BD93171E0033BEC7011D
:1062300072931A96F9183E8EE311F6E7E303DEC671
:1062400093E81800B9B9BE88E30AF6FFB9B53688F5
:106250001306F07F8147014721BEE367DEFCBE885D
:10626000E310DEFE3DB913D74501B7071000FD1757
:1062700013D846011377F77F9308F07F33FEB700FA
:10628000AA8EF58FFD81328F1378F87FFD82630B24
:10629000170105436306180163140701630DFE002F
:1062A0001A858280B368AE000543E39B08FEE319BC
:1062B000E8FED18FF5F70543E394EEFF0143E38158
:1062C000D5FE054371FF3365AE003333A000C9BF6F
:1062D00013D74501B7071000FD1713D846011377F0
:1062E000F77F9308F07F33FEB700AA8EF58FFD810C
:1062F000328F1378F87FFD82630E1703630D180148
:1063000029E3B368AE00631F08005D8E01EE014310
:10631000638C080421A8B3E8C70009436396080406
:106320006DD305A0638408046385D50205438DCD34
:106330007D531DA8B368AE00094363970802630A42
:10634000E802631408005D8E75D2E391D5FEE34F39
:10635000E8FC63490701E3EBC7FD630FFE0001435F
:106360006374FE00F1D505431A858280EDFE7D53EE
:10637000E5BF5D8E79DACDBFE36ADFFB0143E3F56C
:10638000EEFFF5F175B739714AD813D945014ED6EC
:1063900052D456D29399C50006DE22DC26DA5AD0B2
:1063A0005ECE1379F97F2A8A93D9C90093DAF50171
:1063B000630D090E9307F07F630AF9181354D50192
:1063C0008E09B36934013704800033E489009314E3
:1063D0003500130919C08149814B13D74601139A1F
:1063E000C6001377F77FB285135ACA0013DBF60194
:1063F000630D07109307F07F6303F7049357D601EB
:106400000E0A33EA4701130717C0B7078000B367C6
:10641000FA00931536003A99814833C76A01BD46A0
:106420003A851308190063EC361717160000130697
:10643000E6398A09B29983A60900B2968286B367C3
:10644000CA001309F97F639D071293E9290081456A
:106450008948E1B701479307F07F3704080081447A
:106460003204D20731807E075D8C598CA285F250B0
:10647000625426854259D254B259225A925A025B2A
:10648000F24B216182805A853E84AE84C68B894757
:106490006381FB108D47E38FFBFA85472A8763965C
:1064A000FB3A81470144814465BF33E4A90061C4DC
:1064B00036C632C46382092C4E8597100000E780EF
:1064C00020EB2246B246AA87130755FF75449384F2
:1064D00087FF198CB399990033548A0033643401CF
:1064E000B3149A0013D746011309D0C0139AC600FB
:1064F0001377F77F3309F9408149814BB285135AED
:10650000CA0013DBF601E31707EEB367CA00A1CB9D
:1065100063010A24528532C497100000E78040E5E9
:1065200022462A87930655FFF547930587FF958FE7
:10653000331ABA00B357F600B3E74701B315B600F4
:106540003309E9401309D9C08148C1BD33E4A9002A
:1065500001ECA14981441309F07F894BBDBD93E94A
:1065600019008145854855BD4E84AA84B149130957
:10657000F07F8D4B9DB5914981440149854BB1BD5B
:1065800093E93900D2878D4849BD89475685E39301
:10659000FBF02A879307F07F01448144D1B5C16E97
:1065A0001386FEFF93D6040113DE0501F18CF18DF5
:1065B000338695023383B6029358060133059E0253
:1065C0001A95AA98B382C60363F36800F692C16F66
:1065D0001383FFFF33F5670093D30701B3F7680018
:1065E000C207337366003E933306950293D80801C1
:1065F000B387A602135F0601B3849302BE94FA9494
:10660000B38E760263F3F400FE9E416A9307FAFFAD
:10661000935F0401B376F400B3F9F4007D8EC1807A
:106620003384D502C209338FD401B299CE98B3070F
:10663000DE02935E0401B385BF02AE97BE9E330EA9
:10664000FE0363F3BE00529EC1679385F7FF33F6E6
:10665000BE006D8C4206229693DE0E01B305D50274
:10666000769E3385AF0213D40501B386D302AA9672
:10667000A296B38FF30363F3A600BE9F41657D1519
:10668000B3F7A600C2076D8DAA97B3855800B3B9BA
:106690003501FA97B2953384370133B6C500B30E8E
:1066A000C4013385CE0033343401B3B7E701C18F61
:1066B00033BECE0113D406013336C5003E94336693
:1066C000CE009394950032947E94B3E46400260443
:1066D00093567501B3349000DD8193179500CD8CEE
:1066E000558CDD8C9317740063DB070093D714007F
:1066F00085889316F401DD8CD58C0580428993073B
:10670000F93F635DF00893F6740081CE93F6F400D0
:1067100011466388C60093864400B3B4960026945D
:10672000B6849316740063D80600B70700FFFD1700
:106730007D8C930709409306E07F63C3F61093D6E0
:1067400034009314D4012604D58C318093F7F77F5D
:1067500001BB328532C497100000E78060C1930608
:106760005501F147130705022246E3DFD7DA611529
:10677000B317A6008145E9B397100000E78040BF3A
:1067800013075501F145930705022246B246E3DFA0
:10679000E5D261153314AA008144A9B385469D8EC4
:1067A000B1E71309E941B3972401B3D4D4003319F5
:1067B0002401B337F000B3649900DD8C93F77400C3
:1067C000B356D40081CF93F7F40011466388C70015
:1067D00093874400B3B49700A696BE84939786002F
:1067E00063D807048547014481449DB9130680039B
:1067F000E349D6CA7D46E356D6FA0556B307F640B6
:10680000930500023356F4006387B6001309E94389
:10681000B3172401DD8CB3349000D18C93F674004F
:10682000014499CA93F7F40011468146E392C7FAEE
:10683000139496003180F6068D80D58C81470DB17A
:106840009307F07F0144814421B942894DBD370748
:1068500010007D1701113373B70093D84601758F6F
:10686000935ED60122CC26CA0E0393D445019357DA
:10687000D5010E0706CE4AC84EC693F8F87F130E10
:10688000F07F33E7EE0093F4F47F13D4F50133E3A4
:106890006700131F3500FD82931E36006382C819FE
:1068A00093C61600B38514416307D4126353B0181E
:1068B000638D081AB70780005D8F6385C4599307FD
:1068C000800363C8B734FD4763C9B7489307000224
:1068D0008D8FB3D9BE003318F700B39EFE00336826
:1068E00038013357B700B339D00133683801330367
:1068F000E340B3090F41B3373F013306F340931729
:10690000860063D50724370980007D193379260175
:106910006301092E4A8597100000E78060A51307E0
:1069200085FF93070002998FB3D7F9003316E9006A
:10693000D18FB399E9006344972A058F1306170096
:10694000FD4663C7C63A13070002118FB3D6C900CC
:106950003398E9003397E700558F33380001B36966
:10696000070133D6C700814493F7790081CF93F6AE
:10697000F90091476388F6009386490033B83601E1
:106980004296B6899317860063D6071C13871400B6
:106990009307F07F05886306F720B70780FFFD1790
:1069A000F18F1398D70193D93900A60733683801BE
:1069B000B1831377F77F9396C7005207B1827E04A5
:1069C000D98EC18EF2406244D2444249B2494285D6
:1069D000B685056182806356B00A638A0812B707DC
:1069E00080005D8F6389C42D9307800363C7B71848
:1069F000FD4763D4B73C138805FE93070002B359E3
:106A00000701638AF50093070004B385B740331785
:106A1000B700B3EEEE003338D0013368380195A2E9
:106A2000B367D7019385148099E393C61600630A70
:106A3000D404D1E19387140093F7E77F639B071E8B
:106A4000B367E3013368D701639204166384073C9C
:106A500063180842131835009316D30113583800F1
:106A600033E806019357330019A2B367D701638750
:106A7000071A9387F5FF638D073A638EC523BE859A
:106A80003DBD639B051C9386140093F7E67FC1EF21
:106A9000B367E30163920436638F0744B367D7019A
:106AA000639607460E051318D3010D813368A800BD
:106AB000935733006DA8B385984063990420B3675A
:106AC000E301638F07309387F5FF638B074013055E
:106AD000F07F6385A520BE859307800363C4B72A32
:106AE000FD4763CAB73C930700028D8F3318F3004C
:106AF0003356BF00B317FF003368C800B339F00046
:106B00003353B300336838013307674041A4B36798
:106B1000D701638507109387F5FF638107206382A0
:106B2000C52FBE85D1B59307F07F638BF606FA9E1D
:106B300033B6EE01B307E300B2971398F70193DE83
:106B40001E00B369D80113D61700B68493F77900F5
:106B5000E39F07E09317D60113D839003368F80094
:106B6000A685935736001307F07F6380E506B207CA
:106B7000B18313F7F57F05883DBD3367D7013338FF
:106B8000E000B309E801B3B7E90133866700931762
:106B90008600E3DD07FA85049307F07F639EF4180F
:106BA00005881307F07F8147014831B563930710CB
:106BB0006303083C131836009317D70113583800A5
:106BC0003368F800368493573700B367F800E9DB81
:106BD00001441307F07FB70708000148E9BB3706F7
:106BE00080FF7D167D8E93F77900998CE39107D80D
:106BF00095B74E8597000000E780807713078501E1
:106C0000FD47E3D0E7D2130685FFB397C90081495A
:106C10001DB33368D70133380001E1B913183500CB
:106C20009317D301135838003368F8009357330093
:106C30001DBFB309DF413309E34033363F01330958
:106C4000C9409317890063CA072033E82901E3117B
:106C500008CC8147014421BFB38598406381041467
:106C6000B70680009307F07F3363D3006381F82079
:106C70009307800363CCB722FD4763C9B72C930702
:106C800000028D8F3318F300B356BF00B317FF0017
:106C90003368D800B339F0003353B3003368380198
:106CA0001A97B309D801B3B7D9013386E700C68470
:106CB000F9BDE31F08F0131835009317D3011358DB
:106CC00038003368F8009357330001B73705800068
:106CD0009307F07F3363A300E390F8E00E061318E8
:106CE000D7010D823368C800935737003684F1BD51
:106CF00005179306000233D7E700630AD600930610
:106D000000043386C6403396C700B3E9C900333860
:106D10003001B369E800014681440DBDB309DF01CC
:106D2000B307E30033BFE9013386E7019317860019
:106D30008544E3DD07E08944B70780FFFD17F18F45
:106D400013D7190013F81900336807019399F70155
:106D5000B3E9090113D6170001B9138805FE93079B
:106D60000002B3590701638AF50093070004B38555
:106D7000B7403317B700B3EEEE003338D0013368B5
:106D8000380185BE3363E30133386000B3890E41B7
:106D9000B3B73E013306F740C68436848DB6B36779
:106DA000E301638707189387F5FF638C071C93063D
:106DB000F07F638ED50ABE8565BD930700028D8F77
:106DC000B3D9BE003318F700B39EFE003368380114
:106DD0003357B700B339D001336838013A9355B30C
:106DE000131836009317D7011358380033E80701FA
:106DF00036849357370085BBBDCB3367D701E31982
:106E000007DC0E051318D3010D813368A8009357D2
:106E1000330065BBE30F08E2131836009317D70160
:106E2000135838003368F80036849357370081B31D
:106E3000B309DF41B307E340333F3F013386E74106
:106E4000854475BC131835009316D30113583800C8
:106E500033E80601935733008DBBB389EE41330607
:106E6000674033B93E0133092641368455B40E06D6
:106E70001318D7010D823368C80093573700B1B398
:106E8000B309DF41B307E34033363F013386C740E0
:106E90009317860063D7070AB389EE41B3076740AB
:106EA000B3BE3E013386D74136847DBC3363E301F4
:106EB00033386000FDB3138805FE93070002B35911
:106EC0000301638AF50093070004B385B7403313C9
:106ED000B300336F6F003338E001336838017DB59C
:106EE000B389EE41B3076740B3BE3E013386D74155
:106EF0003684854429B4131836009317D7011358E4
:106F000038003368F8009357370095B1B309DF01B3
:106F1000B307E30033BFE9013386E7019317860027
:106F2000E3D607C2B70780FFFD177D8E854439B9C8
:106F30000E061318D7010D823368C8009357370027
:106F40001DB133E8C900E30608D009B1138805FE76
:106F500093070002B3590301638AF5009307000405
:106F6000B385B7403313B300336F6F003338E0019C
:106F7000336838013DB301441307F07FB7070800B9
:106F80001DBCB309DF01B307E300B3BED9013386EB
:106F9000D70169BB93D74501B70610001387F6FFE9
:106FA00093F7F77F1306E03F6D8FFD81635CF6007A
:106FB0001306D041635AF600370500801345F5FFEC
:106FC0002E95828001458280130630431D8E7D48B8
:106FD000558F635DC80093063041B387F640B357C1
:106FE000F7003305F040E5F13E8582809387D7BEF8
:106FF000B317F7003355C500C98FE5B793D74501DF
:10700000B70610001387F6FF93F7F77F1306E03FEC
:107010002A886D8F0145FD816354F60099C18280F5
:1070200082801306E0417D55E34BF6FE13053043A5
:107030001D8D7D46558F634AA6009387D7BE3317B3
:10704000F7003355A800598D828013053041B307EE
:10705000F5403355F7008280411106C622C426C28E
:107060001DCD9357F541B3C4A7009D8C2A84268576
:1070700097000000E780C02F9306E041898EA94762
:107080007D8093F6F67F63CDA7022D47098FB3D796
:10709000E4005505B207B394A400B18329A00144CC
:1070A000814681478144B207D206B1837E04D58FE1
:1070B000C18FB24022442685BE8592444101828020
:1070C0005515B397A400B207B1838144E9BF29C124
:1070D000411122C406C62A8497000000E780402997
:1070E0009306E041898EA94793F6F67F63DCA702F9
:1070F0005515B317A400B207B1830147B24022442B
:10710000B207D206B183D58F3A85BE854101828010
:1071100081478146B207D206B1830147D58F3A85B0
:10712000BE8582802D47098FB357E400B20713074D
:1071300055013317E400B183D1B793D74501B706A2
:1071400010001387F6FF93F7F77F1306E03F6D8F6C
:10715000FD816353F60081C5014581458280130698
:10716000E0436355F6007D55FD55828013062043AC
:10717000B365D700635CF6001387D7BA9387D7BC93
:1071800063400704B315E500014582809306304350
:107190009D8E7D47635BD70013073041B307F740EF
:1071A000B3D7F50081453E8582801387D7BE3397DC
:1071B000E5003355D500B367A700B3D5D500E5B7D3
:1071C000FD46135715009D8E3357D700B395F50034
:1071D000D98D3315F5008280B367B500B1C3411175
:1071E00022C426C24AC006C6AA842E892E84B9C1EA
:1071F0002E8597000000E780A0179306E043898E54
:107200009307304363C7D7069317C9002D462687D7
:1072100093F6F67FB183635FA60C130655FF25A88E
:1072200081478146B207D206B1830147D58F3A859F
:10723000BE85828097000000E78080132A8693062F
:10724000E04313050502898E1307A00293F6F67F2B
:10725000634CA70C55061307B002098FB317C9007A
:1072600033D7E4005D8F9317C700B1833397C40011
:1072700051A09307604363D9D70213078501930791
:1072800085036347070C3396E40001472144098CCA
:10729000518F930704FE3337E00063CF0708B354E0
:1072A000F9008147D98C3E84A14763C1A7063707FF
:1072B00080FF7D1713F67400B377E40005C613F65C
:1072C000F40091456300B60213864400B33496007F
:1072D000A6979395870063D905089306F043F98F25
:1072E000898EB2841397D7018D80A607458FB1830D
:1072F00093F6F67FB2402244B207D206B183D58F0F
:10730000924402493A85BE8541018280130780027A
:10731000130685FF098F33D7E400B317C400336425
:10732000F700B394C40061B7930756FFB397F40016
:10733000B207B18301477DBF7D4693171900018EC7
:10734000B397C700B3D48400DD8CB357890099BFCD
:107350007D461D8E13D714003357C7003316F9002E
:10736000598E3397F4001DB7B284ADBFC167637EF9
:10737000F5029307F00F1307000263ECA7009707CD
:1073800000009387A748AA9703C507003305A740C5
:10739000828021819707000093874747AA9703C5FA
:1073A000070061473305A7408280B7070001636E7D
:1073B000F50061819707000093874745AA9703C5A9
:1073C000070021473305A7408280418197070000CD
:1073D0009387C743AA9703C5070041473305A740D2
:1073E0008280AA87850703C7F7FF6DFF3385A74013
:1073F0007D1582802D2D2D2D2D2D2D2D2D2D2D2DDD
:107400002D2D2D2D2D2D2D2D2D2D2D2D2D2D2D2DAC
:107410002D2D2D2D2D2D2D2D2D2D2D2D2D2D2D2D9C
:107420002D2D2D2D2D2D2D2D2D2D2D2D2D2D2D0AAF
:1074300000000000000000000000000000002440E8
:107440002D2D2D2D2D2D2D2D2D2D2D2D2D2D2D2D6C
:107450002D2D2D2D2D2D2D2D2D2D2D2D2D2D2D2D5C
:107460002D2D2D2D2D2D2D2D2D2D2D2D2D2D2D2D4C
:107470002D2D2D2D2D2D2D2D2D2D2D2D0A000000E6
:10748000A1EFBDF0BAF9C2ABCCE1CABEA1EF20209A
:1074900020202020202020202020202020202020EC
:1074A00020202020202020202020202020202020DC
:1074B000202020202020202020202020200A000022
:1074C000A1BED6D0CEC4C3FBB3C6A1BF474543B50A
:1074D000C44E4F53B1E0B3CCBFF2BCDCA3A85057AD
:1074E0004DB9B9BCFEB2E2CAD4D1F9C0FDA3A920FE
:1074F00020202020202020202020202020200A00C2
:10750000A1BEB3CCD0F2B9A6C4DCA1BF20202020FC
:10751000202020202020202020202020202020206B
:10752000202020202020202020202020202020205B
:10753000202020202020202020202020200A0000A1
:107540002020202020A2D920B3CCD0F2B8C4B1E4AE
:1075500050574DD5BCBFD5B1C8A3ACC0B6B5C6B8A1
:10756000FACBE6B1E4BBAFA3BB2020202020202033
:1075700020202020202020202020202020200A0041
:107580002020202020A2DA20D4CBD0D050574D2D5F
:10759000B2E2CAD4B3CCD0F24323A3ACB9DBB2EC91
:1075A00050574DB2A8D0CE202020202020202020CF
:1075B00020202020202020202020202020200A0001
:1075C000A1BED3B2BCFEC1ACBDD3A1BFBCFBB1BE9A
:1075D000B9A4B3CC30355F55736572426F61726484
:1075E000CEC4BCFEBCD0CFC2757365722E68CEC44B
:1075F000BCFE2020202020202020202020200A0047
:10760000A1BEB2D9D7F7CBB5C3F7A1BFD4CBD0D0E9
:107610005043B7BDB5C450574D2DB2E2CAD4B3CC18
:10762000D0F24323202020202020202020202020B2
:10763000202020202020202020202020200A0000A0
:10764000D5BCBFD5B1C83D25642C20B9DBB2ECC098
:10765000B6B5C62CD4CBD0D050574D2D4323A3A1C3
:107660000D0A0000B8DFB5E7C6BDA3BA310A0000B5
:10767000B5CDB5E7C6BDA3BA300A000000000000D2
:1076800000000000000059402020A1BE5573657223
:10769000CCE1CABEA1BFA3BABDABBDF8C8EB557360
:1076A0006572B5C46D61696EBAAFCAFDD6B4D0D08B
:1076B0002E2E2E0D0A0A000072CDFFFFF4CDFFFF23
:1076C000F4CDFFFF7ECDFFFFF4CDFFFFF4CDFFFF34
:1076D000F4CDFFFFF4CDFFFFF4CDFFFFF4CDFFFFAE
:1076E000F4CDFFFF6CCDFFFFF4CDFFFF48CDFFFFD2
:1076F000F4CDFFFFF4CDFFFF78CDFFFFE0CFFFFF1C
:107700006ED2FFFF6ED2FFFF6ED2FFFF6ED2FFFF81
:107710006ED2FFFF6ED2FFFF6ED2FFFF6ED2FFFF71
:107720006ED2FFFFE4D0FFFFC0D1FFFFF0CDFFFF1F
:107730006ED2FFFF98CEFFFF6ED2FFFF6ED2FFFF2B
:10774000F0CDFFFF6ED2FFFF6ED2FFFF6ED2FFFFC4
:107750006ED2FFFF62D2FFFFACD0FFFF04D1FFFF6C
:107760006ED2FFFF6ED2FFFFD8D1FFFF6ED2FFFFB8
:1077700024D1FFFF6ED2FFFF6ED2FFFFE0CFFFFFED
:107780009A9999999999B93F64E7FFFFE0E5FFFF5E
:10779000F8E6FFFF00E7FFFFF8E6FFFF10E6FFFF58
:1077A000F8E6FFFF00E7FFFFE0E5FFFFE0E5FFFF92
:1077B00010E6FFFF00E7FFFF5AE7FFFF5AE7FFFF72
:1077C0005AE7FFFF10E6FFFFD6EDFFFFC0ECFFFF1B
:1077D000C0ECFFFFBEECFFFFC6ECFFFFC6ECFFFFF7
:1077E0008CECFFFFBEECFFFFC6ECFFFF8CECFFFF55
:1077F000C6ECFFFFBEECFFFFC2EDFFFFC2EDFFFFD7
:10780000C2EDFFFF8CECFFFF000102020303030344
:107810000404040404040404050505050505050520
:107820000505050505050505060606060606060600
:1078300006060606060606060606060606060606E8
:1078400006060606060606060707070707070707D0
:1078500007070707070707070707070707070707B8
:1078600007070707070707070707070707070707A8
:107870000707070707070707070707070707070798
:107880000707070707070707080808080808080880
:107890000808080808080808080808080808080868
:1078A0000808080808080808080808080808080858
:1078B0000808080808080808080808080808080848
:1078C0000808080808080808080808080808080838
:1078D0000808080808080808080808080808080828
:1078E0000808080808080808080808080808080818
:1078F0000808080808080808080808080808080808
:0879000008080808080808083F
:08790800FF0000000000000078
:0400000310002000C9
:00000001FF
