:020000021000EC
:042000006F10004A13
:1020040000800020000000006F0080086F0080083E
:1020140000000000000000000000000000000000BC
:1020240000000000000000000000000000000000AC
:102034006F008006000000006F00400600000000F2
:102044006F0000066F0000066F0000066F000006B8
:102054006F0000066F0000066F000006000000001D
:102064006F00C0056F00C0056F00C0056F00C0059C
:102074006F00C0056F00C005000000006F00800500
:102084006F0080056F0080056F0080056F0080057C
:102094006F0000006F0000006F0000006F00000080
:1020A4006F0000006F0000006F0000006F00000070
:1020B4006F0000006F0000006F0000006F00000060
:1020C4006F0000006F0000006F0000006F00000050
:1020D4006F0000006F0000006F0000006F00000040
:0820E4006F0000006F00000016
:103000002303048095472303F4802302A480828055
:1030100083076480E3CE07FE230304808280830756
:103020006480E3CE07FE034544808280830764808A
:10303000E3CE07FE2302A4808280411126C44AC247
:103040004EC006C61377F50BAD47AA892E89954465
:10305000630CF700194597000000E780A0FA97007D
:103060000000E78020FB8D444E8597000000E7803C
:1030700060F9FD59FD1463983401B240A24412492D
:10308000824941018280135509011375F50F97009C
:103090000000E780E0F92209F1BF011126CC06CE3D
:1030A000B704080097000000E780C0F615459700B8
:1030B0000000E78020F597000000E78080F6970089
:1030C0000000E78000F62AC697000000E78080F441
:1030D00032459377150089EB136515001375F50FCD
:1030E000F240E24405618280FD14E9F00145CDBF64
:1030F000397126DC4ADA4ED852D656D45AD25ED02E
:1031000006DE62CE66CCB7E700E07D5783AA0700F3
:1031100022C603AA470023A0E71823A2E718B7177F
:103120000040130770052380E704130780FA23800B
:10313000E70483C74704930B75FFB684E20793FB4C
:10314000FB0F8546AA892E8B328937240040E18700
:10315000015763FA76016308D50089461307000218
:103160006313D5000157D98F93F7F70FB71C0040B1
:103170002382FC0411472303E4801305F00F97001A
:103180000000E78020E8094C97000000E78080E815
:1031900063617C15B70707003E9B378707007955A9
:1031A000637AEB04B3079B006366F704A947639552
:1031B000F90881E8814497000000E780A0E52685B2
:1031C00015A8DA85094597000000E78040E7050962
:1031D0000345F9FFFD14050B97000000E78040E56B
:1031E00081C49377FB0FE5F797000000E78020EBA1
:1031F00069F17D55B7170040130770052380E70478
:10320000130780FA2380E70403C74704418B238216
:10321000E704F250B7E700E023A0571123A24711BB
:10322000E25432445259C259325AA25A125B825B5A
:10323000724CE24C21618280A547639BF906856947
:103240001309F00FB3069900B3742B01B694134918
:10325000F9FFB3749900856B33796901416B9387EA
:10326000F9FFB3F7270199E363FC340193D94900CF
:10327000C147E3E637FF3DBF0569C1697D19D9B78D
:103280001305800D638869011305000263847901C9
:1032900013051008CA8597000000E78040DA970000
:1032A0000000E780C0DF31D54E99B38434416DBF53
:1032B000DA852D4597000000E78060D8CA94E30BBB
:1032C00099EE050997000000E780A0D5A30FA9FE9D
:1032D000FDB79387F9FF93F7F70F6368FC0A03C7FD
:1032E0005C04B70708001377070219E3B7870700E4
:1032F0007955E371FBF033079B00E3EDE7EE894777
:103300006396F9048980D549E38604EADA8509459C
:1033100097000000E780A0D211090327C9FF914759
:103320002320E48003076480E34E07FE23033481F7
:10333000FD17EDFBFD14110B81C49377FB0FE9FF23
:1033400097000000E780A0D561F165B58547E3856A
:10335000F9F2DA852D4597000000E78040CE938989
:10336000F4FFE38904E497000000E78080CB93F743
:10337000390091EB83260480032709009307490055
:10338000E39BE6E23E89CE84D9BFB5476399F90055
:103390001305900B97000000E780C0C621BDB14720
:1033A0001305B00AE388F9FE99476394F904DA85B6
:1033B0002D4597000000E78080C881448D4BA149CE
:1033C00097000000E780E0C56396740183270480BE
:1033D0002320F9008504E39534FF83270480131725
:1033E0002B01635507002312F900E9B32322F900EA
:1033F000D1B39D476397F90281451305B004970047
:103400000000E780C0C39D44FD5997000000E7809D
:1034100040C1B30799002380A700FD14E39734FF50
:1034200051BBA1476397F90697000000E78020C7CA
:103430008144630D0B008547930440046308FB003F
:103440009304000563048B019304C0031375C5073F
:10345000E30295D6194597000000E780A0BA9700CF
:103460000000E78020BB054597000000E78080B999
:10347000268597000000E780A0BB09459700000063
:10348000E78000BB97000000E78060C1E31405D22D
:0C3490008DB3E38109D2F15439BB000078
:1034A0009731FF1F938101031751FF1F130181B54E
:1034B00017050000130505B59725FF1F9385851493
:1034C0001726FF1F1306C65D63FCC5008322050097
:1034D00023A055001305450093854500E3E8C5FE8C
:1034E00017350000130585B49725FF1F9385855B6D
:1034F0001726FF1F1306067E63FCC5008322050006
:1035000023A055001305450093854500E3E8C5FE5B
:103510001725FF1F1305057C9725FF1F9385C57B86
:103520006378B5002320050013054500E36CB5FE64
:10353000B72200009382028873A00230EF00D0000F
:1035400097F2FFFF938242AC93E2120073905230E5
:10355000970200009382423A739012347300203035
:10356000397106DE935E8500137FF50F7685FA8547
:10357000F25021617685FA858280397106DEB28645
:103580002E86935E8500137FF50F7685FA850147B9
:103590006303E50039A03DC6854E630AD6010546A2
:1035A000EDA861CE854E630FD6070546FDA0B71284
:1035B00000409382020A05433313B30083A3020041
:1035C000B3E3630023A0720091C239A8B712004090
:1035D0009382C20A05433313B30083A30200B3E30B
:1035E000630023A0720055A8B71200409382820A9C
:1035F00005433313B30083A30200B3E3630023A0A6
:10360000720061A8B71200409382020A0543331387
:10361000B3001343F3FF83A30200B3F3630023A0BB
:103620007200A5A8B71200409382020C0543331321
:10363000B30083A30200B3E3630023A0720091C22E
:1036400039A8B71200409382C20C05433313B3006C
:1036500083A30200B3E3630023A072003DA8B71266
:1036600000409382820C05433313B30083A302000E
:10367000B3E3630023A072000DA0B7120040938251
:10368000020C05433313B3001343F3FF83A302007B
:10369000B3F3630023A0720009A0F2502161014539
:1036A0008280397106DE2E86935E8500137FF50FCA
:1036B0007685FA8501476303E5003DA811C239A864
:1036C000B71200409382C20A05433313B30083A3A9
:1036D0000200B3E3630023A07200A9A8B712004060
:1036E0009382820A05433313B30083A30200B3E33A
:1036F000630023A072003DA811C239A8B712004090
:103700009382C20C05433313B30083A30200B3E3D7
:10371000630023A0720039A8B71200409382820C84
:1037200005433313B30083A30200B3E3630023A074
:10373000720009A0F25021618280397106DE935E29
:103740008500137FF50F7685FA8501476303E50051
:10375000A9A8B71200409382820A83A302000543FE
:103760003313B300337373003353B30063010302A5
:1037700009A0B71200409382C20A05433313B30075
:1037800083A30200B3E3630023A072009DA8B712D5
:1037900000409382820A05433313B30083A30200DF
:1037A000B3E3630023A0720071B7B71200409382A5
:1037B000820C83A3020005433313B30033737300F9
:1037C0003353B3006301030209A0B7120040938290
:1037D000C20C05433313B30083A30200B3E36300B9
:1037E00023A0720039A8B71200409382820C0543CF
:1037F0003313B30083A30200B3E3630023A072007A
:1038000009A0F25021618280397106DE935E850045
:10381000137FF50F7686FA8601476303E5008DA0D6
:10382000B71200409382020A83A3020005433313B8
:10383000D300337373003353D300630303000DA02D
:10384000B71200409382420A83A302000543331358
:10385000D300337373003353D3006303030869A0A9
:10386000B71200409382820A83A3020005433313F8
:10387000D300337373003353D30063030306ADA047
:10388000B71200409382020C83A302000543331356
:10389000D300337373003353D300630303000DA0CD
:1038A000B71200409382420C83A3020005433313F6
:1038B000D300337373003353D300630303022DA08B
:1038C000B71200409382820C83A302000543331396
:1038D000D300337373003353D3006303030029A071
:1038E0008640216101458280F25021610545828038
:1038F000000000007971A14273B002301725FF1F4C
:103900001305451A97100000E78060DD1305E010ED
:103910008545054697000000E78060C6A14273A078
:1039200002309727FF1F9387E73903A3070005039A
:1039300023A06700B72309009383037CE36373FE2E
:103940009727FF1F93870738014323A06700972716
:10395000FF1F9387A737038307009303C0046318EF
:1039600073069727FF1F9387273603A307000503D6
:1039700023A067001725FF1F1305F52F97100000E0
:10398000E780E0D51725FF1F130555309727FF1F48
:10399000938787338C4397100000E78040D413054A
:1039A000E010814597000000E780E0CF1725FF1F5A
:1039B0001305152E97100000E78060D29725FF1F92
:1039C0009385C5301303100423A0650005A81305D3
:1039D000E010854597000000E780E0CC1725FF1F29
:1039E0001305252C97100000E78060CF9725FF1F57
:1039F0009385C52D1303C00423A065001DB7456141
:103A000082803D432A876373C3029377F700BDEF3B
:103A1000ADE5937606FF3D8ABA960CC34CC30CC73E
:103A20004CC74107E36BD7FE11E28280B306C34067
:103A30008A069702000096966780A6002307B700C3
:103A4000A306B7002306B700A305B7002305B700F8
:103A5000A304B7002304B700A303B7002303B700F0
:103A6000A302B7002302B700A301B7002301B700E8
:103A7000A300B7002300B700828093F5F50F93965B
:103A80008500D58D93960501D58D61B79396270056
:103A90009702000096968682E78086FA9680C11784
:103AA0001D8F3E96E374C3F8A5B70000411193152E
:103AB000C50085660146054506C69720FF1FE780BD
:103AC00060C3B2401375F50F41018280B68732059D
:103AD0004111B286AA953E86094506C69720FF1F6A
:103AE000E78040C1B2401375F50F41018280B205F5
:103AF0008D062E96F19A81473307F6006393D7001F
:103B000082800C433307F50091070CC3F5B74111D0
:103B100022C426C22A84B28491462E86AA850945EB
:103B200006C69720FF1FE780E0BC26869305440069
:103B3000914609459720FF1FE780C0BBB240224451
:103B400092440145410182807971320522D426D206
:103B50004AD006D63289B304B50001446369240112
:103B6000B2502254925402590145456182803387F4
:103B70008600834717000346270033059400A207F9
:103B80004206D18F034607002C082104D18F03463B
:103B9000370036C642046206D18F3ECC034667002A
:103BA0008347570041804206A207D18F0346470052
:103BB00003477700D18F6207D98F70083ECE9700F8
:103BC0000000E78000F5B24651BF79717D7322D4C1
:103BD00026D24AD04ECE52CC06D64103B387C5007A
:103BE00005641A91AA84AE893289368A6351F40435
:103BF0000D8C228697000000E78080ED138514006D
:103C00004205B3068A003306894081454181970009
:103C10000000E780E0EB056341131A91B2500145C3
:103C2000225492540259F249624A45618280856762
:103C30008A97AA85856633858740014697000000EC
:103C4000E78020EB05670A97814733048740139785
:103C50000701418363632703268597000000E780FF
:103C600020E585678A97FD76BE960566814526859F
:103C700097000000E78080ED79BFB306FA0083C6A5
:103C800006003387F90022972300D7008507C1B7C4
:103C9000B1476315F5029727FF1F9387A7039C433E
:103CA000D85917E8FFFF1308A83FB45B6357070410
:103CB00005050A052E951C413E858280B947631E85
:103CC000F5009727FF1F9387E7009C4317E8FFFF46
:103CD0001308483DD85DF45BD1BF6D478147E31DB4
:103CE000E5FC9727FF1F9387E7FE9C4317E8FFFF3C
:103CF0001308083EB859B45F55BF8565935747010F
:103D000013569700938505806D8E93F7E77FD18FCB
:103D100037F60F00718FD98FB3860641B69713958A
:103D2000B70037070080798DB7061000139797000A
:103D3000758F598D7D8E3707E07FD207518DF98FB2
:103D4000C98F93E7F7068DBF6D71C16793060010A9
:103D50000146C9450A85232611101727FF1F232B6B
:103D6000F7F697000000E780C0D8494597000000AB
:103D7000E78000D48A856D4597000000E78080F1D8
:103D8000AAD88A85394597000000E780A0F02ADE8E
:103D90008A85314597000000E780C0EF2ADA8A86DD
:103DA000130600108145494597000000E78020E296
:103DB000172500001305050797100000E7802092E3
:103DC0008320C110516182800D47636AA702C167D9
:103DD00089469387B7BB6300D504630BE5040547A9
:103DE000B73600406301E50203C7560013770702A8
:103DF00009C72384B60005458280FD17F5F7014504
:103E00008280FD17EDDF03C756401377070275DB8D
:103E10002384B6408280B746004003C7568013779C
:103E2000070201C72384B680F9B7FD17FDF7C1BFAC
:103E3000B746004003C756C01377070201C7238463
:103E4000B6C055BFFD17FDF75DBF1C42054763892E
:103E5000E70009476384E7029C4185079CC1828093
:103E60005C420111620506CE61852EC68297B2457D
:103E7000F2409C4185079CC1056182801C462380DD
:103E8000A7001C4685071CC6C1BF230005009C4136
:103E90001DCE05471308000381EB93070003A30021
:103EA000F500054632858280B3C5D702B3E7D70255
:103EB0001386070363D407003306F840B307E50011
:103EC0002380C7003A86AE870507F9FDE1BFF1D729
:103ED0000547A54833F6D70233D8D70293057603B2
:103EE00063E4C800930506033306E5002300B6002B
:103EF0003A860507E3E8D7FAC287E9BF011122CC69
:103F000026CA4AC806CE2A84AE8432896348940001
:103F1000F2406244D2444249056182803686CA85B5
:103F20001305000236C697000000E78040F2050442
:103F3000B246E9BF9375F50F05451703000067000A
:103F4000E3E8130101C92324813623229136232279
:103F50009135AA84B28C2E84130600198145080875
:103F60002326113623202137232E3135232C4135AA
:103F7000232A5135232861352326713523248135A1
:103F80002320A135232EB13397000000E780A0A79E
:103F9000130600198145081397000000E780A0A6CA
:103FA00003A9040083A94400668A4A85CE85972028
:103FB0000000E78060BB2A8DAE84AA8B2E8C9720F0
:103FC0000000E78040C42A86AE864A85CE859710D9
:103FD0000000E7800045AA892E89FD5A172B0000B2
:103FE000130BCBEF7D1A63155A0D97200000E78065
:103FF000A0B7972700009387E7EE03A847009C43EC
:104000002AC22E8B2A8AAE8A814D3EC442C62246DF
:10401000B2464E85CA8597100000E780A0E8635B32
:104020000500014681464E85CA8597100000E7804D
:10403000C0E041E9B3E4A401CDE493070003230009
:10404000F40085449307E00293891400A29423802E
:10405000F4009247336BFB0063160B0EE6877D5727
:1040600093060003FD178504639BE70C33853C0131
:104070002A94230004008320C1360324813683243C
:104080004136032901368329C135032A8135832A24
:104090004135032B0135832BC134032C8134832C10
:1040A0004134032D0134832DC13313010137828044
:1040B00003260B0083264B0097100000E780E0E901
:1040C00015B797270000938767E19043D4434E8547
:1040D000CA8597100000E78040E8AA892E89850DDF
:1040E0003DB7130901018144A549294681465E85F2
:1040F000E28597100000E780609B2320A9002946F5
:1041000081465E85E285850497000000E780806037
:10411000110963130C0263E179032287A687FD1757
:10412000939627001008B2969442050793860603DB
:10413000A30FD7FEEDF739B7AA8B2E8C7DB723805E
:10414000D4000DB7130B011A0149A54B294681462E
:104150005285D68597100000E78040952320AB005C
:10416000294681465285D685050997000000E780DB
:10417000605A110B639D0A0063EB4B0133852D01DF
:10418000631AA900AA87850491EF4E95D5B52A8AAE
:10419000AE8A6DBF931729001813BA9723A00700A2
:1041A0000509F9BFFD171397270014133697184315
:1041B000130707032380E400F9B7757122C526C3EE
:1041C000D2DCAA842E8A328481451306100268103C
:1041D000DAD8DED6E2D4E6D206C74AC1CEDED6DAD7
:1041E000EAD0EECE97000000E780E081930700035D
:1041F0002306F10202CA854B930C5002294B172C5F
:104200000000130C2CC503050A000DE1BA402A4436
:1042100052459A440A49F659665AD65A465BB65BE5
:10422000265C965C065DF64D49618280630F950BB6
:1042300026864C086308650197000000E78020C1CE
:10424000A28A61A4354597000000E78040C0268619
:104250004C082945D5B713691900328A83071A001B
:1042600013061A00638AE706634DF7086389A706F9
:10427000638A07078149254603071A0093071A0036
:10428000930607FD6376D6089306E002014D6304AA
:10429000D70A814B03071A009306800693071A007A
:1042A000630BD7009306C0066307D7009306C004CC
:1042B0006303D700D28703851700138A17001307FB
:1042C0000002930785FA93F7F70F6362F7408A07B6
:1042D000E2979C43E297828713692900BDBF136967
:1042E0004900A5BF136909018DBF01491307B00239
:1042F0009305D00293060003130500021308300251
:10430000B1BFE38AB7F4E397D7F613698900B1B771
:10431000B38969033E8AB69985B7330D6D03B287B9
:104320003A9D0387170013861700130707FDE3F66E
:10433000E6FE3E8A85B7A546EDB71C40A946054670
:104340002C0868103ECC97000000E78040B47C1039
:10435000B38DA700E247930A44002A8463D607027C
:1043600013041500130DD00293778900A9CB6309BC
:104370000D0026864C086A8597000000E78020AD76
:10438000634534034E84E9A29377290091C713044F
:104390001500130DB002C9BF137D4900E3060DFCE3
:1043A00013041500130D0002C1B726864C0813052F
:1043B000000397000000E78080A90504D1B7937738
:1043C000190089EBA6865008CE852285970000004B
:1043D000E78000B3630E0D1626864C086A859700A9
:1043E0000000E780C0A6ADA2832D4400930AC4005C
:1043F0000044014681466E85A2856ED022D2971078
:104400000000E78020AA63570504B7070080A18F4A
:104410006ED03ED21304D0026A8663930B00194615
:104420006C10081097000000E780E0B1937D190040
:10443000137989002A8D6304090401C826864C0873
:10444000228597000000E78080A063403D034E8DE9
:104450006010B9A8937729001304B002D5FF137434
:1044600049005DD81304000245BF26864C08130599
:10447000000397000000E780809D050DF9B7639960
:104480000D00A6865008CE8597000000E78040A763
:1044900061D026864C08228597000000E780209B8B
:1044A00045BF26864C08050497000000E780209A47
:1044B000030504007DF5638A0D00A6865008CE85AD
:1044C0006A8597000000E780A0A3050A568425BBF3
:1044D0001C40C14601466C0868103ECE97000000A3
:1044E000E780E09A7C10B38DA70093778900930A48
:1044F0004400137D09012A84C1C7814763030D026B
:1045000026864C081305000397000000E7802094DE
:1045100026864C081305800797000000E78020934B
:104520008547634334054E8463040D0295E3268674
:104530004C081305000397000000E7804091268691
:104540004C081305800797000000E780409009049D
:1045500003850D006DE113791900E30809F6A686BD
:104560005008CE852285B1BF26864C08130500036E
:104570003EC697000000E780808D0504B24755B71E
:10458000937719006398071463040D001304250042
:10459000A6865008CE85228597000000E7804096C9
:1045A000E3080DFA26864C08130500039700000067
:1045B000E780E08926864C08130580070DB51C406E
:1045C000930A4400A1463ECE01466C08681097004D
:1045D0000000E780C08B7C10B38DA7009377890023
:1045E0002A849DCFE35034DB26864C081305000354
:1045F00097000000E780A0850504EDB71C40930AF2
:10460000440089463ECEC9B71C40930A4400C146C7
:104610003ECE5DBF1C40930A4400A9463ECE6DB716
:104620009377190095F7A6865008CE85970000006D
:10463000E780008D31BFFD1D26864C084DB3030574
:10464000040026864C08930A440097000000E78087
:104650000080A5BD930A44000040E30804E62285DB
:1046600097100000E780C07A13791900AA8D6319AA
:104670000900A6865008CE8597000000E780408894
:10468000631D0D000305040015C526864C080504AE
:1046900097F0FFFFE780A07BF5B7229D030504009C
:1046A00011C9050426864C0897F0FFFFE780207AA1
:1046B000E3168DFEE30B09E0A6865008CE856E85D5
:1046C00009B51C405247930A440098C3FDBB268697
:1046D0004C089DB6E31D0DE4A5BD39713EDA854752
:1046E0002ED232D43EC25010970700009387C78461
:1046F000AA85480006CE36D63AD842DC46DE3EC40D
:1047000032C097000000E78080ABF24021618280D8
:10471000B687B2882A832E88639D061463F9C50A7A
:104720004167636EE61AB70700016363F634935678
:104730008601E147171700001307477F36970347A5
:104740000700BA97130700021D8F19CB3398E500B5
:10475000B357F500B318E60033E807013313E5005B
:1047600013D608013355C80293960801C1829357A6
:1047700003013377C802B385A60242073368F70006
:10478000637AB80046989307F5FF6364180163677E
:10479000B8303E853308B8403357C802420313533C
:1047A00003013378C802B386E60242083368680022
:1047B000637BD80046989307F7FF63651801791764
:1047C0006363D8003E874205598D8145828001E6AA
:1047D0000547B358C702416763EAE80EB70700010F
:1047E00063ECF82893D68801E147171700001307F8
:1047F000E773369783460700BE9693070002958FAE
:10480000E5EB939E08013387154113DF080193DE22
:104810000E018545935703013355E7033377E703CB
:10482000B306D5034207D98F63FAD700C69713079B
:10483000F5FF63E4170163E6D7263A85958F33D7F2
:10484000E703420313530301B3F7E703B30ED703A0
:10485000C207B3E7670063FBD701C6979306F7FF6C
:1048600063E51701791763E3D70136874205598D50
:10487000828063E2D504C16763E2F604B7070001F2
:1048800063E4F61E13D786016148971700009387EB
:10489000E769BA9703C70700130E00024297330E69
:1048A000EE40631A0E0C63EDB61C3335C50013459C
:1048B0001500814582808145014582809307F00F74
:1048C00063F3D71C13D786002148C1B71307F00F35
:1048D000C686E37C17F193D68800A14739B7130742
:1048E000F00FB286E378C7E493568600A14799B5E6
:1048F000B398F80033D6D50013DF0801335EE60322
:104900003397F500B356D500558F939E080193DE7B
:104910000E013313F50093550701B376E603B38711
:10492000CE03C206CD8E63FBF600C6961306FEFFCD
:1049300063E4161763F2F616791EC6969D8E33D67B
:10494000E60393170701C183B3F6E6033385CE026E
:10495000139706015D8F637BA70046979307F6FFC9
:10496000636817136376A7127916469793150E019D
:10497000098FD18D45B5B357E600B396C601DD8EDC
:1049800033D3E50013DF0601B357E303939E06011B
:1049900093DE0E013398C5013357E50033680701F4
:1049A000935808013316C6013373E303B385FE023F
:1049B0004203B368130163FBB800B6981387F7FF8F
:1049C00063EAD80C63F8B80CF917B698B388B84006
:1049D00033D7E803420813580801B3F8E8033383D8
:1049E000EE02C208B3E5080163FB6500B695130843
:1049F000F7FF63EDD50863FB65087917B695C20725
:104A0000416FD98F1307FFFFB3F6E70093D8070173
:104A1000718F4182B38EE602B3856540B386C602CC
:104A200013D80E013387E802BA96C2963386C802BD
:104A300063F3E6007A9693D80601469663E2C502D0
:104A40006385C5003E858145828041677D17F98E6B
:104A5000C206B3FEEE003315C501F696E374D5FE2B
:104A60001385F7FF8145828013D70601414831BD88
:104A700093560601C1477DB993D60801C147B5B326
:104A80008145054582803687014801B5428785BF4B
:104A90003E86E9BDBA871DBF328E4DB57915469861
:104AA000D5B97915C69759BBB68732882A832E8720
:104AB0002E8E6393061463F1C50A41676378E61A84
:104AC0001307F00FB2866375C70093568600A1479F
:104AD0001717000013078745369703470700930809
:104AE0000002BA97B388F840638C0800B3951501AB
:104AF000B357F5003318160133EEB7003313150121
:104B000013560801B357CE0213150801418193567D
:104B10000301337ECE02B307F502420E3367DE0097
:104B20006378F7004297636507016373F700429764
:104B30001D8FB356C70293170301C1833377C70292
:104B40003305D5024207D98F63ECA7083385A74008
:104B5000335515018145828001E605473358C70268
:104B60004167636CE80EB70700016365F82A935646
:104B70008801E147171700001307473B36970347A3
:104B8000070093080002BA97B388F840639A081E9A
:104B9000131E0801B385054113560801135E0E016B
:104BA00013570301B3D6C502B3F5C502B386C603D6
:104BB000C2054D8F6377D700429763640701636A2C
:104BC000D726158F3355C70242031353030133779A
:104BD000C7023305C5034207B367670063F8A70040
:104BE000C29763E5070163F3A700C2973385A74027
:104BF00033551501814582802A88E3EED5F4C167DB
:104C000063E5F604B707000163E2F62013D38601DB
:104C1000E14897170000938767319A9703CE070002
:104C200013030002469E3303C3416319030463E484
:104C3000B6006369C5003308C540958D333705015B
:104C40003387E5404285BA8582809307F00F63FB86
:104C5000D71C13D38600A1486DBF1307F00FC2867F
:104C6000E37A07F193568800A14729B7B7070001F7
:104C70006366F61A93568601E14799BDB357C6019C
:104C8000B3966600DD8EB3D8C50113D70601B3DE37
:104C9000E802139F0601B357C501135F0F01B395D7
:104CA0006500DD8D13D805013316660033156500E8
:104CB000B3F8E802B307DF03C20833E80801637BF7
:104CC000F80036989388FEFF6363D8166371F81670
:104CD000F91E36983308F840B357E802C205C1817F
:104CE0003378E802330FFF02131708014D8F637BFF
:104CF000E70136979385F7FF6369D7126377E71368
:104D0000F9173697C20EC162B3EEFE001388F2FFA8
:104D1000B3F80E019355060193DE0E0133780601B8
:104D2000B38F08033307E74133880E0393D70F018E
:104D3000B388B802C298C697B38EBE0263F3070168
:104D4000969E41687D1893D50701B3F70701C20706
:104D5000B3FF0F01F695FE976362B70A630EB708BB
:104D6000B307F5403335F500B305B740898D339E61
:104D7000C50133D567003365AE00B3D565008280C9
:104D80003318180133D7F50013560801B356C7027C
:104D9000131E0801B357F500135E0E01B3951501FC
:104DA000DD8D93DE0501331315013377C702B30799
:104DB000DE0293160701B3E6D60163F8F600C29649
:104DC00063E5060163F3F600C2969D8E33D7C602F3
:104DD00093970501C183B3F6C6023307EE0293959C
:104DE0000601DD8D63F8E500C29563E5050163F317
:104DF000E500C295998D6DB3E374F5F63386C7402F
:104E0000B3B7C700B6979D8DB28799BF13D306017C
:104E1000C14801B593560801C147A9BB9356060185
:104E2000C1477DB136838148EDB3AE87E1BDC68E03
:104E300055B5429779B313D74501B7071000FD1751
:104E400013D846011377F77F9308F07F33FEB7003E
:104E5000AA8EF58FFD81328F1378F87FFD82630B68
:104E6000170105436306180163140701630DFE0073
:104E70001A858280B368AE000543E39B08FEE31900
:104E8000E8FED18FF5F70543E394EEFF0143E3819C
:104E9000D5FE054371FF3365AE003333A000C9BFB3
:104EA00013D74501B7071000FD1713D84601137734
:104EB000F77F9308F07F33FEB700AA8EF58FFD8150
:104EC000328F1378F87FFD82630E1703630D18018C
:104ED00029E3B368AE00631F08005D8E01EE014355
:104EE000638C080421A8B3E8C7000943639608044B
:104EF0006DD305A0638408046385D50205438DCD79
:104F00007D531DA8B368AE00094363970802630A86
:104F1000E802631408005D8E75D2E391D5FEE34F7D
:104F2000E8FC63490701E3EBC7FD630FFE000143A3
:104F30006374FE00F1D505431A858280EDFE7D5332
:104F4000E5BF5D8E79DACDBFE36ADFFB0143E3F5B0
:104F5000EEFFF5F175B739714AD813D945014ED630
:104F600052D456D29399C50006DE22DC26DA5AD0F6
:104F70005ECE1379F97F2A8A93D9C90093DAF501B5
:104F8000630D090E9307F07F630AF9181354D501D6
:104F90008E09B36934013704800033E48900931427
:104FA0003500130919C08149814B13D74601139A63
:104FB000C6001377F77FB285135ACA0013DBF601D8
:104FC000630D07109307F07F6303F7049357D6012F
:104FD0000E0A33EA4701130717C0B7078000B3670B
:104FE000FA00931536003A99814833C76A01BD46E5
:104FF0003A851308190063EC3617171600001306DC
:10500000E6EE8A09B29983A60900B2968286B36752
:10501000CA001309F97F639D071293E929008145AE
:105020008948E1B701479307F07F370408008144BE
:105030003204D20731807E075D8C598CA285F250F4
:10504000625426854259D254B259225A925A025B6E
:10505000F24B216182805A853E84AE84C68B89479B
:105060006381FB108D47E38FFBFA85472A876396A0
:10507000FB3A81470144814465BF33E4A90061C420
:1050800036C632C46382092C4E8597100000E78033
:10509000C0D02246B246AA87130755FF75449384B1
:1050A00087FF198CB399990033548A003364340113
:1050B000B3149A0013D746011309D0C0139AC6003F
:1050C0001377F77F3309F9408149814BB285135A31
:1050D000CA0013DBF601E31707EEB367CA00A1CBE2
:1050E00063010A24528532C497100000E780E0CAA9
:1050F00022462A87930655FFF547930587FF958F2C
:10510000331ABA00B357F600B3E74701B315B60038
:105110003309E9401309D9C08148C1BD33E4A9006E
:1051200001ECA14981441309F07F894BBDBD93E98E
:1051300019008145854855BD4E84AA84B14913099B
:10514000F07F8D4B9DB5914981440149854BB1BD9F
:1051500093E93900D2878D4849BD89475685E39345
:10516000FBF02A879307F07F01448144D1B5C16EDB
:105170001386FEFF93D6040113DE0501F18CF18D39
:10518000338695023383B6029358060133059E0297
:105190001A95AA98B382C60363F36800F692C16FAA
:1051A0001383FFFF33F5670093D30701B3F768005C
:1051B000C207337366003E933306950293D8080105
:1051C000B387A602135F0601B3849302BE94FA94D8
:1051D000B38E760263F3F400FE9E416A9307FAFFF2
:1051E000935F0401B376F400B3F9F4007D8EC180BF
:1051F0003384D502C209338FD401B299CE98B30754
:10520000DE02935E0401B385BF02AE97BE9E330EED
:10521000FE0363F3BE00529EC1679385F7FF33F62A
:10522000BE006D8C4206229693DE0E01B305D502B8
:10523000769E3385AF0213D40501B386D302AA96B6
:10524000A296B38FF30363F3A600BE9F41657D155D
:10525000B3F7A600C2076D8DAA97B3855800B3B9FE
:105260003501FA97B2953384370133B6C500B30ED2
:10527000C4013385CE0033343401B3B7E701C18FA5
:1052800033BECE0113D406013336C5003E943366D7
:10529000CE009394950032947E94B3E46400260487
:1052A00093567501B3349000DD8193179500CD8C32
:1052B000558CDD8C9317740063DB070093D71400C3
:1052C00085889316F401DD8CD58C0580428993077F
:1052D000F93F635DF00893F6740081CE93F6F40015
:1052E00011466388C60093864400B3B496002694A2
:1052F000B6849316740063D80600B70700FFFD1745
:105300007D8C930709409306E07F63C3F61093D624
:1053100034009314D4012604D58C318093F7F77FA1
:1053200001BB328532C497100000E78000A79306C6
:105330005501F147130705022246E3DFD7DA61156D
:10534000B317A6008145E9B397100000E780E0A4F9
:1053500013075501F145930705022246B246E3DFE4
:10536000E5D261153314AA008144A9B385469D8E08
:10537000B1E71309E941B3972401B3D4D400331939
:105380002401B337F000B3649900DD8C93F7740007
:10539000B356D40081CF93F7F40011466388C70059
:1053A00093874400B3B49700A696BE849397860073
:1053B00063D807048547014481449DB913068003DF
:1053C000E349D6CA7D46E356D6FA0556B307F640FA
:1053D000930500023356F4006387B6001309E943CE
:1053E000B3172401DD8CB3349000D18C93F6740094
:1053F000014499CA93F7F40011468146E392C7FA33
:10540000139496003180F6068D80D58C81470DB1BE
:105410009307F07F0144814421B942894DBD37078C
:1054200010007D1701113373B70093D84601758FB3
:10543000935ED60122CC26CA0E0393D4450193571E
:10544000D5010E0706CE4AC84EC693F8F87F130E54
:10545000F07F33E7EE0093F4F47F13D4F50133E3E8
:105460006700131F3500FD82931E36006382C81942
:1054700093C61600B38514416307D4126353B01862
:10548000638D081AB70780005D8F6385C459930741
:10549000800363C8B734FD4763C9B7489307000268
:1054A0008D8FB3D9BE003318F700B39EFE0033686A
:1054B00038013357B700B339D001336838013303AB
:1054C000E340B3090F41B3373F013306F34093176D
:1054D000860063D50724370980007D1933792601BA
:1054E0006301092E4A8597100000E780008B13079F
:1054F00085FF93070002998FB3D7F9003316E900AF
:10550000D18FB399E9006344972A058F13061700DA
:10551000FD4663C7C63A13070002118FB3D6C90010
:105520003398E9003397E700558F33380001B369AA
:10553000070133D6C700814493F7790081CF93F6F2
:10554000F90091476388F6009386490033B8360125
:105550004296B6899317860063D6071C13871400FA
:105560009307F07F05886306F720B70780FFFD17D4
:10557000F18F1398D70193D93900A6073368380102
:10558000B1831377F77F9396C7005207B1827E04E9
:10559000D98EC18EF2406244D2444249B24942851A
:1055A000B685056182806356B00A638A0812B70720
:1055B00080005D8F6389C42D9307800363C7B7188C
:1055C000FD4763D4B73C138805FE93070002B35927
:1055D0000701638AF50093070004B385B7403317CA
:1055E000B700B3EEEE003338D0013368380195A22E
:1055F000B367D7019385148099E393C61600630AB5
:10560000D404D1E19387140093F7E77F639B071ECF
:10561000B367E3013368D701639204166384073CE0
:1056200063180842131835009316D3011358380035
:1056300033E806019357330019A2B367D701638794
:10564000071A9387F5FF638D073A638EC523BE85DE
:105650003DBD639B051C9386140093F7E67FC1EF65
:10566000B367E30163920436638F0744B367D701DE
:10567000639607460E051318D3010D813368A80001
:10568000935733006DA8B385984063990420B3679E
:10569000E301638F07309387F5FF638B07401305A2
:1056A000F07F6385A520BE859307800363C4B72A76
:1056B000FD4763CAB73C930700028D8F3318F30090
:1056C0003356BF00B317FF003368C800B339F0008A
:1056D0003353B300336838013307674041A4B367DD
:1056E000D701638507109387F5FF638107206382E5
:1056F000C52FBE85D1B59307F07F638BF606FA9E62
:1057000033B6EE01B307E300B2971398F70193DEC7
:105710001E00B369D80113D61700B68493F7790039
:10572000E39F07E09317D60113D839003368F800D8
:10573000A685935736001307F07F6380E506B2070E
:10574000B18313F7F57F05883DBD3367D701333843
:10575000E000B309E801B3B7E901338667009317A6
:105760008600E3DD07FA85049307F07F639EF41853
:1057700005881307F07F8147014831B5639307100F
:105780006303083C131836009317D70113583800E9
:105790003368F800368493573700B367F800E9DBC5
:1057A00001441307F07FB70708000148E9BB37063B
:1057B00080FF7D167D8E93F77900998CE39107D851
:1057C00095B74E8597000000E780205D130785019F
:1057D000FD47E3D0E7D2130685FFB397C90081499F
:1057E0001DB33368D70133380001E1B91318350010
:1057F0009317D301135838003368F80093573300D8
:105800001DBFB309DF413309E34033363F0133099C
:10581000C9409317890063CA072033E82901E311BF
:1058200008CC8147014421BFB385984063810414AB
:10583000B70680009307F07F3363D3006381F820BD
:105840009307800363CCB722FD4763C9B72C930746
:1058500000028D8F3318F300B356BF00B317FF005B
:105860003368D800B339F0003353B30033683801DC
:105870001A97B309D801B3B7D9013386E700C684B4
:10588000F9BDE31F08F0131835009317D30113581F
:1058900038003368F8009357330001B737058000AC
:1058A0009307F07F3363A300E390F8E00E0613182C
:1058B000D7010D823368C800935737003684F1BD95
:1058C00005179306000233D7E700630AD600930654
:1058D00000043386C6403396C700B3E9C9003338A5
:1058E0003001B369E800014681440DBDB309DF0111
:1058F000B307E30033BFE9013386E701931786005E
:105900008544E3DD07E08944B70780FFFD17F18F89
:1059100013D7190013F81900336807019399F70199
:10592000B3E9090113D6170001B9138805FE9307DF
:105930000002B3590701638AF50093070004B38599
:10594000B7403317B700B3EEEE003338D0013368F9
:10595000380185BE3363E30133386000B3890E41FB
:10596000B3B73E013306F740C68436848DB6B367BD
:10597000E301638707189387F5FF638C071C930681
:10598000F07F638ED50ABE8565BD930700028D8FBB
:10599000B3D9BE003318F700B39EFE003368380158
:1059A0003357B700B339D001336838013A9355B350
:1059B000131836009317D7011358380033E807013E
:1059C00036849357370085BBBDCB3367D701E319C6
:1059D00007DC0E051318D3010D813368A800935717
:1059E000330065BBE30F08E2131836009317D701A5
:1059F000135838003368F80036849357370081B362
:105A0000B309DF41B307E340333F3F013386E7414A
:105A1000854475BC131835009316D301135838000C
:105A200033E80601935733008DBBB389EE4133064B
:105A3000674033B93E0133092641368455B40E061A
:105A40001318D7010D823368C80093573700B1B3DC
:105A5000B309DF41B307E34033363F013386C74024
:105A60009317860063D7070AB389EE41B3076740EF
:105A7000B3BE3E013386D74136847DBC3363E30138
:105A800033386000FDB3138805FE93070002B35955
:105A90000301638AF50093070004B385B74033130D
:105AA000B300336F6F003338E001336838017DB5E0
:105AB000B389EE41B3076740B3BE3E013386D74199
:105AC0003684854429B4131836009317D701135828
:105AD00038003368F8009357370095B1B309DF01F8
:105AE000B307E30033BFE9013386E701931786006C
:105AF000E3D607C2B70780FFFD177D8E854439B90D
:105B00000E061318D7010D823368C800935737006B
:105B10001DB133E8C900E30608D009B1138805FEBA
:105B200093070002B3590301638AF5009307000449
:105B3000B385B7403313B300336F6F003338E001E0
:105B4000336838013DB301441307F07FB7070800FD
:105B50001DBCB309DF01B307E300B3BED90133862F
:105B6000D70169BB93D74501B70610001387F6FF2D
:105B700093F7F77F1306E03F6D8FFD816353F600C7
:105B800081C50145814582801306E0436355F600D7
:105B90007D55FD55828013062043B365D700635CB5
:105BA000F6001387D7BA9387D7BC63400704B315B1
:105BB000E50001458280930630439D8E7D47635BFF
:105BC000D70013073041B307F740B3D7F50081453D
:105BD0003E8582801387D7BE3397E5003355D500C5
:105BE000B367A700B3D5D500E5B7FD461357150039
:105BF0009D8E3357D700B395F500D98D3315F50039
:105C00008280B367B500B1C3411122C426C24AC025
:105C100006C6AA842E892E84B9C12E85970000005D
:105C2000E780A0179306E043898E9307304363C74C
:105C3000D7069317C9002D46268793F6F67FB183C2
:105C4000635FA60C130655FF25A881478146B2075E
:105C5000D206B1830147D58F3A85BE8582809700F1
:105C60000000E78080132A869306E04313050502AF
:105C7000898E1307A00293F6F67F634CA70C550696
:105C80001307B002098FB317C90033D7E4005D8F43
:105C90009317C700B1833397C40051A093076043A3
:105CA00063D9D70213078501930785036347070C60
:105CB0003396E40001472144098C518F930704FE79
:105CC0003337E00063CF0708B354F9008147D98C1C
:105CD0003E84A14763C1A706370780FF7D1713F6EF
:105CE0007400B377E40005C613F6F4009145630031
:105CF000B60213864400B3349600A69793958700A6
:105D000063D905089306F043F98F898EB2841397FF
:105D1000D7018D80A607458FB18393F6F67FB240F9
:105D20002244B207D206B183D58F924402493A8504
:105D3000BE854101828013078002130685FF098F0B
:105D400033D7E400B317C4003364F700B394C4003E
:105D500061B7930756FFB397F400B207B1830147C9
:105D60007DBF7D4693171900018EB397C700B3D44A
:105D70008400DD8CB357890099BF7D461D8E13D7F3
:105D800014003357C7003316F900598E3397F400C7
:105D90001DB7B284ADBFC167637EF5029307F00FF4
:105DA0001307000263ECA70097070000938707180A
:105DB000AA9703C507003305A74082802181970772
:105DC00000009387A716AA9703C50700614733050C
:105DD000A7408280B7070001636EF50061819707D5
:105DE00000009387A714AA9703C50700214733052E
:105DF000A740828041819707000093872713AA97C5
:105E000003C5070041473305A7408280AA8785075D
:105E100003C7F7FF6DFF3385A7407D158280000023
:105E20002020A1BE55736572CCE1CABEA1BFA3BA42
:105E3000BDABBDF8C8EB55736572B5C46D61696ED5
:105E4000BAAFCAFDD6B4D0D02E2E2E0D0A0A00004D
:105E500080E6FFFF7EE8FFFF7EE8FFFF7EE8FFFFB2
:105E60007EE8FFFF7EE8FFFF7EE8FFFF7EE8FFFFA2
:105E70007EE8FFFF7EE8FFFFACE7FFFFEEE7FFFFF6
:105E8000EAE4FFFF7EE8FFFF98E5FFFF7EE8FFFF03
:105E90007EE8FFFFEAE4FFFF7EE8FFFF7EE8FFFF0A
:105EA0007EE8FFFF7EE8FFFF72E8FFFF6EE7FFFF7F
:105EB000B8E7FFFF7EE8FFFF7EE8FFFF04E8FFFF93
:105EC0007EE8FFFFC4E7FFFF7EE8FFFF7EE8FFFFFD
:105ED00080E6FFFF000000000000000000002440FA
:105EE0009A9999999999B93F86F2FFFF70F1FFFF4E
:105EF00070F1FFFF6EF1FFFF76F1FFFF76F1FFFF1C
:105F00003CF1FFFF6EF1FFFF76F1FFFF3CF1FFFF79
:105F100076F1FFFF6EF1FFFF72F2FFFF72F2FFFFFB
:105F200072F2FFFF3CF1FFFF0001020203030303D3
:105F30000404040404040404050505050505050519
:105F400005050505050505050606060606060606F9
:105F500006060606060606060606060606060606E1
:105F600006060606060606060707070707070707C9
:105F700007070707070707070707070707070707B1
:105F800007070707070707070707070707070707A1
:105F90000707070707070707070707070707070791
:105FA0000707070707070707080808080808080879
:105FB0000808080808080808080808080808080861
:105FC0000808080808080808080808080808080851
:105FD0000808080808080808080808080808080841
:105FE0000808080808080808080808080808080831
:105FF0000808080808080808080808080808080821
:106000000808080808080808080808080808080810
:106010000808080808080808080808080808080800
:08602000080808080808080838
:106028000A2D2D2D2D2D2D2D2D2D2D2D2D2D2D2DBB
:106038002D2D2D2D2D2D2D2D2D2D2D2D2D2D2D2D88
:106048002D2D2D2D2D2D2D2D2D2D2D2D2D2D2D2D78
:106058002D2D2D2D2D2D2D2D2D2D2D2D2D2D2D2D68
:106068002D2D0AA1EFBDF0BAF9C2ABCCE1CABEA191
:10607800EF20202020202020202020202020202049
:106088002020202020202020202020202020202008
:1060980020202020202020202020202020202020F8
:1060A800202020200AA1BED6D0CEC4C3FBB3C6A1EF
:1060B800BF524953432D56BBE3B1E0B9A4B3CCBF9B
:1060C800F2BCDCA3A84750494FB9B9BCFEB2E2CA3A
:1060D800D4D1F9C0FDA3A9202020202020202020F1
:1060E800202020202020200AA1BEB3CCD0F2B9A6BF
:1060F800C4DCA1BFBBF9D3DA4750494FBBE3B1E0D9
:10610800B9B9BCFEBFD8D6C6C0B6B5C6C9C1CBB82A
:106118002020202020202020202020202020202077
:10612800202020202020202020200AA1BED3B2BC7D
:10613800FEC1ACBDD3A1BFBCFBB1BEB9A4B3CC30CA
:10614800355F55736572426F617264CEC4BCFEBC24
:10615800D0CFC2757365722E696E63CEC4BCFE2043
:10616800202020202020202020202020200AA1BE1E
:10617800B2D9D7F7CBB5C3F7A1BFB9DBB2ECD3B26D
:10618800BCFEB0E5C9CFB5C4C0B6B5C62020202036
:1061980020202020202020202020202020202020F7
:1061A80020202020202020202020202020202020E7
:1061B8000A2D2D2D2D2D2D2D2D2D2D2D2D2D2D2D2A
:1061C8002D2D2D2D2D2D2D2D2D2D2D2D2D2D2D2DF7
:1061D8002D2D2D2D2D2D2D2D2D2D2D2D2D2D2D2DE7
:1061E8002D2D2D2D2D2D2D2D2D2D2D2D2D2D2D2DD7
:1061F8002D0A00C9C1CBB8B4CECAFD6D4C69676819
:1062080074436F756E74203D0025640A004C49473D
:1062180048545F424C55453A4F4E2D2D0A004C4983
:106228004748545F424C55453A4F46462D2D0A0A79
:106238000000000000000000000000000000000056
:106248000000000000000000410000000000000005
:0400000310002000C9
:00000001FF
