:04C000006F10004A73
:10C0040000800020000000006F0080086F0080089E
:10C01400000000000000000000000000000000001C
:10C02400000000000000000000000000000000000C
:10C034006F008006000000006F0040060000000052
:10C044006F0000066F0000066F0000066F00000618
:10C054006F0000066F0000066F000006000000007D
:10C064006F00C0056F00C0056F2000346F40AF8AB9
:10C074006F00C0056F00C005000000006F00800560
:10C084006F0080056F0080056F0080056F008005DC
:10C094006F0000006F0000006F0000006F000000E0
:10C0A4006F0000006F0000006F0000006F000000D0
:10C0B4006F0000006F0000006F0000006F000000C0
:10C0C4006F0000006F0000006F0000006F000000B0
:10C0D4006F0000006F0000006F0000006F000000A0
:08C0E4006F0000006F00000076
:10D000002303048095472303F4802302A4808280B5
:10D0100083076480E3CE07FE2303048082808307B6
:10D020006480E3CE07FE03454480828083076480EA
:10D03000E3CE07FE2302A4808280411126C44AC2A7
:10D040004EC006C61377F50BAD47AA892E899544C5
:10D05000630CF700194597000000E780A0FA9700DD
:10D060000000E78020FB8D444E8597000000E7809C
:10D0700060F9FD59FD1463983401B240A24412498D
:10D08000824941018280135509011375F50F9700FC
:10D090000000E780E0F92209F1BF011126CC06CE9D
:10D0A000B704080097000000E780C0F61545970018
:10D0B0000000E78020F597000000E78080F69700E9
:10D0C0000000E78000F62AC697000000E78080F4A1
:10D0D00032459377150089EB136515001375F50F2D
:10D0E000F240E24405618280FD14E9F00145CDBFC4
:10D0F000397126DC4ADA4ED852D656D45AD25ED08E
:10D1000006DE62CE66CCB7E700E07D5783AA070053
:10D1100022C603AA470023A0E71823A2E718B717DF
:10D120000040130770052380E704130780FA23806B
:10D13000E70483C74704930B75FFB684E20793FBAC
:10D14000FB0F8546AA892E8B328937240040E18760
:10D15000015763FA76016308D50089461307000278
:10D160006313D5000157D98F93F7F70FB71C004011
:10D170002382FC0411472303E4801305F00F97007A
:10D180000000E78020E8094C97000000E78080E875
:10D1900063617C15B70707003E9B37870700795509
:10D1A000637AEB04B3079B006366F704A9476395B2
:10D1B000F90881E8814497000000E780A0E5268512
:10D1C00015A8DA85094597000000E78040E70509C2
:10D1D0000345F9FFFD14050B97000000E78040E5CB
:10D1E00081C49377FB0FE5F797000000E78020EB01
:10D1F00069F17D55B7170040130770052380E704D8
:10D20000130780FA2380E70403C74704418B238276
:10D21000E704F250B7E700E023A0571123A247111B
:10D22000E25432445259C259325AA25A125B825BBA
:10D23000724CE24C21618280A547639BF9068569A7
:10D240001309F00FB3069900B3742B01B694134978
:10D25000F9FFB3749900856B33796901416B93874A
:10D26000F9FFB3F7270199E363FC340193D949002F
:10D27000C147E3E637FF3DBF0569C1697D19D9B7ED
:10D280001305800D63886901130500026384790129
:10D2900013051008CA8597000000E78040DA970060
:10D2A0000000E780C0DF31D54E99B38434416DBFB3
:10D2B000DA852D4597000000E78060D8CA94E30B1B
:10D2C00099EE050997000000E780A0D5A30FA9FEFD
:10D2D000FDB79387F9FF93F7F70F6368FC0A03C75D
:10D2E0005C04B70708001377070219E3B787070044
:10D2F0007955E371FBF033079B00E3EDE7EE8947D7
:10D300006396F9048980D549E38604EADA850945FC
:10D3100097000000E780A0D211090327C9FF9147B9
:10D320002320E48003076480E34E07FE2303348157
:10D33000FD17EDFBFD14110B81C49377FB0FE9FF83
:10D3400097000000E780A0D561F165B58547E385CA
:10D35000F9F2DA852D4597000000E78040CE9389E9
:10D36000F4FFE38904E497000000E78080CB93F7A3
:10D37000390091EB832604800327090093074900B5
:10D38000E39BE6E23E89CE84D9BFB5476399F900B5
:10D390001305900B97000000E780C0C621BDB14780
:10D3A0001305B00AE388F9FE99476394F904DA8516
:10D3B0002D4597000000E78080C881448D4BA1492E
:10D3C00097000000E780E0C563967401832704801E
:10D3D0002320F9008504E39534FF83270480131785
:10D3E0002B01635507002312F900E9B32322F9004A
:10D3F000D1B39D476397F90281451305B0049700A7
:10D400000000E780C0C39D44FD5997000000E780FD
:10D4100040C1B30799002380A700FD14E39734FFB0
:10D4200051BBA1476397F90697000000E78020C72A
:10D430008144630D0B008547930440046308FB009F
:10D440009304000563048B019304C0031375C5079F
:10D45000E30295D6194597000000E780A0BA97002F
:10D460000000E78020BB054597000000E78080B9F9
:10D47000268597000000E780A0BB094597000000C3
:10D48000E78000BB97000000E78060C1E31405D28D
:0CD490008DB3E38109D2F15439BB0000D8
:10D4A0009791FF1F9381018017B1FF1F130181B571
:10D4B00017050000130505B59785FF1F938585B4F3
:10D4C0001786FF1F1306C6FD63FCC50083220500F7
:10D4D00023A055001305450093854500E3E8C5FEEC
:10D4E00017550000130545979785FF1F938545FB4A
:10D4F0001786FF1F130606FB63FCC5008322050089
:10D5000023A055001305450093854500E3E8C5FEBB
:10D510001785FF1F130505F99785FF1F9385C5F82C
:10D520006378B5002320050013054500E36CB5FEC4
:10D53000B72200009382028873A00230EF00D02649
:10D5400097F2FFFF938242AC93E212007390523045
:10D55000970200009382A24A739012347300203025
:10D560003D432A876373C3029377F700BDEFADE5B0
:10D57000937606FF3D8ABA960CC34CC30CC74CC7C2
:10D580004107E36BD7FE11E28280B306C3408A06EF
:10D590009702000096966780A6002307B700A306AF
:10D5A000B7002306B700A305B7002305B700A304FF
:10D5B000B7002304B700A303B7002303B700A302F7
:10D5C000B7002302B700A301B7002301B700A300EF
:10D5D000B7002300B700828093F5F50F939685007E
:10D5E000D58D93960501D58D61B793962700970247
:10D5F000000096968682E78086FA9680C1171D8F76
:10D600003E96E374C3F8A5B7371700408347770504
:10D6100093F7E70FA30BF704C54763EDA708174778
:10D620000000130767280A053A951C41411106C6F8
:10D63000BA978287054681451145B24041011713CB
:10D64000000067002389054681451545FDB705465D
:10D6500081453945DDB7054681453D45F9BF05465C
:10D66000814513050010D1BF0546814513056010A3
:10D67000E9B7054681452145C9B705468145254598
:10D680006DBF05468145114597100000E7808084F5
:10D6900005468145314555B70546814515459710E5
:10D6A0000000E780208305468145354579B7B240C3
:10D6B000410182808280B71700401377F500238CE8
:10D6C000E70403C777051377E70FA38BE7043D470C
:10D6D0006308E502636AA70039476303E506B717E5
:10D6E000004013073006B1A84547E36AA7FE1307B9
:10D6F0005006A38CE70403C797051377F70C39A8E6
:10D7000003C777051377E70FA38BE704130700F828
:10D71000A38DE704238CA70413075003A38CE7040D
:10D720000547B7170040238DE704371700408347AC
:10D73000A705858BEDFF0355C705520551818280F2
:10D740000D47A38CE7044111056706C61546B717B8
:10D75000004085451303F7FF094E854E130F1799B7
:10D76000930F57B89302C7B39303D7F69306C7F343
:10D770007D161376F60F25C603C79705238DB704CC
:10D7800011830D8B03C5A70505896DFD03D5C7055D
:10D790003375A300631DC70963F9A60003C7970586
:10D7A0001377F70C1367070165A097300000E78037
:10D7B000C070974700009387E7149043D443973095
:10D7C0000000E78020A89747000093872714904324
:10D7D000D44397300000E780E0A62A88AE889747B8
:10D7E0000000938727159043D4434285C685973020
:10D7F0000000E78020A597470000938727149043F7
:10D80000D44397200000E780A03597300000E780E0
:10D810004064AA874205418105676364E500856726
:10D82000FD17B24013950701418141018280631DBC
:10D83000D70563E9A20003C797051377F70C1367B1
:10D84000070239A063F9A30003C797051377F70C04
:10D85000A38CE70431BF97300000E780006697474C
:10D8600000009387270B9043D44397300000E78054
:10D87000609D974700009387670A9043D443973091
:10D880000000E780A0E881B75DF7E379AFF0E3F44B
:10D89000AFFA97300000E780406297470000938717
:10D8A00067089043D44397300000E780A0999747DA
:10D8B00000009387A707D1B741114AC01379F50F2C
:10D8C0004A8506C622C426C297000000E780E0DE33
:10D8D0002A844A8597000000E78020DEAA844A85D2
:10D8E00097000000E78060DD63F2840263669502C2
:10D8F000A28763738500AA8713940701418022855C
:10D90000B24022449244024941018280E36985FE8B
:10D91000E37795FE2A84E5B72684D5B779714AD096
:10D920001399050122D426D24ECE06D6AA890144E7
:10D9300081441359090163ED24013355B402B250F7
:10D94000225492540259F249456142054181828034
:10D950004E8585042EC6C20497000000E78000F6BD
:10D960002A94C180B245C1BF0111B7F5070022CC8E
:10D97000300081462A84D105194506CE9770FF1FD5
:10D98000E7804077A2470565130585063304A402A6
:10D990005D553305F5022984229597300000E78014
:10D9A000C051974700009387E7F49043D4439730E2
:10D9B0000000E780208997470000938727F4904371
:10D9C000D44397200000E78020A697400000E7801E
:10D9D00060CEF240624405618280930710343305C3
:10D9E000F502411102C6B24763E4A70041018280FB
:10D9F0000100B24785073EC6FDB7397122DC1784A6
:10DA0000FF1F130424AA1C4006DE26DA83A7471052
:10DA10004AD84ED652D456D25AD05ECE62CC66CABE
:10DA20006AC88297A14273B0023005468545130546
:10DA3000E01097000000E780E049054685451305A2
:10DA4000D01097000000E780E048054685451305A3
:10DA5000C01097000000E780E04781453D459700F2
:10DA60000000E780A0BAF165938505200145970085
:10DA70000000E780E05A1305400697000000E780A9
:10DA800000F6014597100000E7804082A14273A094
:10DA900002301C40130D0000014483A70710974972
:10DAA0000000938969EA174A0000130AAAEB8297DB
:10DAB000974A0000938A4AEC130B70025149974B26
:10DAC0000000938BEBFB4D4C974C0000938C8CE744
:10DAD0001305803E97000000E78060F04E859710A8
:10DAE0000000E780A01BA9453D4597000000E780A6
:10DAF00020E32AC697000000E78040E7B245AA84E9
:10DB0000528597100000E780601926859740000035
:10DB1000E78020AF2A86AE86568597100000E78002
:10DB2000E017930500006A8597300000E780606386
:10DB30006357A010A6856A8597300000E780C06A09
:10DB4000635F050EEA85268597300000E7808072C6
:10DB500083A50C0097300000E780A0606341050EAC
:10DB600017450000130505E397100000E780001338
:10DB700085451305E01097000000E780E02F8545FC
:10DB80001305D01097000000E780002F854513058E
:10DB9000C01097000000E780202E174500001305F5
:10DBA000A5E097100000E780600F0D4D1305C01031
:10DBB00097000000E780A0381305D0109700000000
:10DBC000E780E0371305803E97000000E78020E102
:10DBD0001305C01097000000E78060361305D010D1
:10DBE00097000000E780A0351305803E7D1D97005B
:10DBF0000000E780C0DEE31B0DFA9547B357F4023F
:10DC0000858B99C71305C01097000000E78020336B
:10DC1000A947B357F402858B99C71305D010970015
:10DC20000000E780C031B3572403858B99C71305E3
:10DC3000E01097000000E7808030268D51BD05047C
:10DC4000637F8B0617450000130585D797100000EA
:10DC5000E780C00401441305C01097000000E7806E
:10DC6000002E17450000130525D797100000E78008
:10DC7000E0021307B4FF914717450000130545D78D
:10DC800063FAE702130714FF174500001305C5D117
:10DC900063F2E702130774FE174500001305C5D6AB
:10DCA00063FAE7001307D4FD63EFE70017450000B0
:10DCB000130505D797100000E78040FE29A095477F
:10DCC000B377F402C9DBA947B377F402A1E71305E0
:10DCD000D01097000000E78080261745000013054C
:10DCE000A5D597100000E78060FB930764FF2547E8
:10DCF000174500001305C5D5637AF700930724FE86
:10DD0000636AF70017450000130505D69710000059
:10DD1000E780C0F8B37724038DF31305E010970074
:10DD20000000E780C0215E8597100000E78000F7C3
:10DD30009307C4FEE363FCF0174500001305C5D547
:10DD400097100000E78080F5CDBD41119315C50007
:10DD500085660146054506C69770FF1FE780803936
:10DD6000B2401375F50F41018280B687320541112B
:10DD7000B286AA953E86094506C69770FF1FE780C2
:10DD80006037B2401375F50F41018280B2058D06F0
:10DD90002E96F19A81473307F6006393D70082806D
:10DDA0000C433307F50091070CC3F5B779717D7308
:10DDB00022D426D24AD04ECE52CC06D64103B30747
:10DDC000B60005641A912A89AE84B289368A6357EF
:10DDD000F40405660D8E4206418297000000E7803C
:10DDE00020FD7D764E96269613051900B3069440C5
:10DDF00042064205D296418281454181970000004A
:10DE0000E78000FB056341131A91B250014522548B
:10DE100092540259F249624A4561828085678A9725
:10DE2000AA85856633858740014697000000E78014
:10DE300020F605670A978147330487401397070147
:10DE40004183636E370185678A97FD76BE960566C6
:10DE500081454A8597000000E78060F165B7B30609
:10DE6000FA0083C606003387F40022972300D70008
:10DE70008507E9B7935785001375F50F89C70547DF
:10DE80006386E702828085473395A70037170040F5
:10DE90006398F5008327870A5D8D2324A70A828073
:10DEA0008327C70A5D8D2326A70A82803395A700A2
:10DEB000371700406398F5008327870C5D8D232476
:10DEC000A70C82808327C70C5D8D2326A70C828038
:10DED00093568500AE871377F50FB28589C6054640
:10DEE000638AC60282808546639FD700B7160040CA
:10DEF00003A6060AB397E700D18F23A0F60A1703FB
:10DF00000000670063F7B717004003A7070A23A0C4
:10DF1000E70A8280639CD700B716004003A6060C70
:10DF2000B397E700D18F23A0F60CD1BFB7170040FD
:10DF300003A7070C23A0E70C8280B717004003A6B5
:10DF4000870A83A6870C935585001375F50F89C53D
:10DF500005476388E502828085453397A500B3763F
:10DF6000C70033D5A6006318B50083A6C70A558F2E
:10DF700023A6E70A828083A6870A558F23A4E70A8F
:10DF800082803397A500F98E33D5A6006318B500BB
:10DF900083A6C70C558F23A6E70C828083A6870C27
:10DFA000558F23A4E70C82806D7193060010014603
:10DFB000B1450A852326111097000000E78040DD57
:10DFC000314597000000E78080D8B747AF8A938734
:10DFD000F706BED8B7470FDB9387F7063EDEB74795
:10DFE0000F869387F7068A86130600108145314510
:10DFF0003EDA97000000E780A0DBA9671745000024
:10E00000130505AB1777FF1F232EF7489710000065
:10E01000E780C0C88320C110516182800547630C2E
:10E02000E50801C98947630CF5108D476303F51AAC
:10E030008280377678041306068C3356B602B717FB
:10E04000004083A6870C3735004093E6060823A4DA
:10E05000D70C83A6470DBD9A23AAD70C83A6070D1C
:10E0600093E6060123A8D70C83A6070CBD9A23A02C
:10E07000D70C83A6470D93F6F6F723AAD70C83A6F1
:10E08000070C93E6060823A0D70C930770F823012A
:10E09000F5008D47A301F50093070004A300F500E8
:10E0A0001506A9473356F6022307E50042064182CA
:10E0B0002316C5008280B77678049386068CB3D683
:10E0C000B602B717004003A7870A37380040136726
:10E0D000072023A4E70A03A7470B1377F7EF23AA28
:10E0E000E70A03A7070B1367071023A8E70A03A78C
:10E0F000070A1377F7EF23A0E70A03A7470B137765
:10E10000F7DF23AAE70A03A7070A1367072023A05C
:10E11000E70A930770F82301F8408D47A301F84000
:10E1200093070004A300F8409506A947B3D6F6026A
:10E130002307A840C206C1822316D8408280B717A1
:10E14000004003A6870C37088000B706C0FF33667F
:10E15000060123A4C70C03A6470DFD163705400092
:10E16000758E23AAC70C03A6070D498E23A8C70CDA
:10E1700003A6070C370580FF7D15F18E23A0D70C71
:10E1800003A6470D698E23AAC70C83A6070C374543
:10E190000040B3E6060123A0D70C930770F82301D3
:10E1A000F5808D47A301F58093070004A300F58057
:10E1B0002307E580377778041307078C3357B702B6
:10E1C000A94715073357F702420741832316E58015
:10E1D0008280B717004083A6870A3748004093E63D
:10E1E000060223A4D70A83A6470BBD9A23AAD70AFF
:10E1F00083A6070B93E6060123A8D70A83A6070A7E
:10E20000BD9A23A0D70A83A6470B93F6F6FD23AA4F
:10E21000D70A83A6070A93E6060223A0D70A930724
:10E2200070F82301F8C0A301A8C093070004A3005D
:10E23000F8C0B77778049387078CB3D7B702A9459E
:10E240002307E8C09507B3D7B702C207C1832316D7
:10E25000F8C0828005476304E50209C9894663075F
:10E26000D5028D46630BD5023E8582802380E50072
:10E27000B737004083C7870093F7F70FF5B72380C0
:10E28000A500B737004083C78740FDB72380E5006E
:10E29000B747004083C78780C5B72380E500B747ED
:10E2A000004083C787C0C9BF8D4763EEA70A0947EF
:10E2B0006305E5066306F50885476307F502B7378A
:10E2C000004003C7170013675700A380E70003C788
:10E2D0000700136787002380E700B7E700E03707F0
:10E2E000000423A0E7108280B737004003C727400F
:10E2F0001367070C2381E74003C7174013675700D4
:10E30000A380E74003C70740136787002380E740E7
:10E31000B7E700E037070008E9B7B747004003C791
:10E32000178013675700A380E78003C70780136730
:10E3300087002380E780B7E700E023A2A710828050
:10E34000B747004003C717C013675700A380E7C053
:10E3500003C707C0136787002380E7C0B7E700E063
:10E36000114723A2E71082808D4763EFA702094778
:10E370006302E5026305F50285476308F500B737D8
:10E38000004003C547003D898280B737004003C580
:10E390004740D5BFB747004003C54780EDB7B747F3
:10E3A000004003C547C0C5B701458280011122CE98
:10E3B0001774FF1F1304040F1C4083A74710829794
:10E3C000A14273B00230014597000000E78000FAD7
:10E3D0000DC19305F100014597000000E780C0E7FB
:10E3E0008347F100AA8591C7014597400000E78067
:10E3F000C090A14273A002301C4083A707108297EF
:10E4000072440561730020301C4205476389E700B0
:10E4100009476384E7029C4185079CC182805C4276
:10E420000111620506CE61852EC68297B245F24083
:10E430009C4185079CC1056182801C462380A70002
:10E440001C4685071CC6C1BF230005009C411DCE8C
:10E4500005471308000381EB93070003A300F500B1
:10E46000054632858280B3C5D702B3E7D70213864B
:10E47000070363D407003306F840B307E5002380A1
:10E48000C7003A86AE870507F9FDE1BFF1D705471A
:10E49000A54833F6D70233D8D7029305760363E451
:10E4A000C800930506033306E5002300B6003A864C
:10E4B0000507E3E8D7FAC287E9BF011122CC26CAD3
:10E4C0004AC806CE2A84AE84328963489400F2405A
:10E4D0006244D2444249056182803686CA8513056A
:10E4E000000236C697000000E78040F20504B246FD
:10E4F000E9BF9375F50F0545173300006700E37F0B
:10E50000130101C923248136232291362322913518
:10E51000AA84B28C2E84130600198145080823268C
:10E52000113623202137232E3135232C4135232A40
:10E530005135232861352326713523248135232045
:10E54000A135232EB13397F0FFFFE780A00113061A
:10E5500000198145081397F0FFFFE780A00003A989
:10E56000040083A94400668A4A85CE85973000005E
:10E57000E780009C2A8DAE84AA8B2E8C97300000F9
:10E58000E780E0A42A86AE864A85CE8597200000E3
:10E59000E780C017AA892E89FD5A173B0000130B8C
:10E5A0006B5C7D1A63155A0D97300000E780409828
:10E5B000973700009387875B03A847009C432AC2D4
:10E5C0002E8B2A8AAE8A814D3EC442C62246B2466E
:10E5D0004E85CA8597200000E78060BB635B05001D
:10E5E000014681464E85CA8597200000E78080B3AA
:10E5F00041E9B3E4A401CDE4930700032300F40050
:10E6000085449307E00293891400A2942380F400C8
:10E610009247336BFB0063160B0EE6877D5793061C
:10E620000003FD178504639BE70C33853C012A94A6
:10E63000230004008320C13603248136832441361D
:10E64000032901368329C135032A8135832A4135BF
:10E65000032B0135832BC134032C8134832C4134AB
:10E66000032D0134832DC13313010137828003262A
:10E670000B0083264B0097200000E780A0BC15B755
:10E68000973700009387074E9043D4434E85CA8541
:10E6900097200000E78000BBAA892E89850D3DB731
:10E6A000130901018144A549294681465E85E28519
:10E6B00097100000E780609E2320A900294681462C
:10E6C0005E85E285850497000000E780806311097C
:10E6D00063130C0263E179032287A687FD179396E3
:10E6E00027001008B2969442050793860603A30FED
:10E6F000D7FEEDF739B7AA8B2E8C7DB72380D400D7
:10E700000DB7130B011A0149A54B294681465285C5
:10E71000D68597100000E78040982320AB0029465B
:10E7200081465285D685050997000000E780605D27
:10E73000110B639D0A0063EB4B0133852D01631AB6
:10E74000A900AA87850491EF4E95D5B52A8AAE8A8D
:10E750006DBF931729001813BA9723A00700050966
:10E76000F9BFFD17139727001413369718431307A3
:10E7700007032380E400F9B7757122C526C3D2DCF4
:10E78000AA842E8A32848145130610026810DAD8D2
:10E79000DED6E2D4E6D206C74AC1CEDED6DAEAD069
:10E7A000EECE97F0FFFFE780E0DB93070003230640
:10E7B000F10202CA854B930C5002294B173C000012
:10E7C000130C0C3203050A000DE1BA402A445245ED
:10E7D0009A440A49F659665AD65A465BB65B265C95
:10E7E000965C065DF64D49618280630F950B268627
:10E7F0004C086308650197000000E78020C1A28AE9
:10E8000061A4354597000000E78040C026864C088B
:10E810002945D5B713691900328A83071A001306F0
:10E820001A00638AE706634DF7086389A706638ABF
:10E8300007078149254603071A0093071A00930624
:10E8400007FD6376D6089306E002014D6304D70AFC
:10E85000814B03071A009306800693071A00630B87
:10E86000D7009306C0066307D7009306C00463036E
:10E87000D700D28703851700138A170013070002F9
:10E88000930785FA93F7F70F6362F7408A07E297D9
:10E890009C43E297828713692900BDBF1369490031
:10E8A000A5BF136909018DBF01491307B002930584
:10E8B000D002930600031305000213083002B1BF13
:10E8C000E38AB7F4E397D7F613698900B1B7B38940
:10E8D00069033E8AB69985B7330D6D03B2873A9DB9
:10E8E0000387170013861700130707FDE3F6E6FEFC
:10E8F0003E8A85B7A546EDB71C40A94605462C08BB
:10E9000068103ECC97000000E78040B47C10B38DC7
:10E91000A700E247930A44002A8463D6070213043F
:10E920001500130DD00293778900A9CB63090D0060
:10E9300026864C086A8597000000E78020AD634575
:10E9400034034E84E9A29377290091C7130415007C
:10E95000130DB002C9BF137D4900E3060DFC13047B
:10E960001500130D0002C1B726864C0813050003DD
:10E9700097000000E78080A90504D1B793771900BC
:10E9800089EBA6865008CE85228597000000E78097
:10E9900000B3630E0D1626864C086A8597000000AA
:10E9A000E780C0A6ADA2832D4400930AC4000044B2
:10E9B000014681466E85A2856ED022D29710000056
:10E9C000E780E07C63570504B7070080A18F6ED015
:10E9D0003ED21304D0026A8663930B0019466C1072
:10E9E000081097000000E780E0B1937D19001379CB
:10E9F00089002A8D6304090401C826864C082285F3
:10EA000097000000E78080A063403D034E8D6010BA
:10EA1000B9A8937729001304B002D5FF13744900F5
:10EA20005DD81304000245BF26864C081305000379
:10EA300097000000E780809D050DF9B763990D00F0
:10EA4000A6865008CE8597000000E78040A761D0D9
:10EA500026864C08228597000000E780209B45BF52
:10EA600026864C08050497000000E780209A0305DD
:10EA700004007DF5638A0D00A6865008CE856A8560
:10EA800097000000E780A0A3050A568425BB1C4020
:10EA9000C14601466C0868103ECE97000000E78032
:10EAA000E09A7C10B38DA70093778900930A440005
:10EAB000137D09012A84C1C7814763030D0226869D
:10EAC0004C081305000397000000E7802094268679
:10EAD0004C081305800797000000E78020938547C6
:10EAE000634334054E8463040D0295E326864C0887
:10EAF0001305000397000000E780409126864C082C
:10EB00001305800797000000E78040900904038503
:10EB10000D006DE113791900E30809F6A686500887
:10EB2000CE852285B1BF26864C08130500033EC65C
:10EB300097000000E780808D0504B24755B79377B2
:10EB400019006398071463040D0013042500A686BA
:10EB50005008CE85228597000000E7804096E308A4
:10EB60000DFA26864C081305000397000000E78085
:10EB7000E08926864C08130580070DB51C40930AD2
:10EB80004400A1463ECE01466C0868109700000084
:10EB9000E780C08B7C10B38DA700937789002A840F
:10EBA0009DCFE35034DB26864C0813050003970005
:10EBB0000000E780A0850504EDB71C40930A4400DF
:10EBC00089463ECEC9B71C40930A4400C1463ECE9A
:10EBD0005DBF1C40930A4400A9463ECE6DB79377B3
:10EBE000190095F7A6865008CE8597000000E780AB
:10EBF000008D31BFFD1D26864C084DB30305040072
:10EC000026864C08930A440097000000E7800080A5
:10EC1000A5BD930A44000040E30804E6228597302E
:10EC20000000E78020C713791900AA8D6319090035
:10EC3000A6865008CE8597000000E7804088631DB7
:10EC40000D000305040015C526864C08050497F041
:10EC5000FFFFE780A07BF5B7229D0305040011C9E3
:10EC6000050426864C0897F0FFFFE780207AE3161C
:10EC70008DFEE30B09E0A6865008CE856E8509B5AA
:10EC80001C405247930A440098C3FDBB26864C089B
:10EC90009DB6E31D0DE4A5BD5D7122D41774FF1F61
:10ECA00013044480BEC21C402EDA32DC36DEBAC009
:10ECB000C2C4C6C683A7471006D62AC68297A142F9
:10ECC00073B00230324585473ECA5018970700009E
:10ECD00093876782AA8548083ECC32C89700000017
:10ECE000E780C0A92AC6A14273A002301C4083A7B6
:10ECF00007108297B2502254324561618280B687F4
:10ED0000B2882A832E88639D061463F9C50A416779
:10ED1000636EE61AB70700016363F6349356860103
:10ED2000E147173700001307E7EC36970347070062
:10ED3000BA97130700021D8F19CB3398E500B3571C
:10ED4000F500B318E60033E807013313E50013D6E6
:10ED500008013355C80293960801C18293570301F5
:10ED60003377C802B385A60242073368F700637A97
:10ED7000B80046989307F5FF636418016367B830DD
:10ED80003E853308B8403357C8024203135303018A
:10ED90003378C802B386E602420833686800637BB2
:10EDA000D80046989307F7FF6365180179176363E6
:10EDB000D8003E874205598D8145828001E605478E
:10EDC000B358C702416763EAE80EB707000163EC76
:10EDD000F82893D68801E14717370000130787E129
:10EDE000369783460700BE9693070002958FE5EBA2
:10EDF000939E08013387154113DF080193DE0E014E
:10EE00008545935703013355E7033377E703B3068B
:10EE1000D5034207D98F63FAD700C6971307F5FFCA
:10EE200063E4170163E6D7263A85958F33D7E70366
:10EE3000420313530301B3F7E703B30ED703C2072B
:10EE4000B3E7670063FBD701C6979306F7FF63E557
:10EE50001701791763E3D70136874205598D828000
:10EE600063E2D504C16763E2F604B707000163E417
:10EE7000F61E13D78601614897370000938787D71E
:10EE8000BA9703C70700130E00024297330EEE40F5
:10EE9000631A0E0C63EDB61C3335C500134515001F
:10EEA000814582808145014582809307F00F63F39D
:10EEB000D71C13D786002148C1B71307F00FC686A9
:10EEC000E37C17F193D68800A14739B71307F00FF9
:10EED000B286E378C7E493568600A14799B5B39804
:10EEE000F80033D6D50013DF0801335EE60333970D
:10EEF000F500B356D500558F939E080193DE0E01A1
:10EF00003313F50093550701B376E603B387CE03B9
:10EF1000C206CD8E63FBF600C6961306FEFF63E4C1
:10EF2000161763F2F616791EC6969D8E33D6E60343
:10EF300093170701C183B3F6E6033385CE02139717
:10EF400006015D8F637BA70046979307F6FF636812
:10EF500017136376A7127916469793150E01098F3A
:10EF6000D18D45B5B357E600B396C601DD8E33D3D8
:10EF7000E50013DF0601B357E303939E060193DE1A
:10EF80000E013398C5013357E500336807019358E4
:10EF900008013316C6013373E303B385FE0242034F
:10EFA000B368130163FBB800B6981387F7FF63EAF1
:10EFB000D80C63F8B80CF917B698B388B84033D7B3
:10EFC000E803420813580801B3F8E8033383EE025C
:10EFD000C208B3E5080163FB6500B6951308F7FFA7
:10EFE00063EDD50863FB65087917B695C207416FD5
:10EFF000D98F1307FFFFB3F6E70093D80701718F8E
:10F000004182B38EE602B3856540B386C60213D84B
:10F010000E013387E802BA96C2963386C80263F3BC
:10F02000E6007A9693D80601469663E2C5026385A8
:10F03000C5003E858145828041677D17F98EC206F5
:10F04000B3FEEE003315C501F696E374D5FE1385C5
:10F05000F7FF8145828013D70601414831BD9356A1
:10F060000601C1477DB993D60801C147B5B38145B3
:10F07000054582803687014801B5428785BF3E86B7
:10F08000E9BDBA871DBF328E4DB579154698D5B901
:10F090007915C69759BBB68732882A832E872E8E5C
:10F0A0006393061463F1C50A41676378E61A130790
:10F0B000F00FB2866375C70093568600A1471737D5
:10F0C0000000130727B33697034707009308000291
:10F0D000BA97B388F840638C0800B3951501B3570D
:10F0E000F5003318160133EEB7003313150113562C
:10F0F0000801B357CE02131508014181935603014D
:10F10000337ECE02B307F502420E3367DE0063782A
:10F11000F7004297636507016373F70042971D8FFD
:10F12000B356C70293170301C1833377C702330570
:10F13000D5024207D98F63ECA7083385A740335522
:10F1400015018145828001E605473358C7024167B2
:10F15000636CE80EB70700016365F82A93568801CF
:10F16000E147173700001307E7A836970347070062
:10F1700093080002BA97B388F840639A081E131EDA
:10F180000801B385054113560801135E0E0113579C
:10F190000301B3D6C502B3F5C502B386C603C205E3
:10F1A0004D8F6377D700429763640701636AD72660
:10F1B000158F3355C7024203135303013377C70238
:10F1C0003305C5034207B367670063F8A700C2971A
:10F1D00063E5070163F3A700C2973385A740335562
:10F1E0001501814582802A88E3EED5F4C16763E585
:10F1F000F604B707000163E2F62013D38601E14865
:10F20000973700009387079F9A9703CE0700130351
:10F210000002469E3303C3416319030463E4B6004E
:10F220006369C5003308C540958D333705013387C1
:10F23000E5404285BA8582809307F00F63FBD71CB7
:10F2400013D38600A1486DBF1307F00FC286E37A7F
:10F2500007F193568800A14729B7B70700016366F5
:10F26000F61A93568601E14799BDB357C601B39686
:10F270006600DD8EB3D8C50113D70601B3DEE80200
:10F28000139F0601B357C501135F0F01B3956500C6
:10F29000DD8D13D805013316660033156500B3F80C
:10F2A000E802B307DF03C20833E80801637BF80014
:10F2B00036989388FEFF6363D8166371F816F91EBB
:10F2C00036983308F840B357E802C205C181337855
:10F2D000E802330FFF02131708014D8F637BE7012C
:10F2E00036979385F7FF6369D7126377E713F917AA
:10F2F0003697C20EC162B3EEFE001388F2FFB3F878
:10F300000E019355060193DE0E0133780601B38F8B
:10F3100008033307E74133880E0393D70F01B388FF
:10F32000B802C298C697B38EBE0263F30701969ED9
:10F3300041687D1893D50701B3F70701C207B3FFF2
:10F340000F01F695FE976362B70A630EB708B3071D
:10F35000F5403335F500B305B740898D339EC501BF
:10F3600033D567003365AE00B3D5650082803318AE
:10F37000180133D7F50013560801B356C702131E00
:10F380000801B357F500135E0E01B3951501DD8D2D
:10F3900093DE0501331315013377C702B307DE028D
:10F3A00093160701B3E6D60163F8F600C29663E54B
:10F3B000060163F3F600C2969D8E33D7C60293977B
:10F3C0000501C183B3F6C6023307EE029395060129
:10F3D000DD8D63F8E500C29563E5050163F3E500A3
:10F3E000C295998D6DB3E374F5F63386C740B3B714
:10F3F000C700B6979D8DB28799BF13D30601C14848
:10F4000001B593560801C147A9BB93560601C147F0
:10F410007DB136838148EDB3AE87E1BDC68E55B56B
:10F42000429779B33708100001117D183377B8007F
:10F4300026CA3378D80093D4450113D34601131E4E
:10F4400037004EC61357D5010E089357D60193F4D3
:10F45000F47F1373F37F06CE22CC4AC893D9F5010B
:10F4600093DEF6013367C701131F350033E8070148
:10F47000931F3600338E64406382D9196358C013DA
:10F480006306031CB70680009307F07F3368D8003B
:10F490006383F4389307800363C4C735FD4763C1B2
:10F4A000C749130500023305C541B3D7CF01B316D1
:10F4B000A8003399AF00DD8E33392001B357C8015E
:10F4C00033E926011D8F33092F41B3372F0133064E
:10F4D000F7409317860063D60724370780007D170F
:10F4E0003374E600630E042C228597200000E78029
:10F4F0000033130785FF93070002998FB357F90074
:10F500003316E400D18F3319E9006341972A33059C
:10F510009740130615007D47634FC7381307000255
:10F52000118FB356C9003319E9003397E700558F9F
:10F53000333920013369270133D6C70081449377DB
:10F54000790081CF1377F90091476308F70013071B
:10F550004900333927014A963A899317860063D6C2
:10F56000071C138514009307F07FCE856304F520F4
:10F57000B70780FFFD17F18F9398D7011359390012
:10F58000A607B3E82801B1831375F57F9396C700EA
:10F590005205F2406244B182FE05C98ECD8ED2443E
:10F5A0004249B2494685B68505618280631E0E0ACE
:10F5B000138314001373E37F63190322B367E70116
:10F5C000B368F801639D041A63890740638808449F
:10F5D0003309FF41B307074133362F013386C74054
:10F5E0009317860063D8074C3389EF41B307E8408F
:10F5F00033B62F013386C740F68991B76350C00FE9
:10F600006300030CB70680009307F07F3368D800CF
:10F61000638CF43A9307800363CBC713FD4763D130
:10F62000C73713090EFE93070002B3562801630A79
:10F63000FE00130900043309C94133192801B3EF4F
:10F640002F013339F0013369D90031A2B367F801D2
:10F65000638C071C9307FEFF638E07389306F07FC9
:10F66000630BDE1A3E8E3DB5B305934063930422CF
:10F67000B367E701638907329387F5FF6383074424
:10F680009306F07F638ED520BE859307800363CEFB
:10F69000B72AFD4763C1B73E930700028D8F331928
:10F6A000F700B356BF00B317FF003369D900B33773
:10F6B000F0003357B7003369F9003308E84051AC24
:10F6C000B367F801638207349307FEFF638C07205A
:10F6D0009306F07F630ADE2E3E8E2DBF63100E165A
:10F6E0009386140093F7E67F63930734B367E701CB
:10F6F0006397042C6382073EB367F8016380073287
:10F700003309FF01B3070701333FE9013386E701FE
:10F710009317860063D70700B70780FFFD177D8E1C
:10F72000854493777900E39F07E09317D6019358B8
:10F730003900B3E8F800935736001307F07F638D64
:10F74000E404B207B18313F5F47FCE8581B5336944
:10F75000F801333920017A99B337E9013386E7009C
:10F7600093178600E3DF07FA85049307F07F639819
:10F77000F418CE851305F07F8147814801BDD1EB98
:10F780006386083A931636009317D8018D82B3E842
:10F79000D700F68993573800B3E7F800F9DB8145C5
:10F7A0001305F07FB70708008148CDB3370680FF07
:10F7B0007D167D8E93777900998CE39507D8B5B740
:10F7C0004A8597200000E780800513078501FD47E3
:10F7D000E3D3E7D2130685FFB317C900014935B358
:10F7E0003369F80133392001F9B93309FF41330690
:10F7F000074133342F01330486409317840063CDCF
:10F800000724B3688900E39F08CC8147814981447C
:10F810000DBFE39608F80E059317D7010D81B3E8E5
:10F82000A700935737008DBF0E059317D7010D81A1
:10F83000B3E8A700F2849357370001B7330593402C
:10F8400063820412B70680009307F07F558F630D23
:10F85000F32E9307800363CBA720FD4763C3A72A3A
:10F8600093070002898F3319F700B356AF00B3171F
:10F87000FF003369D900B337F0003357A70033696D
:10F88000F9003A987E99B337F901338607019A84D3
:10F89000C1BDB70680009307F07F558FE317F3DEF5
:10F8A000931736008D839318D801B3E81701F689B2
:10F8B00093573800D5B5130715FE9306000233D7CA
:10F8C000E700630AD600930600043386C6403396E9
:10F8D000C7003369C900333920013369E9000146A3
:10F8E000814481B53309FF01B30707013336E901CC
:10F8F0003E96931786008544E3D507E28944B7070F
:10F9000080FFFD17F18F1357190013791900336920
:10F9100027019398F70133E9280113D6170005B1A1
:10F9200013090EFE93070002B3562801630AFE0076
:10F93000130900043309C94133192801B3EF2F011A
:10F940003339F0013369D900BDBE3369E70133397A
:10F95000200133892F41B3B72F013306F8409A8431
:10F96000F68985BEB367E701638207189307F5FF41
:10F970006384071C9306F07F6304D5123E85D1BDD6
:10F9800093070002B387C741B316F8003399FF000D
:10F9900033D6CF01D18E33392001B357C80133E9B3
:10F9A00026013E974DBB931736008D839318D801DF
:10F9B000B3E81701AE8493573800F689BDBBEDC399
:10F9C0003369F801E31D09DC0E059317D7010D819A
:10F9D000B368F50093573700C1B36381080E9316DF
:10F9E00036009317D8018D82B3E8D700F689935774
:10F9F000380081BB3309FF41B3070741333F2F0173
:10FA00003386E7418544F1B40E059317D7010D8184
:10FA1000B368F500F2849357370005B30E059317CA
:10FA2000D7010D81B3E8A7009357370019BB93079F
:10FA3000F07FE380F6D43309FF013336E901B307E1
:10FA40000701B2979398F7011359190033E9280178
:10FA500013D61700B684F1B13389EF413307E8407C
:10FA600033B62F013304C740F689ADBC3369E701D3
:10FA70003339200101BD938705FE93060002B35779
:10FA8000F700638AD50093060004B385B6403317A8
:10FA9000B700336FEF003339E0013369F90055BD2A
:10FAA000931736008D839318D801B3E81701935745
:10FAB0003800DDB1B368C900E39508C681478149C4
:10FAC00049B13389EF41B307E84033B62F0133869C
:10FAD000C740F6898544F5BA931636009317D801C6
:10FAE0008D82B3E8D70093573800A1B9931636003A
:10FAF0009317D8018D82B3E8D700AA8493573800B2
:10FB00002DB9930705FE93060002B357F700630A69
:10FB1000D500930600043385A6403317A700336F42
:10FB2000EF003339E0013369F900A9BB81451305C2
:10FB3000F07FB707080099BC3309FF01B30707013D
:10FB40003336F9013E9675B3931636009317D801F4
:10FB50008D82B3E8D700935738003DB9397193D7F8
:10FB6000450122DC4AD856D22A891394C50006DE04
:10FB700026DA4ED652D45AD05ECE13F5F77F3180B6
:10FB800093DAF501630D05109307F07F630FF51409
:10FB9000135AD9010E0433648A00370A8000336A8D
:10FBA0004401131B3900930415C00144814B13D841
:10FBB00046011399C6001378F87FB2881359C9001B
:10FBC00093D9F601630E08089307F07F6300F804E9
:10FBD0001357D6010E0933692701130818C0B70758
:10FBE00080003367F90093183600B38404418145DF
:10FBF000BD4733C83A0163E8871A97270000938707
:10FC000067F70A043E9410403E9602863367C900A7
:10FC10009384148063160710136424008148894577
:10FC2000C1BF1306F07F81470147B207F25062540B
:10FC30005206B1837E08D18FB3E70701D2544259EF
:10FC4000B259225A925A025BF24B3A85BE85216123
:10FC5000828001481306F07FB70708000147F1B71B
:10FC60003367C9004DCB630E09304A8532C49720F3
:10FC70000000E780C0BA2246130755FFF5479306F8
:10FC800085FF998F3319D900B357F60033E7270161
:10FC9000B318D60026959304353F814591BF336A4A
:10FCA000240163050A0636C632C46308042A228585
:10FCB00097200000E780A0B62246B246AA84130728
:10FCC00055FF754A138B84FF330AEA4033146401ED
:10FCD000335A4901336A8A00331B69011305D0C0C6
:10FCE000B30495400144814BD9B5336A24016318AC
:10FCF0000A002144014B9304F07F894B4DBD228AB9
:10FD00004A8B31449304F07F8D4B55B51144014B20
:10FD10008144854B69BD1364140081488545C9BD84
:10FD2000136434004A878D45E1B5630E052E85477F
:10FD3000898F9306800363D1F634014681470147DA
:10FD4000EDB5CE8689476381F53C8D47E383F5F0B9
:10FD500085473688E383F5FE1385F43FE357A0FC1F
:10FD600093F77800639A072893D6380093177700A3
:10FD700063D80700B70700FFFD177D8F1385044088
:10FD80009307E07FE3CFA7E81316D70193179700F7
:10FD9000B1833367D6001376F57F41BDD68652878F
:10FDA000DA88DE8545B7636547236301EA22DA8690
:10FDB000FD145284014B9317870013D388013363DA
:10FDC000F300935E0301B357D403131F0301135FC2
:10FDD0000F0193D50601139E88003374D4033307B3
:10FDE000FF024204C18D63FBE5009A951386F7FF7D
:10FDF00063E2652863F0E528F9179A95998D33D762
:10FE0000D503C206C182B3F5D5033306EF02C2059E
:10FE1000D58D63FBC5009A959306F7FF63EA6524C9
:10FE200063F8C52479179A95C20741645D8F9307DB
:10FE3000F4FF3375F70093580701935F0E01B37712
:10FE4000FE00B302F502B386C540B383F80293D532
:10FE500002013386AF021E962E963385F803637334
:10FE600076002295C168FD18935506013376160178
:10FE70004206B3F81201AA95469663EAB612638663
:10FE8000B6123306CB408D8E333BCB00338B6641AD
:10FE90001385F43F63006319B358DB0393550601E0
:10FEA000337BDB03B3061F03420B33EB6501637B3C
:10FEB000DB001A9B9385F8FF63616B22637FDB2075
:10FEC000F9181A9B330BDB40B356DB034206418221
:10FED000337BDB03330FDF02420B33666601637B48
:10FEE000E6011A969385F6FF636B661E6379E61F3B
:10FEF000F9161A96C208B3E8D8009395080193D270
:10FF00000801C181B38EF5023306E641B385BF0215
:10FF100093D60E01B387F202BE95AE96B38F5F0201
:10FF200063F4F600C167BE9FC165FD1593D7060156
:10FF3000ED8EC206B3FEBE00BE9FF6966373F60B4F
:10FF40001A969387F8FF636D661A636CF61963035C
:10FF5000F61DBE8893E8180011B54A859720000069
:10FF6000E780E08B13075501F14593040502224613
:10FF7000B246E3D8E5D4130485FF331A8900014B58
:10FF8000B1BB328532C497200000E7804089130757
:10FF90005501F146AA87224613050502E3D0E6CEB5
:10FFA000E1173317F6008148F5B1E37CCBEC729B87
:10FFB0003335CB011A95AA961305F7FF6378D30260
:10FFC00063E6B6106382D5102A8765BDE3611BDF47
:10FFD00093551B009316FA0113541A00CD8E7E0B15
:10FFE000D9BBE319F6F7E38B06D699BFE31ED3FC22
:10FFF000E378CBFD2A8771B593F7F8009146E38546
:020000021000EC
:10000000D7D693B7C8FF9386480093C717008D8251
:100010003E97A9BB81468547E34CA0FEFD58E318F7
:1000200005D0930410C085471385E441B316A7009B
:1000300033D6F8003395A800D18E3335A000C98E91
:1000400013F676003357F70001CE93F7F60011460A
:100050006388C70093874600B3B6D7003697BE863D
:100060009317870063D8070405468147014775BE8B
:1000700036875DBBB28759B3FD46E3D7F6FA05561E
:10008000098E930600023356C7006388D700938712
:10009000E443B317F700B3E8F800B3361001D18E8C
:1000A00013F67600814701CE93F7F600114601471B
:1000B000E392C7FA931797001316D701B18313D7AA
:1000C0003600518F014695B6E370CBF0729B333505
:1000D000CB011A957917AA966DB3AE88E5B3AE86B3
:1000E00011BD93171E0033BEC70172931A96F918FB
:1000F0003E8EE311F6E7E303DEC693E81800B9B9D4
:10010000BE88E30AF6FFB9B536881306F07F81474B
:10011000014721BEE367DEFCBE88E310DEFE3DB989
:1001200013D74501B7071000FD1713D84601137701
:10013000F77F9308F07F33FEB700AA8EF58FFD811D
:10014000328F1378F87FFD82630B17010543630636
:10015000180163140701630DFE001A858280B368DD
:10016000AE000543E39B08FEE319E8FED18FF5F7E7
:100170000543E394EEFF0143E381D5FE054371FFA0
:100180003365AE003333A000C9BF13D74501B707AD
:100190001000FD1713D846011377F77F9308F07FFF
:1001A00033FEB700AA8EF58FFD81328F1378F87F6A
:1001B000FD82630E1703630D180129E3B368AE00D7
:1001C000631F08005D8E01EE0143638C080421A8C3
:1001D000B3E8C7000943639608046DD305A06384A0
:1001E00008046385D50205438DCD7D531DA8B368F2
:1001F000AE00094363970802630AE802631408002B
:100200005D8E75D2E391D5FEE34FE8FC63490701AB
:10021000E3EBC7FD630FFE0001436374FE00F1D5FD
:1002200005431A858280EDFE7D53E5BF5D8E79DA48
:10023000CDBFE36ADFFB0143E3F5EEFFF5F175B7F0
:1002400039714AD813D945014ED652D456D2939912
:10025000C50006DE22DC26DA5AD05ECE1379F97F9D
:100260002A8A93D9C90093DAF501630D090E930721
:10027000F07F630AF9181354D5018E09B36934016C
:100280003704800033E4890093143500130919C042
:100290008149814B13D74601139AC6001377F77F24
:1002A000B285135ACA0013DBF601630D07109307DA
:1002B000F07F6303F7049357D6010E0A33EA470130
:1002C000130717C0B7078000B367FA00931536000D
:1002D0003A99814833C76A01BD463A851308190027
:1002E00063EC3617172600001306C68C8A09B299EC
:1002F00083A60900B2968286B367CA001309F97F04
:10030000639D071293E9290081458948E1B70147B8
:100310009307F07F3704080081443204D20731800C
:100320007E075D8C598CA285F25062542685425915
:10033000D254B259225A925A025BF24B2161828006
:100340005A853E84AE84C68B89476381FB108D47F6
:10035000E38FFBFA85472A876396FB3A814701447E
:10036000814465BF33E4A90061C436C632C46382E8
:10037000092C4E8597100000E780604A2246B2465D
:10038000AA87130755FF7544938487FF198CB39987
:10039000990033548A0033643401B3149A0013D79C
:1003A00046011309D0C0139AC6001377F77F3309AB
:1003B000F9408149814BB285135ACA0013DBF6011B
:1003C000E31707EEB367CA00A1CB63010A24528585
:1003D00032C497100000E780804422462A879306A3
:1003E00055FFF547930587FF958F331ABA00B3572A
:1003F000F600B3E74701B315B6003309E940130926
:10040000D9C08148C1BD33E4A90001ECA1498144B0
:100410001309F07F894BBDBD93E9190081458548DB
:1004200055BD4E84AA84B1491309F07F8D4B9DB50B
:10043000914981440149854BB1BD93E93900D28787
:100440008D4849BD89475685E393FBF02A8793077A
:10045000F07F01448144D1B5C16E1386FEFF93D66F
:10046000040113DE0501F18CF18D3386950233838F
:10047000B6029358060133059E021A95AA98B382D4
:10048000C60363F36800F692C16F1383FFFF33F571
:10049000670093D30701B3F76800C20733736600A0
:1004A0003E933306950293D80801B387A602135FE3
:1004B0000601B3849302BE94FA94B38E760263F37A
:1004C000F400FE9E416A9307FAFF935F0401B3763E
:1004D000F400B3F9F4007D8EC1803384D502C209E3
:1004E000338FD401B299CE98B307DE02935E040134
:1004F000B385BF02AE97BE9E330EFE0363F3BE000C
:10050000529EC1679385F7FF33F6BE006D8C42069D
:10051000229693DE0E01B305D502769E3385AF0297
:1005200013D40501B386D302AA96A296B38FF30320
:1005300063F3A600BE9F41657D15B3F7A600C20711
:100540006D8DAA97B3855800B3B93501FA97B29566
:100550003384370133B6C500B30EC4013385CE00F2
:1005600033343401B3B7E701C18F33BECE0113D4A6
:1005700006013336C5003E943366CE009394950051
:1005800032947E94B3E46400260493567501B33428
:100590009000DD8193179500CD8C558CDD8C9317E1
:1005A000740063DB070093D7140085889316F40169
:1005B000DD8CD58C058042899307F93F635DF00897
:1005C00093F6740081CE93F6F40011466388C6005A
:1005D00093864400B3B496002694B68493167400B0
:1005E00063D80600B70700FFFD177D8C930709400D
:1005F0009306E07F63C3F61093D634009314D401BE
:100600002604D58C318093F7F77F01BB328532C445
:1006100097100000E780A02093065501F1471307CB
:1006200005022246E3DFD7DA6115B317A60081453C
:10063000E9B397100000E780801E13075501F145CC
:10064000930705022246B246E3DFE5D26115331473
:10065000AA008144A9B385469D8EB1E71309E941FB
:10066000B3972401B3D4D40033192401B337F00075
:10067000B3649900DD8C93F77400B356D40081CF36
:1006800093F7F40011466388C70093874400B3B41E
:100690009700A696BE849397860063D80704854783
:1006A000014481449DB913068003E349D6CA7D46BF
:1006B000E356D6FA0556B307F640930500023356C3
:1006C000F4006387B6001309E943B3172401DD8CF6
:1006D000B3349000D18C93F67400014499CA93F717
:1006E000F40011468146E392C7FA139496003180D4
:1006F000F6068D80D58C81470DB19307F07F0144BC
:10070000814421B942894DBD370710007D17011181
:100710003373B70093D84601758F935ED60122CC10
:1007200026CA0E0393D445019357D5010E0706CE72
:100730004AC84EC693F8F87F130EF07F33E7EE00F9
:1007400093F4F47F13D4F50133E36700131F3500EE
:10075000FD82931E36006382C81993C61600B385C6
:1007600014416307D4126353B018638D081AB70796
:1007700080005D8F6385C4599307800363C8B734D5
:10078000FD4763C9B748930700028D8FB3D9BE00F8
:100790003318F700B39EFE00336838013357B700B3
:1007A000B339D001336838013303E340B3090F4153
:1007B000B3373F013306F3409317860063D5072410
:1007C000370980007D19337926016301092E4A8596
:1007D00097100000E780A004130785FF930700022D
:1007E000998FB3D7F9003316E900D18FB399E90097
:1007F0006344972A058F13061700FD4663C7C63A60
:1008000013070002118FB3D6C9003398E90033975C
:10081000E700558F33380001B369070133D6C700AD
:10082000814493F7790081CF93F6F900914763886B
:10083000F6009386490033B836014296B68993177D
:10084000860063D6071C138714009307F07F058882
:100850006306F720B70780FFFD17F18F1398D701C4
:1008600093D93900A60733683801B1831377F77F2E
:100870009396C7005207B1827E04D98EC18EF24092
:100880006244D2444249B2494285B68505618280BC
:100890006356B00A638A0812B70780005D8F6389C8
:1008A000C42D9307800363C7B718FD4763D4B73CD3
:1008B000138805FE93070002B3590701638AF50008
:1008C00093070004B385B7403317B700B3EEEE00CB
:1008D0003338D0013368380195A2B367D7019385C7
:1008E000148099E393C61600630AD404D1E1938778
:1008F000140093F7E77F639B071EB367E301336838
:10090000D701639204166384073C631808421318E6
:1009100035009316D3011358380033E80601935776
:10092000330019A2B367D7016387071A9387F5FFCE
:10093000638D073A638EC523BE853DBD639B051C51
:100940009386140093F7E67FC1EFB367E3016392E8
:100950000436638F0744B367D701639607460E05D5
:100960001318D3010D813368A800935733006DA885
:10097000B385984063990420B367E301638F073020
:100980009387F5FF638B07401305F07F6385A520F0
:10099000BE859307800363C4B72AFD4763CAB73C8B
:1009A000930700028D8F3318F3003356BF00B3173F
:1009B000FF003368C800B339F0003353B300336825
:1009C00038013307674041A4B367D7016385071037
:1009D0009387F5FF638107206382C52FBE85D1B55C
:1009E0009307F07F638BF606FA9E33B6EE01B307EA
:1009F000E300B2971398F70193DE1E00B369D801A4
:100A000013D61700B68493F77900E39F07E0931796
:100A1000D60113D839003368F800A68593573600FD
:100A20001307F07F6380E506B207B18313F7F57F04
:100A300005883DBD3367D7013338E000B309E801CD
:100A4000B3B7E9013386670093178600E3DD07FA41
:100A500085049307F07F639EF41805881307F07FE1
:100A60008147014831B5639307106303083C1318AD
:100A700036009317D701135838003368F8003684CE
:100A800093573700B367F800E9DB01441307F07FA1
:100A9000B70708000148E9BB370680FF7D167D8E49
:100AA00093F77900998CE39107D895B74E85971005
:100AB0000000E780C0D613078501FD47E3D0E7D2E9
:100AC000130685FFB397C90081491DB33368D70169
:100AD00033380001E1B9131835009317D3011358C7
:100AE00038003368F800935733001DBFB309DF4166
:100AF0003309E34033363F013309C9409317890076
:100B000063CA072033E82901E31108CC8147014477
:100B100021BFB385984063810414B7068000930712
:100B2000F07F3363D3006381F8209307800363CCA5
:100B3000B722FD4763C9B72C930700028D8F331886
:100B4000F300B356BF00B317FF003368D800B339C2
:100B5000F0003353B300336838011A97B309D80152
:100B6000B3B7D9013386E700C684F9BDE31F08F0A7
:100B7000131835009317D301135838003368F80061
:100B80009357330001B7370580009307F07F336335
:100B9000A300E390F8E00E061318D7010D82336826
:100BA000C800935737003684F1BD0517930600023D
:100BB00033D7E700630AD600930600043386C640A5
:100BC0003396C700B3E9C90033383001B369E80090
:100BD000014681440DBDB309DF01B307E30033BF14
:100BE000E9013386E701931786008544E3DD07E0DA
:100BF0008944B70780FFFD17F18F13D7190013F849
:100C00001900336807019399F701B3E9090113D675
:100C1000170001B9138805FE93070002B3590701B5
:100C2000638AF50093070004B385B7403317B70014
:100C3000B3EEEE003338D0013368380185BE33633C
:100C4000E30133386000B3890E41B3B73E01330688
:100C5000F740C68436848DB6B367E301638707180F
:100C60009387F5FF638C071C9306F07F638ED50A8C
:100C7000BE8565BD930700028D8FB3D9BE003318C2
:100C8000F700B39EFE00336838013357B700B3391D
:100C9000D001336838013A9355B3131836009317CF
:100CA000D7011358380033E80701368493573700CB
:100CB00085BBBDCB3367D701E31907DC0E051318DD
:100CC000D3010D813368A8009357330065BBE30F50
:100CD00008E2131836009317D70113583800336809
:100CE000F80036849357370081B3B309DF41B30767
:100CF000E340333F3F013386E741854475BC131819
:100D000035009316D3011358380033E80601935782
:100D100033008DBBB389EE413306674033B93E01E2
:100D200033092641368455B40E061318D7010D82B7
:100D30003368C80093573700B1B3B309DF41B30735
:100D4000E34033363F013386C7409317860063D7AD
:100D5000070AB389EE41B3076740B3BE3E0133864D
:100D6000D74136847DBC3363E30133386000FDB383
:100D7000138805FE93070002B3590301638AF50047
:100D800093070004B385B7403313B300336F6F008C
:100D90003338E001336838017DB5B389EE41B307DC
:100DA0006740B3BE3E013386D7413684854429B4BB
:100DB000131836009317D701135838003368F8001A
:100DC0009357370095B1B309DF01B307E30033BF91
:100DD000E9013386E70193178600E3D607C2B70718
:100DE00080FFFD177D8E854439B90E061318D70193
:100DF0000D823368C800935737001DB133E8C9002E
:100E0000E30608D009B1138805FE93070002B35921
:100E10000301638AF50093070004B385B7403313D9
:100E2000B300336F6F003338E001336838013DB3EE
:100E300001441307F07FB70708001DBCB309DF01A9
:100E4000B307E300B3BED9013386D70169BB93D79B
:100E50004501B70610001387F6FF93F7F77F1306D7
:100E6000E03F6D8FFD81635CF6001306D041635A4D
:100E7000F600370500801345F5FF2E958280014569
:100E80008280130630431D8E7D48558F635DC800F8
:100E900093063041B387F640B357F7003305F0406F
:100EA000E5F13E8582809387D7BEB317F7003355AF
:100EB000C500C98FE5B7411106C622C426C21DCDA3
:100EC0009357F541B3C4A7009D8C2A8426859710BB
:100ED0000000E780C0949306E041898EA9477D8099
:100EE00093F6F67F63CDA7022D47098FB3D7E400B1
:100EF0005505B207B394A400B18329A001448146EB
:100F000081478144B207D206B1837E04D58FC18F59
:100F1000B24022442685BE85924441018280551507
:100F2000B397A400B207B1838144E9BF93D74501C9
:100F3000B70610001387F6FF93F7F77F1306E03F1D
:100F40006D8FFD816353F60081C501458145828027
:100F50001306E0436355F6007D55FD558280130668
:100F60002043B365D700635CF6001387D7BA938735
:100F7000D7BC63400704B315E500014582809306A2
:100F800030439D8E7D47635BD70013073041B30725
:100F9000F740B3D7F50081453E8582801387D7BEE1
:100FA0003397E5003355D500B367A700B3D5D50017
:100FB000E5B7FD46135715009D8E3357D700B395FF
:100FC000F500D98D3315F5008280B367B500B1C344
:100FD000411122C426C24AC006C6AA842E892E8484
:100FE000B9C12E8597100000E78060839306E04327
:100FF000898E9307304363C7D7069317C9002D46E0
:10100000268793F6F67FB183635FA60C130655FF20
:1010100025A881478146B207D206B1830147D58F03
:101020003A85BE85828097000000E780407F2A864F
:101030009306E04313050502898E1307A00293F679
:10104000F67F634CA70C55061307B002098FB31740
:10105000C90033D7E4005D8F9317C700B18333977E
:10106000C40051A09307604363D9D70213078501D9
:10107000930785036347070C3396E4000147214437
:10108000098C518F930704FE3337E00063CF0708C4
:10109000B354F9008147D98C3E84A14763C1A706A8
:1010A000370780FF7D1713F67400B377E40005C699
:1010B00013F6F40091456300B60213864400B3347E
:1010C0009600A6979395870063D905089306F04389
:1010D000F98F898EB2841397D7018D80A607458F2B
:1010E000B18393F6F67FB2402244B207D206B183B1
:1010F000D58F924402493A85BE854101828013070B
:101100008002130685FF098F33D7E400B317C400AC
:101110003364F700B394C40061B7930756FFB397E5
:10112000F400B207B18301477DBF7D4693171900D4
:10113000018EB397C700B3D48400DD8CB357890008
:1011400099BF7D461D8E13D714003357C700331641
:10115000F900598E3397F4001DB7B284ADBF935692
:101160007501B7078000FD1713D6750193F6F60FCA
:101170001308F00FB3F8A7001357F501ED8F13769E
:10118000F60FFD8163810603630C06018DE211E217
:10119000B1C3638E08026305B70405451DE782806D
:1011A000F5D779558280E39E08FE6309D60211E2E5
:1011B000EDD7E314B7FEE342D6FE63C7C600E3EE05
:1011C00017FD0145E3FDF8FC01E77D558280F5DD63
:1011D000054582800145E39208FC8280F9DBD1B7A6
:1011E0008146E1BF93567501B7078000FD1713D6FE
:1011F000750193F6F60F1308F00FB3F8A700135715
:10120000F501ED8F1376F60FFD8163870603630901
:10121000060185EA11EA89EB0145639B080082809B
:101220000945F5FFE5DA31A8638C08026300B704CD
:10123000054575D77D55828009456398080263048A
:10124000D60211E2F5D7E315B7FEE343D6FE63C736
:10125000C600E3EF17FD0145E3F3F8FC19E3D9BF3E
:10126000F1D905458280E5D3828082808146C5B769
:101270003707800041117D179356750113D875010A
:10128000B377A70093F6F60F935EF5013376B700B8
:1012900026C24AC01378F80F06C622C41303F00F03
:1012A0003E8E3689F684139F3700FD811315360074
:1012B000B38806416305681093C51500638FBE109F
:1012C0006357100D631308106307051EFD18B3075D
:1012D000AF40638608029307F00F638BF616ED4765
:1012E00063CA172913070002330717413317E500B4
:1012F000B35715013337E000D98FB307FF40139779
:1013000057006354071A370400047D147D8C22852E
:1013100097000000E780A0506D15B317A400634E3E
:10132000251B330525411304150013070002018F07
:101330003397E7003337E000B3D78700D98F0149EF
:1013400013F7770019C713F7F70091466303D70027
:10135000910713975700635E07149306190013074C
:10136000F00F93FE14006386E6169A07A58393F6A2
:10137000F60FA607B240224413D59700DE069397D6
:10138000FE01558D924402495D8D41018280639238
:10139000080A138716001377E70F631B071463947B
:1013A000062263020F2071D5B307AF401397570091
:1013B00063550722B307E5410149AE8451B7E30DF8
:1013C00005EE638ABE0AE35410FD9307F00F6381B4
:1013D000F608B70700045D8D19B7635E1009630155
:1013E00008089307F00F6385F606B70700045D8DC4
:1013F000ED4763C0171F1307000233071741331768
:10140000E500B35715013337E000D98FFA971397EA
:101410005700635C070805091307F00F630BE90A1F
:10142000B706007E13D71700FD16858B758FD98FF1
:1014300001BF3307D84063950610630D0F147D1765
:101440006303071A9307F00F6314F810AE84328E0B
:10145000630F0E06814E9306F00FB707400011BFD1
:1014600039C9FD18B307AF00E38308FA9307F00FFB
:10147000E390F6F8F1BF6399080813891600137713
:10148000E90F63160712639B061063030F16E3024E
:1014900005EEB307AF0013975700014963570700E4
:1014A000370700FC7D17F98F054913F77700E31C18
:1014B00007E813DE37009307F00FE30BF9F89317F3
:1014C0009E00A5839376F90F93FE14005DB593FEFD
:1014D00014009306F00F814769BD370700FC7D17A4
:1014E000F98F13F777003309A940E31E07E4D1B75A
:1014F0003304AF409317540063C3070CE31904E0AF
:10150000814E81468147B5B53307D840B5C69307AC
:10151000F00FE30EF8F2B7070004336FFF00ED475A
:1015200063CDE70C93070002998FB317FF00335781
:10153000EF00B337F0005D8FB307A7004289C1BD4C
:101540009307F00FE304F8F0B7070004336FFF00D0
:10155000ED4763C2E70893070002998FB317FF00B6
:101560003357EF00B337F000D98FB307F540428906
:10157000AE8471B3854751B3630E0F067D17B30771
:10158000AF004289E30507E89307F00FE319F8F885
:10159000328E7DBD328E4289AE8431BFE3090FEABF
:1015A000E30805EA45BD0DCDAE8EB287D9B39307EA
:1015B000F00FE300F9F2B307AF008583FDB5330404
:1015C000E541AE84A9B3E31D0FFCE30505E8AE8455
:1015D000BDBD854725BD854749BF0149E39707EC58
:1015E000814E814779B3B307E5414289AE8401BB9F
:1015F000B28741B3328E42897DBD054735BF13574F
:1016000075011377F70F41119307170022C426C203
:101610001314950006C693F7E70F25809354F50140
:1016200085C793573400130707387604B20752076B
:10163000B1831395F401D98FC98FB240228522441A
:101640009244BE85410182801DEB31C822859700FE
:101650000000E780C01CA94763C6A7042D47098F77
:10166000930755013357E4003314F4009317C70070
:1016700013079038098FB1831377F77F45BF01CCEB
:1016800013573400B7070800D98FB2077604B18327
:101690001307F07F61BF1307F07F814741BF014708
:1016A000814769B7130755FF3317E40001447DBF35
:1016B00093D645019397C50093F6F67FB1831386C1
:1016C00016008E071357D5011376E67FFD815D8FD7
:1016D0009318350035CE138806C89307E00F63DDF5
:1016E00007018147139597009306F00FDE062581C9
:1016F000FE05558D4D8D82806355000B9317650057
:101700000E07B337F000D98F93D8D801B3E717018C
:1017100013F777006301071013F7F700914663038F
:10172000D7009107370700047D8F75C7130718008E
:101730001306F00F9376F70FE305C7FA9A07A58310
:1017400013959700DE062581FE05558D4D8D82800F
:10175000B367170199EE85CF95479A07A58313952F
:10176000970093F6F60FDE062581FE05558D4D8D0B
:101770008280A5DBB7074000139597009306F00F12
:10178000DE0681452581FE05558D4D8D8280814780
:10179000139597008146DE062581FE05558D4D8DFA
:1017A0008280A5576348F804F94737068000B3875D
:1017B00007417D45598E6351F50479573307074139
:1017C000130500023357E6006388A700938626CAF4
:1017D000B316D600B3E8D800B3371001D98F13F78A
:1017E0007700014815FB139757008546E34807F437
:1017F0008146A5B781468DB7938626C83397D80012
:101800003337E000B316D600B3D8F800B367D7007B
:10181000B3E7F800E9B7C28689B7C167637EF5020E
:101820009307F00F1307000263ECA700970700006F
:101830009387473CAA9703C507003305A7408280DA
:101840002181970700009387E73AAA9703C507000D
:1018500061473305A7408280B7070001636EF5003A
:101860006181970700009387E738AA9703C50700AF
:1018700021473305A7408280418197070000938765
:101880006737AA9703C5070041473305A740828001
:10189000AA87850703C7F7FF6DFF3385A7407D152E
:1018A0008280000090BDFFFFA2BDFFFFECBDFFFFE7
:1018B00002BEFFFFAABDFFFFB2BDFFFF0ABEFFFFD2
:1018C0000ABEFFFFBABDFFFFC4BDFFFF0ABEFFFF98
:1018D0000ABEFFFFCEBDFFFFD6BDFFFF0ABEFFFF62
:1018E0000ABEFFFFDEBDFFFFF4BDFFFF00000000EA
:1018F000000000000000A03F000000000000394090
:10190000000000000000403FCDCCCCCCCCCCF03F60
:10191000000000000000503F000000000000F03F09
:10192000000000000000603F0000000000000840D0
:101930000000000000FEAF406666666666660A400C
:101940000000803F2D2D2D2D2D2D2D2D2D2D2D2DBC
:101950002D2D2D2D2D2D2D2D2D2D2D2D0D0A0A004A
:101960006D63755F74656D705F4144203D20256433
:101970000A000000D0BEC6ACC4DAB2BFCEC2B6C840
:10198000CEAA3A25362E326C66A1E60D0A0000007A
:10199000B4A5C3FED0BEC6ACA3A1A3A1A3A1A3A11D
:1019A000A3A10A00D6B8CABEB5C6D1D5C9ABCEAAC6
:1019B000A1BEBBC6C9ABA1BF00000000D6B8CABE5D
:1019C000B5C6D1D5C9ABCEAAA1BEB0B5C9ABA1BF72
:1019D00000000000204C494748545F5245443A7289
:1019E0006576657273652D2D0A000000D6B8CABEF3
:1019F000B5C6D1D5C9ABCEAAA1BEBAECC9ABA1BF01
:101A000000000000D6B8CABEB5C6D1D5C9ABCEAAB3
:101A1000A1BED7CFC9ABA1BF00000000D6B8CABED7
:101A2000B5C6D1D5C9ABCEAAA1BEB0D7C9ABA1BFEF
:101A300000000000204C494748545F475245454E3E
:101A40003A726576657273652D2D0A00D6B8CABEE6
:101A5000B5C6D1D5C9ABCEAAA1BEC2CCC9ABA1BFB8
:101A600000000000D6B8CABEB5C6D1D5C9ABCEAA53
:101A7000A1BEC7E0C9ABA1BF00000000204C494790
:101A800048545F424C55453A726576657273652DD0
:101A90002D0A0000D6B8CABEB5C6D1D5C9ABCEAAEC
:101AA000A1BEC0B6C9ABA1BF000000002020A1BEEE
:101AB00055736572CCE1CABEA1BFA3BABDABBDF878
:101AC000C8EB55736572B5C46D61696EBAAFCAFD76
:101AD000D6B4D0D02E2E2E0D0A0A0000B2CFFFFFB2
:101AE000B0D1FFFFB0D1FFFFB0D1FFFFB0D1FFFFFA
:101AF000B0D1FFFFB0D1FFFFB0D1FFFFB0D1FFFFEA
:101B0000B0D1FFFFDED0FFFF20D1FFFF1CCEFFFFD3
:101B1000B0D1FFFFCACEFFFFB0D1FFFFB0D1FFFFB2
:101B20001CCEFFFFB0D1FFFFB0D1FFFFB0D1FFFF50
:101B3000B0D1FFFFA4D1FFFFA0D0FFFFEAD0FFFF8D
:101B4000B0D1FFFFB0D1FFFF36D1FFFFB0D1FFFF13
:101B5000F6D0FFFFB0D1FFFFB0D1FFFFB2CFFFFF44
:101B600000000000000024409A9999999999B93F82
:101B700036E2FFFFB2E0FFFFCAE1FFFFD2E1FFFF65
:101B8000CAE1FFFFE2E0FFFFCAE1FFFFD2E1FFFF92
:101B9000B2E0FFFFB2E0FFFFE2E0FFFFD2E1FFFFB4
:101BA0002CE2FFFF2CE2FFFF2CE2FFFFE2E0FFFF51
:101BB000A8E8FFFF92E7FFFF92E7FFFF90E7FFFF34
:101BC00098E7FFFF98E7FFFF5EE7FFFF90E7FFFF63
:101BD00098E7FFFF5EE7FFFF98E7FFFF90E7FFFF53
:101BE00094E8FFFF94E8FFFF94E8FFFF5EE7FFFF44
:101BF00000010202030303030404040404040404B4
:101C00000505050505050505050505050505050584
:101C10000606060606060606060606060606060664
:101C20000606060606060606060606060606060654
:101C30000707070707070707070707070707070734
:101C40000707070707070707070707070707070724
:101C50000707070707070707070707070707070714
:101C60000707070707070707070707070707070704
:101C700008080808080808080808080808080808E4
:101C800008080808080808080808080808080808D4
:101C900008080808080808080808080808080808C4
:101CA00008080808080808080808080808080808B4
:101CB00008080808080808080808080808080808A4
:101CC0000808080808080808080808080808080894
:101CD0000808080808080808080808080808080884
:101CE0000808080808080808080808080808080874
:101CF0001335450082800D47636AA702C167894694
:101D00009387B7BB6300D504630BE5040547B7367B
:101D100000406301E50203C756001377070209C7B5
:101D20002384B60005458280FD17F5F701458280C2
:101D3000FD17EDDF03C756401377070275DB2384D9
:101D4000B6408280B746004003C75680137707022B
:101D500001C72384B680F9B7FD17FDF7C1BFB746A9
:101D6000004003C756C01377070201C72384B6C0DB
:101D700055BFFD17FDF75DBF011126CA06CE22CC67
:101D80008D4463E6A40C2A842E852EC6970000009D
:101D9000E78040B0420589474181B2456315F402AE
:101DA000B74700402147B74600403DCD03C6B78046
:101DB000E30DC7FE850503C6F5FF7D1542052384A7
:101DC000C6804181DDB763159402B74700402147C3
:101DD000B746004031C903C6B7C0E30DC7FE85054D
:101DE00003C6F5FF7D1542052384C6C04181DDB7DA
:101DF00085476315F402B73700402147B7360040E6
:101E000005C503C6B740E30DC7FE850503C6F5FF4C
:101E10007D1542052384C6404181DDB7B7370040B8
:101E20002147B736004019E50545F2406244D244E7
:101E30000561828003C6B700E307C7FE850503C6B8
:101E4000F5FF7D1542052384C6004181E9BF0145A8
:021E5000E9BFE8
:040000030000C00039
:00000001FF
