:040000006F20000E5F
:1000040000800020000000006F00503F6F20B01EF1
:1000140000000000000000000000000000000000DC
:1000240000000000000000000000000000000000CC
:100034006F00503D000000006F00103D0000000004
:100044006F00D03C6F00D03C6F00D03C6F00D03CC0
:100054006F00D03C6F00D03C6F00D03C000000002B
:100064006F00903C6F00903C6F00903C6F0040022A
:100074006F00903C6F00903C000000006F00503C0B
:100084006F00503C6F00503C6F00503C6F00503C80
:10009400717122D726D502CCA14273B00230054536
:1000A40097500000E780A02D09E9A14273A0023017
:1000B4003A54AA544D6173002030930571080545E4
:1000C40097500000E780801583477108F9DF975740
:1000D40000209387074283D70700C207C18395CFC7
:1000E400975700209387E74083D70700C207C1834F
:1000F400CDDF975700209387678683C7070093F760
:10010400F70F5D47E367F7288A0717A7000013076F
:1001140027B9BA979C43BA9782879755002093854D
:10012400E58397200000E780A038975700202392AA
:10013400A73C7DB705669305F0024945974000004A
:10014400E780E0FB975700209387A73A83D5070001
:10015400175500201305858097400000E7806076DE
:1001640091476305F50663FEA70099476300F50808
:100174009D47631FF51897300020E780407B6F0090
:10018400502185476316F518975700209387473702
:1001940017A700001307C7B60345070083451700D8
:1001A4000346270083463700034747002380A70000
:1001B400A380B7002381C700A381D7002382E7006F
:1001C40097300020E780A0766F00B01C9305E10112
:1001D400081097500000E780E0990C100355E101E6
:1001E40097200000E78000296F00B01A975700207D
:1001F40083C7A73095C705476381E7060947638826
:10020400E70A97570020A38A072E97A50000938535
:100214002507054597E00000E780A0FE02CCF1A881
:1002240097570020A38B072C97A5000093854505BD
:10023400054597E00000E780C0FC02CC21A0E2471E
:1002440085073ECC6247B7070200E36AF7FE9730A2
:100254000020E780C06D6F00D01302CC21A0E247DC
:1002640085073ECC6247B7570200E36AF7FE97A5BD
:1002740000009385A504054597E00000E78060F839
:1002840097A5000093850507054597E00000E780E2
:1002940040F7975700202385072697570020239A75
:1002A400072497E00000E780A0D56F00900E97A583
:1002B400000093856507054597E00000E78060F43A
:1002C400854717570020A30BF72217570020230157
:1002D400F722975700202383072897470020239A63
:1002E40007600565130585BB97300020E78000692A
:1002F4006F00300AE24785073ECC6247B707020029
:10030400E36AF7FE97300020E78060626F007008B0
:100314009305E101081097400000E78040E40C10C9
:100324000355E10197200000E780C0146F007006B8
:10033400154697A500009385A503174500201305CE
:10034400F56197000100E780A09639ED97570020EA
:100354002385071A17570020034747098547630277
:10036400F702975500209385650E1305300A9720F0
:100374000000E780201097570020239C071602CC2A
:1003840031A88947175700202309F71697470020FB
:1003940023840756F9B7E24785073ECC6247B7077F
:1003A4000200E36AF7FEF5A73D4697A50000938592
:1003B400A5FC174500201305755A97000100E78036
:1003C400208F2A846314051297A70000938747930C
:1003D40098473AC4D8473AC683C707012308F100AF
:1003E400A14617460020035606519745002083C5B1
:1003F400C54F280197300000E780C0EBA2870D4766
:100404006345F70293860701174700201307075532
:100414003697034707001377F70F1411BE9683C668
:1004240086FE6316D7068507D9BFA28705476348AA
:10043400F702938647011747002013072752369780
:10044400034707001377F70F938647001011B296FE
:1004540083C686FE631AD7088507C9BF0504854786
:1004640063C9870613076401974700209387074FE2
:10047400BA9783C7070093F7F70F130764001411A3
:100484003697034787FEE38BE7FC0D4711A005472A
:1004940083478100BA972304F1009307600623057C
:1004A400F10093071006A305F100930790062306B5
:1004B400F1009307C006A306F10093075007230732
:1004C400F10093072007A307F100930750062308C0
:1004D400F1002C00254597200000E780A0F99757EC
:1004E40000202398070075A509475DB7854717576E
:1004F40000202304F700975500209385A5EF1305EA
:10050400F00497200000E780E0F69757002023923C
:1005140007FE41A5294697A500009385E5E6174502
:1005240000201305B54397F00000E780607829CDDB
:100534002D4697A50000938525E617450020130551
:10054400F54197F00000E780A07679CD214697A584
:100554000000938565E5174500201305354097F0A5
:100564000000E780E0746316056297570020A380BB
:1005740007F897A500009385E5E209459720000058
:10058400E78040EF02CCD5A8A146174600200356C9
:1005940086369745002083C54535280197300000ED
:1005A400E78040D1034781089307900A630BF70261
:1005B4000347C1089307900A6308F7040347E10857
:1005C4009307900F6318F7000347F1089307500F40
:1005D4006302F7042C01214597200000E78080E99D
:1005E4004DAB034791089307D00BE313F7FC034784
:1005F400A1089307900FE31DF7FA0347B108930787
:10060400500FE317F7FA39A00347D1089307D00B2B
:10061400E316F7FA97A500009385C5D705459720FB
:100624000000E78020E5B5A3854717570020A30005
:10063400F7EC97A500009385E5D6094597200000BF
:10064400E78040E302CC21A0E24785073ECC624725
:10065400B7070200E36AF7FEFD571757002023216E
:10066400F7F0974700202397072897300020E7806A
:10067400002C05A3E24785073ECC6247B70702007A
:10068400E36AF7FE97300020E780602A19A31D462D
:1006940097A50000938505D2174500201305152C56
:1006A40097F00000E780C06063050514114697A524
:1006B40000009385A5D0174500201305352A97F02F
:1006C4000000E780E05E6316054CA1461746002053
:1006D400035666229745002083C5252128019730BB
:1006E4000000E78020BD8347E10891E78346F108D5
:1006F4000547638AE6240547639EE7268347F10896
:10070400639A072617470020130747258347670086
:10071400A20703475700BA97C207C183175700209F
:10072400230A07DC17570020A30407DC175700200F
:10073400230007CC17570020A30207DC175700201B
:100744000357E7CA6306F700175700202311F7CAB7
:10075400930730062304F10093078006A304F100F5
:10076400930710062305F1009307E006A305F100A3
:10077400930770062306F10093075006A306F100C1
:10078400930710042307F10093074006A307F10021
:100794002308F10093072007A308F10091461746A8
:1007A4000020035646159745002083C505144800CC
:1007B40097300000E78000B0834741002309F1002F
:1007C40083475100A309F10083476100230AF10024
:1007D40083477100A30AF1008547175700202307B8
:1007E400F7C02C00394597200000E780A0C802CC50
:1007F40085AA174400201304440FC146174600205D
:100804000356660F83450400080997300000E7800B
:1008140060AA0345040097300000E78080A597474D
:1008240000209387271483C8070003C8170003C553
:10083400270083C5370003C6470083C6570003C794
:10084400670083C7770023081109A3080109230956
:10085400A108A309B108230AC108A30AD108230BDC
:10086400E108A30BF108974700209387270F83C75C
:10087400E70093F7F70F0547638FE70497470020D6
:100884009387C70D83C7E70093F7F70F81EF974767
:1008940000209387A70C83C7F70093F7F70F05474A
:1008A4006385E706140941469745002083D5A504CE
:1008B400174500200345650397300000E78040A1F9
:1008C40097A50000938505AE094597200000E780B1
:1008D40060BA02CCB9A8974700209387270883C73A
:1008E400F70093F7F70FD9FB93078004230CF10863
:1008F4009307F004A30CF10893073005230DF108C6
:1009040093074005A30DF10871BF93073005230C2D
:10091400F1089307C004A30CF10893071004230DF6
:10092400F10893076005A30DF108ADBFE247850701
:100934003ECC6247B7070200E36AF7FE9730002017
:10094400E780E0FEB9A497A500009385A5A73545E7
:1009540097200000E78000B22DACE24785073ECC2B
:100964006247B7070200E36AF7FE97300020E7808A
:1009740000FC05A497A500009385C5A535459720DF
:100984000000E78020AF31A417570020034757B673
:100994008547630DF702174700201307E7F58347E0
:1009A4000700850793F7F70F2300F7001D476372CD
:1009B400F71E97570020A38307B497570020238777
:1009C40007A297300020E78080F6E1A29757002025
:1009D400A38007B297A500009385C5A02D45972055
:1009E4000000E78020A902CC21A0E24785073ECC85
:1009F4006247B7070200E36AF7FE61AA975700202F
:100A0400938727AF83D70700C207C1831D47638538
:100A1400E70A97570020938707AE03D707004207DA
:100A2400418397460020938666F383C75600A20746
:100A340083C66600B69797560020938686AB83D606
:100A44000600958F9D07630CF70E97A5000093850C
:100A5400E59A0D4597200000E780C0A117540020B7
:100A6400130464A983570400B183B907B207035779
:100A74000400BA97035504003181320597540020CD
:100A8400938424A783D50400E51517460020130694
:100A940056EDC205C1813385A74097300000E78039
:100AA400A09883D7040003570400E517BA97C20738
:100AB400C1832310F400F1A817470020130707EAA5
:100AC4008347570003476700A207BA97C207C18349
:100AD40017570020130727A22310F7008357070096
:100AE400C207C18309676371F702FD5717570020D6
:100AF4002313F7A097A500009385858F09459720B8
:100B04000000E780209771A097A500009385858E4B
:100B14000D4597200000E780E095394409A8228517
:100B240097200000E780E07405041374F40FBD47B8
:100B3400E3F787FE97570020239F079A99A897A564
:100B440000009385658B094597200000E78080921B
:100B540031B7975500209385C59917450020130593
:100B6400E5DF97F00000E780601797470020938740
:100B7400E7DE83C7170093F7F70F13072007638097
:100B8400E70213077007638BE702130730066387D6
:100B9400E70497570020239E07946FF00FD19757CF
:100BA40000209387079583D5070017450020130578
:100BB400E5DA97300000E7806036E1BF9757002000
:100BC4009387279383D50700014617450020130513
:100BD400E5D897300000E780E03E65BF97570020D6
:100BE4009387279183D507000546174500201305F1
:100BF400E5D697300000E780E03C61BF6F0000005D
:100C04006F0000006F0000006F0000006F00000024
:100C14006F0000006F0000006F0000006F00000014
:100C24006F0000006F0000006F0000006F00000004
:100C34006F0000006F0000006F0000006F000000F4
:100C44006F0000006F0000006F0000006F000000E4
:040C54006F0000002D
:100C5800000000000000000000000000000000008C
:100C6800000000000000000000000000000000007C
:100C7800000000000000000000000000000000006C
:100C8800000000000000000000000000000000005C
:10100000B7170040130770052380E704130780FA21
:101010002380E70403C7B7041377F70DA385E7041C
:101020002380070493770502BDCFB717004083C71D
:10103000A700918B95EBB71700401307700523802D
:10104000E704130780FA2380E70403C7A7001367A8
:1010500047002385E70081471307F04A6366F700DE
:10106000010001008507CDBFB7170040930670054A
:101070002380D704130780FA2380E7047D89239413
:10108000A700010001000100010023800704238064
:10109000D7042380E704372700408546A303D78081
:1010A00023800704828093770504C9C3B7170040E3
:1010B00083C7A700C18B95EBB717004013077005D6
:1010C0002380E704130780FA2380E70403C7A700FF
:1010D000136707012385E70081471307F07C6366E8
:1010E000F700010001008507CDBF37170040130648
:1010F00070052300C704930680FA2300D704937772
:10110000F50193E707042314F70001000100010033
:101110000100230007042300C7042300D704B727D6
:1011200000408D46A383D7802300070482804111AD
:1011300006C6814601468145014597000000E780CB
:101140002016B7170040130770052380E704130724
:1011500080FA2380E70403C767041367170023831B
:10116000E70423800704B2404101828093174500C1
:101170003385A74001007D1575FD8280411106C6AB
:1011800022C426C2AA840144637C94001305803ED5
:1011900097000000E780C0FD050442044180EDB7E0
:1011A000B2402244924441018280230304801547C7
:1011B0002303E48001002302A480828083076480EB
:1011C000E3CE07FE23030480828083076480E3CE9E
:1011D00007FE03454480828083076480E3CE07FED8
:1011E0002302A4808280411126C44AC24EC006C692
:1011F0001377F50BAD47AA892E899544630CF70048
:10120000194597000000E78080FA97000000E7800A
:1012100020FB8D444E8597000000E78040F9FD5982
:10122000FD1463983401B240A2441249824941013D
:101230008280135509011375F50F97000000E780B0
:10124000E0F92209F1BF011126CC06CEB70408004F
:1012500097000000E780C0F6154597000000E78082
:1012600000F597000000E78080F697000000E78017
:1012700000F62AC697000000E78080F43245937795
:10128000150089EB136515001375F50FF240E24464
:1012900005618280FD14E9F00145CDBF397126DC7E
:1012A0004ADA4ED852D656D45AD25ED006DE62CE34
:1012B00066CCB7E700E07D5783AA070022C603AAE1
:1012C000470023A0E71823A2E718B7170040130729
:1012D00070052380E704130780FA2380E70483C79F
:1012E0004704930B75FFB684E20793FBFB0F85461B
:1012F000AA892E8B328937240040E187015763FA8F
:1013000076016308D5008946130700026313D500F0
:101310000157D98F93F7F70FB71C00402382FC04C5
:1013200011472303E4801305F00F97000000E780C6
:1013300000E8094C97000000E78080E863617C15B5
:10134000B70707003E9B378707007955637AEB04A0
:10135000B3079B006366F704A9476395F90881E822
:10136000814497000000E780A0E5268515A8DA856E
:10137000094597000000E78040E705090345F9FFAC
:10138000FD14050B97000000E78040E581C49377CA
:10139000FB0FE5F797000000E78020EB69F17D5532
:1013A000B7170040130770052380E704130780FA7E
:1013B0002380E70403C74704418B2382E704F250EC
:1013C000B7E700E023A0571123A24711E2543244AB
:1013D0005259C259325AA25A125B825B724CE24C89
:1013E00021618280A547639BF90685691309F00F87
:1013F000B3069900B3742B01B6941349F9FFB37483
:101400009900856B33796901416B9387F9FFB3F7D5
:10141000270199E363FC340193D94900C147E3E60E
:1014200037FF3DBF0569C1697D19D9B71305800D27
:1014300063886901130500026384790113051008AC
:10144000CA8597000000E78040DA97000000E78037
:10145000C0DF31D54E99B38434416DBFDA852D4557
:1014600097000000E78060D8CA94E30B99EE050965
:1014700097000000E780A0D5A30FA9FEFDB79387D2
:10148000F9FF93F7F70F6368FC0A03C75C04B7071B
:1014900008001377070219E3B78707007955E3714E
:1014A000FBF033079B00E3EDE7EE89476396F90411
:1014B0008980D549E38604EADA850945970000006A
:1014C000E780A0D211090327C9FF91472320E480B8
:1014D00003076480E34E07FE23033481FD17EDFB11
:1014E000FD14110B81C49377FB0FE9FF97000000F7
:1014F000E780A0D561F165B58547E385F9F2DA8526
:101500002D4597000000E78040CE9389F4FFE389E2
:1015100004E497000000E78080CB93F7390091EB5B
:10152000832604800327090093074900E39BE6E232
:101530003E89CE84D9BFB5476399F9001305900B56
:1015400097000000E780A0C621BDB1471305B00A8F
:10155000E388F9FE99476394F904DA852D459700ED
:101560000000E78080C881448D4BA14997000000AE
:10157000E780E0C563967401832704802320F90087
:101580008504E39534FF8327048013172B016355EB
:1015900007002312F900E9B32322F900D1B39D47D4
:1015A000639FF90281451305B00497000000E780AE
:1015B000C0C3BD442320090023220900FD59970020
:1015C0000000E780C0C093F77400CA9703C7070004
:1015D000FD14398D2380A700E39334FF51B3A14755
:1015E0006397F90697000000E78020C68144630DE9
:1015F0000B008D479304C0036308FB0093040005B0
:1016000063048B01930440041375C507E30A95D462
:10161000194597000000E78080B997000000E78037
:1016200020BA054597000000E78060B8268597003E
:101630000000E780A0BA094597000000E78000BAE3
:1016400097000000E78060C0E31C05D089BB91478C
:10165000639FF9001305600697000000E78020B53E
:1016600097000000E780C0B513059009D1BDE3895C
:1016700009CEF154FDB109CDB7170040130770052D
:101680002380E704130780FA2380E7042396A70248
:10169000828019C1814799E982803387F5008346AA
:1016A00007003307F50085072300D700E397C7FE3F
:1016B000E5B719C1FD5781E98280910503A7C5FFF0
:1016C0001105232EE5FE7D16E319F6FEF5B77971B7
:1016D00022D4171400001304A4CE1C4006D626D230
:1016E0004AD04ECE91C782979717000023AA07CC05
:1016F0005C409DC317150000035505A1970000002D
:10170000E780A0F75C408297171500000355E59F1E
:1017100097000000E78060F61C40639C071C971749
:10172000000083C7F7CB858B8DCB97170000A3896B
:1017300007CA171700000347D7CA914763FFE7009E
:1017400097000000E780804D9717000083C777C996
:10175000F9178A07A2979C4382979717000083C7BF
:10176000E7CC918B89C7974000E0E78000BC1C4420
:1017700091C38297971700009387C79898431716CD
:1017800000000346B6C13E8997140000938404C14B
:101790009717000083C787C093961700BA9683D621
:1017A0000600638E06129717000083C727BF63F2F7
:1017B000C70A86073E9783550700231007001715B1
:1017C0000000035565942EC69717000023920794D6
:1017D00097000000E78060EA97170000938707945E
:1017E0009C4317150000034565BB13172500BA97E6
:1017F0009C43B2458297AA89171500000355E590CE
:1018000097000000E78060E79717000083C707B9DB
:101810001397170083270900171500000355458FFC
:101820001345F5FFBA9703D7070033753501598D76
:101830002390A70083C70400850793F7F70F1717B6
:101840000000230DF7B417170000034737B563E610
:10185000E70097170000238307B41C40D9EB9717C4
:1018600000009387278B98433E8441C79717000059
:1018700083C777B791CB9717000083C797B689E7DF
:10188000973000E0E78020591C4082972A8435C1B8
:101890009C48AA9717170000232AF7B09717000053
:1018A000938787879C43B1C7171500000355C585EB
:1018B00097000000E78060DC2285973000E0E78039
:1018C000C09C2254B25092540259F249171500009C
:1018D0000355A583456117030000670003DA8507F8
:1018E00093F7F70F97160000238AF6AAE3E2C7EAF8
:1018F0005DBDB250225492540259F2494561828032
:101900009167B7C600409387373023A6F6200F10A3
:10191000000097170000938767A8884F971700006B
:10192000938787819C43316713073730F053B7079C
:101930001000FD17918F99833A0523A6E6205D8D4F
:1019400082804111B7170040985F3AC6945F3247D2
:10195000E39CE6FE324541018280411106C69700B4
:101960000000E78040FE9716000083C6A6A0858A87
:10197000B1C6930730333307F502B337F502398325
:10198000CA07D98F17170000130747A1584B014505
:101990006303F7023385E740636BF70037653D0863
:1019A00089C637856F0813050590198D3E95171761
:1019B0000000232FF79EB24041018280E5473307A4
:1019C000F502B337F5022583DE0765BF411122C456
:1019D000170400001304447518404AC006C61C5F73
:1019E00026C2170900001309E9739983858BC1C7C3
:1019F0001C5F971400009384649E93F7F7F91CDF33
:101A00009717000083C7879D93F707049DC3970727
:101A100000009387E7709C4382979717000023A7E5
:101A2000A79C83C7040093F7F70B17170000230741
:101A3000F79A854717170000A304F79A83C7440055
:101A400093F7070491EF970700009387E76E9C4395
:101A5000D844B8D3930700FC171700002302F79867
:101A60008387640063D90700832709009C43171705
:101A700000002308F79618401C5F8583858BD9CB1F
:101A8000F5571CDF01000100010001000100010009
:101A9000010001000100010001000100010001003E
:101AA000010001000100010001000100010001002E
:101AB000010001000100010001000100010001001E
:101AC000010001000100010001000100010001000E
:101AD00001000100010001000100010001000100FE
:101AE00001000100010001000100010001000100EE
:101AF00001000100010001000100010001000100DE
:101B00000100010097070000938707639C431307B8
:101B10005004B8CB18401C5F9183858B99CFBD577B
:101B20001CDF97070000938727619C4323A80704C5
:101B30008547171700002305F78A83270900D84334
:101B40000583058B19C7D843759BD8C3D843799BA8
:101B5000D8C3B24022449244024941018280397183
:101B600006DE16DC1ADA1ED82AD62ED432D236D0A9
:101B70003ACE3ECC42CA46C872C676C47AC27EC04D
:101B800097000000E780C0E4F250E2525253C25383
:101B90003255A255125682567247E2475248C24801
:101BA000324EA24E124F824F2161730020309707B0
:101BB00000009387675894431717000013070782A4
:101BC000BC5289CF83472700858B89EB8347370039
:101BD000858BFDD79717000023840780828037C745
:101BE00000401306C0039306200397050000938569
:101BF000E57E83278720C18393F7F7036369F600A7
:101C000083278720C18393F7F70363E6F60083C732
:101C10004500858BF9DF8280970700009387C751C5
:101C20009443170700001307677BBC5289CB834797
:101C30000700858B91CB970700002383077A9707CE
:101C40000000A38F0778828083471700858BF1DF20
:101C5000DDB7970700009387274E904337C70040B2
:101C6000C145E54683278720C18393F7F70363FBCC
:101C7000F50083278720C18393F7F70363E4F60019
:101C80003C52EDF38280170700001307E749184321
:101C9000AA87185F1583058B41E3034515001505D9
:101CA0001377C51F19C6B386E70083C62600230035
:101CB000D60095C59706000083C6A67293F6060463
:101CC0000945A1CEB386E70083C63600054693F5E5
:101CD000F6066394C504E206E18663C00604338514
:101CE000E7008347150003470500A20793F7077035
:101CF000D98F1397070141839376074089CA1367E9
:101D00000780970700002395E74201458280170767
:101D10000000231FF740D5BF0545828097060000CD
:101D2000938686418C423685970600009386066B23
:101D3000984593170701C183137817203E866306E1
:101D400008041377072069C703C726001367170025
:101D5000170800002305E86813070019B8D1130716
:101D600000F897050000238DE566170700001307AC
:101D7000A73B0C4337080010D855719B1367270009
:101D8000D8D598413367070198C11377261005C34A
:101D90001376061059CE03C70600136717001706FF
:101DA0000000230DE66217070000231D076283C6AB
:101DB000460093C7F7FFC207E206E186C1831841D8
:101DC00063D106029396170163DE060630538D46F3
:101DD00063E9C6008546170600002303D660345326
:101DE000FDFE970600009386A6578386460163DDB5
:101DF000060093960701C18663DC0604705389468A
:101E000063E4C6007453FDFE1447F58F1CC782803F
:101E100003C716001367170097050000A380E55C51
:101E200017070000230E075A17070000231C075A44
:101E3000A9BF03C736001367170017060000A300E9
:101E4000E65A95B7854617060000230BD65851BFB2
:101E500054471396060163510602B7061000FD169B
:101E600074D39706000093866653944E8506170632
:101E700000002321D65449BFA166D58F71B73971AF
:101E800006DE16DC1ADA1ED82AD62ED432D236D086
:101E90003ACE3ECC42CA46C872C676C47AC27EC02A
:101EA00097000000E780C0E7F250E2525253C2535D
:101EB0003255A255125682567247E2475248C248DE
:101EC000324EA24E124F824F21617300203017070D
:101ED0000000130767528346B7019707000083C7C6
:101EE000F754B69793F7F70FFD4663EAF6044C4BA9
:101EF00097060000A382F6509707000083C7D74FCC
:101F000005473317F70097060000A381F6526D8F3F
:101F10001DEF9706000083C6B651B3F6D70213052E
:101F20000002814733D6F500058A13F8F70F09CE72
:101F30006399E60097070000A380074D8280811710
:101F40007DB705071377F70F8507E39DA7FC828010
:101F5000970700009387071F9843B757020093879E
:101F6000279F832607091396560063580600832689
:101F700007091396660063440600FD17FDF382808F
:101F800045C1AA870145D9CD8D07C207C183F19B01
:101F9000C207C18313074003636FF70217070000EE
:101FA0001307871B0843170700001307671A14431A
:101FB0006398A602170700001307873A185B0145CC
:101FC00035C34111C20706C60545DD8D0297B240F3
:101FD000014541018280170700001307A717D9B7F1
:101FE0000357650005EF035745006369F702B30621
:101FF000F74021466370D6021041938687001D8FFB
:10200000AA96611790C22392E6002393060014C19A
:102010002312F5002313B50021058280084149BF32
:1020200001458280828005C1970700009387C7120F
:1020300003A8070097070000938787118C43014787
:10204000C28763E3B700828094436367F50863E562
:10205000A60813868700E368C5FE03D567002166DE
:102060000506631BC500170600000346260F05067C
:10207000170500002304C50E23930700638607039A
:10208000170600001306060D1042630FF6000356F4
:10209000670019EA83D7470014C383564700B697F1
:1020A000A1072312F700BA879843E30EB7F8970603
:1020B00000009386260A9442E307D7F88356670008
:1020C000D9F283D64700035647001843A106B296BB
:1020D0002392D70098C382803E87B6879DB70000C1
:1020E000973100209381010017610020130181F1D5
:1020F00017F5FFFF130505F19715002093858570EF
:10210000172600201306067E63FCC5008322050007
:1021100023A055001305450093854500E3E8C5FE5F
:10212000178500001305C551972500209385857BF1
:10213000172600201306067C63FCC50083220500D9
:1021400023A055001305450093854500E3E8C5FE2F
:10215000EF10302063020502172500201305857952
:1021600097350020938545406378B500232005000E
:1021700013054500E36CB5FEB72200009382028888
:1021800073A0023097E2FFFF938202E893E212000D
:102190007390523097120000938222A673901234EB
:1021A000730020303D432A876373C3029377F7009F
:1021B000BDEFADE5937606FF3D8ABA960CC34CC3DE
:1021C0000CC74CC74107E36BD7FE11E28280B30610
:1021D000C3408A069702000096966780A6002307F0
:1021E000B700A306B7002306B700A305B700230571
:1021F000B700A304B7002304B700A303B700230369
:10220000B700A302B7002302B700A301B700230160
:10221000B700A300B7002300B700828093F5F50F45
:1022200093968500D58D93960501D58D61B79396CC
:1022300027009702000096968682E78086FA9680AD
:10224000C1171D8F3E96E374C3F8A5B73367B50079
:10225000FD530D8B79E7B7877F7F9387F7F71041A1
:102260009441B372F6003363F600BE92B3E26200AB
:102270006397720C6318D6065041D441B372F600CE
:102280003363F600BE92B3E262006398720A631B86
:10229000D60410459445B372F6003363F600BE923F
:1022A000B3E262006391720A631ED6025045D445C0
:1022B000B372F6003363F600BE92B3E26200639A33
:1022C00072086311D60210499449B372F600336361
:1022D000F600BE92B3E26200639372085105D10525
:1022E000E30FD6F61317060193970601631CF70058
:1022F0001357060193D706013305F7409375F50F81
:1023000091E982804183C1833305F7409375F50FCE
:1023100091E182801377F70F93F7F70F3305F740BA
:1023200082800346050083C6050005058505631305
:10233000D60065FA3305D640828011059105E31277
:10234000D6FE014582802105A105E31CD6FC01458E
:1023500082803105B105E316D6FC01458280410536
:10236000C105E310D6FC014582800000C167FD175E
:10237000014625A00507420741839D4663ECE60020
:1023800093F617008583FDD6E9768506B58FC207DB
:10239000C183CDB70506420641826379B600330793
:1023A000C50003470700B98F0147C1BF3E85828042
:1023B000011106CE22CC26CA4AC84EC6AA84AE89CE
:1023C000AA854E8597000000E78080FA2A891724A5
:1023D0000020130424529305500A0345040097C0BB
:1023E0000000E78060D399450345040097C00000D2
:1023F000E78080D293D584000345040097C0000095
:10240000E78080D193F5F40F0345040097C00000E6
:10241000E78080D04E86A6850345040097300000F3
:10242000E78000CC9355890093F5F50F0345040030
:1024300097C00000E78040CE9375F90F0345040074
:1024400097C00000E78040CD9305600B0345040072
:1024500097C00000E78040CC9D450345040097C02D
:102460000000E78060CBF2406244D2444249B24966
:1024700005618280411106C697000000E78080F365
:10248000B24041018280411106C6AA858147338747
:10249000F5000347070009C78507C207C183C5BF09
:1024A0003E8597000000E780E0F0B2404101828065
:1024B000011106CE22CC26CA4AC84EC652C497275E
:1024C000002083C7A7421947636EF70E9386F7FF74
:1024D000178700001307C7153697034707006307E0
:1024E000A70C930730056309F50C854717270020D3
:1024F000230EF73E9727002083D7C73E0547638802
:10250000E7120947638CE7141384170042044180E3
:10251000172700202318873CFD17AE972380A700BC
:1025200095476301F414172900200359E93B8547B7
:10253000630EF91A4A8A9307790063DB871AAE891A
:102540009304F9FFC204C180A68513854900970052
:102550000000E780E0E19357850093F7F70F1375CC
:10256000F50F338789008346D7FF1307600B639409
:10257000E602338789008346E7FF1D47639DE60037
:10258000338789000347B7FF6397E7004E9483477B
:10259000C4FF6307F5128547172700202314F7347B
:1025A000172700202312F734814445A085071727F9
:1025B0000020230DF7323DBF89471727002023074E
:1025C000F7320DBF938697FF178700001307C706E2
:1025D000369703470700630CA70093073005630293
:1025E000F5048547172700202302F73021B7850718
:1025F00093F7F70F17270020230AF72E3947E39B9D
:10260000E7EE8547172700202302F72E8547172777
:1026100000202319F72C172700202317F72C8144BB
:102620002DA08947172700202302F72CE1B51307B7
:10263000500AE308E5EC8547172700202314F72A02
:10264000172700202312F72A81442685F24062448E
:10265000D2444249B249224A056182801947E305C2
:10266000E5EAD1BF83C72500A20703C73500BA97A3
:10267000C207C1838507172700202317F72665B5F2
:102680003387F900834647002300D7008507C20738
:10269000C1831307FAFFE3C5E7FE8547172700202C
:1026A0002312F7249307F9FFCE9723800700D94719
:1026B000630AF9008547172700202317F72271B70F
:1026C0008147C1BF97750000938505654E859700CA
:1026D0000000E780E0B779FD177500001305456538
:1026E00097000000E78060DA8144E9B78144B1BF18
:1026F0008144A1BF797106D622D426D24AD04ECECB
:1027000052CC9727002083C7771E1947636EF70EB8
:102710009386F7FF17870000130787F13697034763
:1027200007006307A70C930730056309F50C85477D
:1027300017270020A30CF71A9727002083D7A71A82
:1027400005476388E7120947638CE7141384170071
:10275000420441801727002023178718FD17AE97E2
:102760002380A70095476301F4141729002003591B
:10277000C91785476305F91E4A8A9307790063D212
:10278000871EAE899304F9FFC204C180A685138514
:10279000490097000000E780A0BD9357850093F79C
:1027A000F70F1375F50F338789008346D7FF13079B
:1027B000600B6394E602338789008346E7FF1D4779
:1027C000639DE600338789000347B7FF6397E700FF
:1027D0004E948347C4FF6308F512854717270020EE
:1027E0002313F710172700202311F710814445A069
:1027F000850717270020A30BF70E3DBF8947172732
:102800000020A305F70E0DBF938697FF17870000E2
:10281000130787E2369703470700630CA700930767
:1028200030056302F504854717270020A300F70C45
:1028300021B7850793F7F70F17270020A308F70A9A
:102840003947E39BE7EE854717270020A300F70AE7
:102850008547172700202318F7081727002023167D
:10286000F70881442DA0894717270020A300F70807
:10287000E1B51307500AE308E5EC85471727002068
:102880002313F706172700202311F7068144268516
:10289000B250225492540259F249624A45618280F0
:1028A0001947E305E5EAD1BF83C72500A20703C79F
:1028B0003500BA97C207C183850717270020231662
:1028C000F70265B53387F900834647002300D70038
:1028D0008507C207C1831307FAFFE3C5E7FE8547F3
:1028E000172700202311F7009307F9FFCE972380C5
:1028F00007009307E002630AF900854717270020C5
:102900002315F7FE69B78147F9B7977500009385DE
:10291000A5401385890197000000E780609371FD51
:10292000414697D700009387E76DEC4F0A859710D3
:102930000000E780C0B24146CE850A8597D00000EE
:10294000E780403719C181444DBF1775000013055A
:10295000253E97000000E78040B3814479BF814461
:102960003DB781442DB7411106C622C42A84972061
:102970000000E7806052228597300000E7802092B7
:1029800097270020238887F69307B0076306F40093
:10299000B240224441018280977500009385C53A78
:1029A0001305100697000000E78000D5D5B7B7F7EC
:1029B00000E0C8439C478280B717004013077005AA
:1029C0002380E704130780FA2380E70411ED37170B
:1029D00000408347670493F7D70F2303F704B71723
:1029E0000040238007048280371700408347670434
:1029F00093E727002303F704DDB7B7170040130759
:102A000070052380E704130780FA2380E7047D57CD
:102A10002396E70203C76704136717002383E704BD
:102A20002380070401A0011106CE914601469305BB
:102A3000F006680097100000E78000883247B7670B
:102A4000A55A938757AA6306F7000545F24005612A
:102A50008280494597100000E780E0811305F00669
:102A600097100000E78020810145CDB7357106CF72
:102A700022CD26CB4AC94EC7AA84AE89177500005D
:102A80001305C52C97400000E780C0C593D55400BE
:102A900013F9F40F1376F90193F5F50F9306000877
:102AA0001E06938505030A8597100000E780C08005
:102AB000172400201304C422930720052300F400E8
:102AC000A180A3009400230124019737002083D71D
:102AD00007A913D78700A301E4002302F400973766
:102AE000002083D7079113D78700A302E4002303B4
:102AF000F400A303040023040400130600088A85DD
:102B0000172500201305551E97D00000E780C00D43
:102B100093058008172500201305951C97000000D9
:102B2000E780008593578500A304F4082305A408D3
:102B300093076004A305F4089307C0F81727002043
:102B4000A30EF72885472380F900FA406A44DA4447
:102B50004A49BA490D618280011106CE22CCAA876A
:102B6000014481CB0504420441802947B3D7E702E1
:102B7000CDBFA28739A8FD17A9463377D502130721
:102B8000070310083E96230AE6FEC207C1833355A9
:102B9000D50275F1977500009385051C19459700BE
:102BA0000000E780608D4C00228597000000E780E0
:102BB000A08C977500009385A51A05459700000025
:102BC000E780808B97350020938585961735002008
:102BD0000345259597000000E780008A977500005F
:102BE00093854560114597000000E780E088F2403A
:102BF000624405618280011106CE22CC26CA4AC8F1
:102C00001305800497100020E780C0BFA14273B075
:102C1000023002C6B717004083C747049D8B0547A3
:102C20006383E70A7164930504200145972000003F
:102C3000E780802693050420054597200000E78063
:102C4000A02593050420054597000000E780E0D10A
:102C5000014685451305D01097100000E780808C51
:102C600001468545354597100000E780A08B970009
:102C70000000E780A05E97100000E78060FD9710DD
:102C80000000E780801E054597200000E780206156
:102C9000A14273A00230977500009385A50C0545ED
:102CA00097B00000E780205697100000E78020ECE6
:102CB00097200000E780A00841ED894717370020E2
:102CC000A30FF782F1A997370020A38A07829737CD
:102CD00000202387078297370020239107829737A8
:102CE0000020239A07809737002023980780973782
:102CF000002023860780973700209387A7801777C7
:102D000000001307A7F8034E07000343170083488A
:102D10002700034837000345470083455700034613
:102D2000670083467700034787002380C701A3809D
:102D3000670023811701A38107012382A700A382D3
:102D4000B7002383C700A383D7002384E700D9BD3E
:102D500097200000E78060EC19C585471727002001
:102D6000A30FF77835A99727002023960778972790
:102D70000020A38607782DA1177500001305C50054
:102D800097400000E78000969946172600200356DA
:102D9000C6B69725002083C585B54800970000007A
:102DA000E78080518345410083475100A207BE95CB
:102DB00083476100C207BE9583477100E207BE9555
:102DC0009727002023A4B768834781000347910019
:102DD0002207BA97172700202318F7661727002025
:102DE000034707618547630FF70017260020035646
:102DF000A665177500001305A5FA97400000E78047
:102E0000608E65AE9727002023900764F9BF97274F
:102E100000209387A763884397100000E780C0C90C
:102E200085451305D01097000000E780A065814517
:102E30001305E01097000000E780C06417750000DC
:102E40001305C5F897400000E780C089814401441C
:102E50003DA81305200397100020E78060B21727D4
:102E600000200347F7698547630DF7060504420410
:102E70004180A54763F0871C9727002083C78757A9
:102E8000639A071A97270020238807660144971042
:102E90000020E78000041305200397100020E7803E
:102EA00020AE9727002083C7E754C5F79727002057
:102EB00083C78764D9FF9727002083D78753D1DB47
:102EC0009305000217250020034545F197400000B7
:102ED000E780C0B8854717270020230FF76001441B
:102EE0008DBF172900200349A967631C0900172516
:102EF0000020035545A09727002083D747666364C9
:102F0000F508172700200347E75E85476304F70AA3
:102F10009307200363E2970C172700200357A79D10
:102F20009727002083D7A763E362F7F49727002051
:102F3000A388075C97270020238C074A17260020C8
:102F40000356264B97270020938747508C431775CD
:102F50000000130525F197300000E780A0789775F1
:102F600000009385E5F5414597F0FFFFE780C050ED
:102F70001305803E97100020E78080A09710002066
:102F8000E780209BE5B5972500209385655D970038
:102F90000000E780E0AD972700209387C79503D511
:102FA000070005054205418197000000E78000BB4E
:102FB000CA8481BFA14517250020034525E297401B
:102FC0000000E780A0A997270020238507528504E9
:102FD00093F4F40F01442DBF97270020A3820752DA
:102FE00097270020238607401726002003566640B7
:102FF00097270020938787458C431775000013059A
:1030000025DE97300000E780E06D9775000093851E
:10301000E5E21305400297F0FFFFE780E045130566
:10302000803E97100020E780A09597100020E78051
:103030004090DDB5A547E3FC87E417270020034750
:10304000374C8547E315F7E4172700202304F74A98
:10305000014435BD177500001305C5E79730000022
:10306000E7804068972700209387473E8843971062
:103070000000E78060A485451305D010970000008C
:10308000E780404081451305C01097000000E780AD
:10309000603F9727002023910786FD5717270020C0
:1030A0002322F74C15A897270020A3840744FD5737
:1030B000172700202328F74A97270020239E0782FE
:1030C00017750000130545E297300000E780806126
:1030D00097100020E780E08597100020E78060DFF0
:1030E0001305200397100020E78080891727002010
:1030F00013078780835707008507C207C183231002
:10310000F70005671307F795E378F7FC69BF9700A9
:103110000000E780809119ED97750000938585DFA9
:10312000054597B00000E780000E97100020E7806B
:103130004080BDA085451305D01097000000E780B2
:103140006034977500009385E5DD054597B0000074
:10315000E780600B97750000938505E0054597B003
:103160000000E780400A97750000938565E20545F9
:1031700097B00000E780200921A0B24785073EC62E
:103180003247B7070200E36AF7FE02C69710000055
:10319000E780A0AB31A0A94717270020A301F7368D
:1031A000172700200347C7248547E307F7BC1727E5
:1031B000002003471734E301F7BC1727002003471B
:1031C00027238547E305F7C41727002003477732F5
:1031D0008547E301F7E89727002083C75732054763
:1031E000E38BE7FA13978701618715D30947638259
:1031F000E702B24785073EC63247B7071000E3F142
:10320000E7FA02C61305D01097000000E780403CA3
:1032100041BF97200000E78060B885451305D010B6
:1032200097000000E780002697750000938505D77A
:10323000054597B00000E78000FD21A0B247850753
:103240003EC63247B7070200E36AF7FE02C6971090
:103250000000E780809FA9B7411106C6814601465C
:103260008145214597100020E7808083B2404101CD
:103270008280411106C6856601469315C500054545
:1032800097100020E780C0811375F50FB24041010F
:103290008280411106C6B6873205B2863E86AA955F
:1032A000094597000020E780A07F1375F50FB24015
:1032B000410182808D068982B2052E96814763F88E
:1032C000D700184218C1850711051106CDBF8280AD
:1032D000797106D622D426D24AD04ECE52CC7D73F6
:1032E0001A912A8AB684AE893309B600856763D4F9
:1032F000270D85660146AA857D751808BA973E9503
:1033000097000000E78040FB8147056433043441A7
:1033100063D587023387F900B386F40083C60600BD
:103320007D7685650808AA952E9632C632972300C9
:10333000D7008507C207C183C9BFFD770567140899
:103340003697BA973EC6BE86056681455285970078
:103350000000E78040F4050A420A135A0A01856614
:103360000146D285324597000000E780E0F48147AE
:1033700015A03307F4002697834607007D7705667E
:103380000C082E9632973AC63E972300D700850741
:10339000C207C1837D774A97E3CDE7FCFD76856759
:1033A0001808BA97BE9605668145528597000000B9
:1033B000E78060EE85A0328485660146AA857D752A
:1033C00085671808BA973E9597000000E780C0EE21
:1033D000814763F5870233873701B386F40083C6DC
:1033E00006007D7685650808AA952E9632C6329726
:1033F0002300D7008507C207C183E1BFFD7685673B
:103400001808BA97BE960566814552859700000058
:10341000E78060E805631A91B25022549254025931
:10342000F249624A45618280411106C6AA8731810C
:1034300042054181C207C1831317C500420741837A
:10344000998FB2862E8693950701C181970000005F
:10345000E78040E8B240410182800D06098681473D
:1034600063F8C700984118C1850711059105CDBFC4
:103470008280935785002380F5002300A600828078
:10348000011106CE22CC2E841306E1009305F10033
:1034900097000000E78020FE8347F10081CB0547BD
:1034A0006383E704F2406244056182808547630FCD
:1034B000F400B716004083A7C60A0346E10005479B
:1034C0003317C700D98F23A6F60AE9BFB716004005
:1034D00083A7860A0346E10005473317C700D98F43
:1034E00023A4F60AC1B78547630FF400B71600405E
:1034F00083A7C60C0346E10005473317C700D98FE1
:1035000023A6F60C45B7B716004083A7860C0346E2
:10351000E10005473317C700D98F23A4F60C59B72C
:10352000011106CE22CC26CA4AC8AA842E8432892A
:103530001306E1009305F10097000000E780A0F377
:103540008347F10091CB05476385E704F24062446D
:10355000D24442490561828085476309F400B71768
:10356000004003A7070A23A0E70ACDB7B71600401B
:1035700083A7060A0346E10005473317C700D98F22
:1035800023A0F60ACA85268597000000E78080EF11
:1035900075BF85476309F400B717004003A7070C00
:1035A00023A0E70C65B7B716004083A7060C0346B7
:1035B000E10005473317C700D98F23A0F60CCA8551
:1035C000268597000000E780E0EB49B7011106CEA1
:1035D0001306E1009305F10097000000E780A0E9E1
:1035E000B717004083A6870A03A7870C8347F1001B
:1035F00099C78546638FD702F240056182800346F2
:10360000E1000547B317C700FD8EB3D6C600638A35
:10361000E600371700408326870AD58F2324F70A50
:10362000E1BF371700408326C70AD58F2326F70A44
:10363000E1B70346E1008546B397C6007D8F335757
:10364000C700630AD700371700408326870CD58F41
:103650002324F70C55B7371700408326C70CD58FA6
:103660002326F70C51BFB717004003C6B7051376E2
:10367000F60F83C6870593F6F60F03C797051377F2
:10368000F70F83C5B70593E50508A38DB704BD45BE
:10369000238CB70493051002A38CB70483C5A70538
:1036A00093E51500238DB704B717004083C7A7051E
:1036B000858BFDFBB717004003D5C705A38DC70455
:1036C000238CD704A38CE7048280411106C693960D
:1036D0002500AA852D4597000020E780603C014524
:1036E000B24041018280411106C622C426C24AC0AE
:1036F0002A842E89B284930600200146AA85254596
:1037000097000020E780C039931629002686A285FD
:10371000294597000020E780A0380145B2402244A7
:103720009244024941018280411106C622C42E847E
:1037300093970501C18763C0070293F715009DEBBE
:103740008967ED8F9DEB9167ED8FA1EF0145B24049
:1037500022444101828097300000E780C0FE09C505
:1037600097300000E78060FB6175298C1315040118
:103770004181F1BF13C51500D9BF97400000E78014
:10378000A0FB37F60200130606E089651725002026
:10379000034505D897300000E78060400965218D1A
:1037A0007DB713060064916517250020034545D6B3
:1037B00097300000E780A03E1165218D49BF1D7143
:1037C00086CE4546977500009385458217750000A3
:1037D0001305C5D097300000E780202411E101A037
:1037E000B7F700E07957D8C77D5798CB37E700E0A7
:1037F00085662320D7101306701090C32320D71896
:10380000010001001306C0038145480897300000FD
:10381000E780801F971700209387875C3ECA930735
:103820000060231CF100ED47A301F102954723023C
:10383000F1028547A302F102930720032303F1025B
:10384000814601468145214597000020E7804025BB
:10385000A167938707E03ECE97070000938727E78D
:10386000BEC497070000938747E8BEC6B547230844
:10387000F10297F7FFFF9387C7133EDA970700001F
:103880009387A7DE3EDE81467000B7F50700E105AD
:10389000194597000020E780A020814711A89808CB
:1038A0003E978346C7FB230DD7FC850793F7F70F99
:1038B0001547E376F7FED24799C70357810193076F
:1038C000F05F63E3E70001A0480897300000E7805D
:1038D000C05411C101A0F640256182802A88814828
:1038E00019A81303E0169A98C20893D808017D1806
:1038F0004208135808011303407E63770309130E2F
:10390000F8FF1303001933636E02E30C03FC130387
:10391000400633636E0263090300137E3E006308B2
:103920000E001303D016C1B71303D0166DBF1303D7
:10393000E01655BF1308001933780503630E08001D
:103940001308400633780503630E0800137835002A
:10395000630C0800014811A00548420813580801EB
:10396000710821A80148D5BF0548C5BF13F8150047
:10397000630B08027D4811A07D48C298C20893D805
:103980000801FD15C205C18105486370B8020D48E4
:10399000E38205FB2148E37BB8FC13F81500E30D37
:1039A00008FC7948D9BF7948C9BF4696420641828A
:1039B0007D1642064182E145B3F6B602930580705A
:1039C000B386B602931547003387E5409315170079
:1039D000AE96C206C18213D71700BA96BE07C206BA
:1039E00041677D17F98FDD8EB7170040130770050B
:1039F0002380E704130780FA2380E704D0DB03C7A2
:103A0000170313670708A388E702D4DB03C717036C
:103A100013670704A388E70223800704828041110B
:103A200006C6B7170040130770052380E704130785
:103A300080FA2380E70403C7F70213677700A387A0
:103A4000E7022380070481470147814605468545F3
:103A50001305407E97000000E78080E8014597301D
:103A60000000E780C063B24041018280411106C678
:103A700022C417050000130565CB97300000E780CE
:103A80000036172400201304A4A82300A4009700E4
:103A90000000E78000F937F60200130606E08965AA
:103AA0000345040097300000E780600FB2402244D5
:103AB00041018280797106D622D42A8497000000C1
:103AC000E78020D097000000E78080FA9750000040
:103AD000E78060FB172500001305E5909730000094
:103AE000E780E02F97170020238AA72E22C4B7571C
:103AF0005500938757553EC6A147A300F100B7D79D
:103B00002500938707783EC2930700042300F10045
:103B100097270000938767133EC80A8597400000E7
:103B2000E780C022014597F0FFFFE78020E9930678
:103B3000F00F1306F00FA945172500201305859DEA
:103B400097400000E780A05FB25022544561828018
:103B50008280B717004083C747049D8B0547638465
:103B6000E7000145828005458280411102C6B717F2
:103B7000004083C747049D8B0D47638CE700972760
:103B80000020238F079697270020238B079641015B
:103B900082803247B70702006376F700B247850795
:103BA0003EC6C5BF02C61727002013076795834787
:103BB0000700850793F7F70F2300F70083470700F7
:103BC00093F7F70F1547637AF70697270020938737
:103BD0006793176700001307270C034E0700034382
:103BE00017008348270003483700034547008345F3
:103BF000570003466700834677000347870023800A
:103C0000C701A380670023811701A38107012382D5
:103C1000A700A382B7002383C700A383D700238410
:103C2000E7003247B7070A00E37FF7F4B24785079A
:103C30003EC6C5BFB24785073EC63247B7070A0032
:103C4000E36AF7FE89B7496502858280411106C69D
:103C500022C4171400201304A47F654681452285E1
:103C600097E0FFFFE7804054971700209387D77FA6
:103C7000176700001307C738034F0700834E17006C
:103C8000034E27000343370083484700034857008B
:103C90000345670083457700034687008346970006
:103CA0000347A7002380E701A380D7012381C70131
:103CB000A381670023821701A38207012383A70042
:103CC000A383B7002384C700A384D7002385E7001C
:103CD0005546976500009385653317150020130539
:103CE000457B97C00000E78020F02309040293077A
:103CF0000002A309F4020547230AE402A30A04020E
:103D0000230D04020157A30DE4021547230EE4021C
:103D1000A30E0402230F0402A30F040223000404D1
:103D2000A3000404A30D040413078003230EE4047A
:103D3000A30E0404230FF404A30F040493078004C8
:103D40002300F406A300040623010406A3010406CD
:103D500023020406A302040623030406FD57A3035B
:103D6000F4062304F4068947A304F4062305040695
:103D70009717002093877774176700001307872A27
:103D80008348070003481700034527008345370091
:103D90000346470083465700034767002380170107
:103DA000A38007012381A700A381B7002382C70056
:103DB000A382D7002383E700A30F0406C147230093
:103DC000F408A30004082301040897170020938730
:103DD000A779A30DF40813D78700230EE40813D79F
:103DE0000701A30EE408E183230FF40897170020CE
:103DF0009387776E176700001307472383480700F0
:103E00000348170003452700834537000346470052
:103E1000834657000347670023801701A3800701EB
:103E20002381A700A381B7002382C700A382D70004
:103E30002383E700A301040823020408A302040863
:103E400023030408A30F0408930770F82300F40A5F
:103E5000930730F9A300F40A8D472301F40AB24016
:103E6000224441018280411106C622C41714002059
:103E70001304845865468145228597E0FFFFE7805B
:103E8000A032971700209387B758176700001307D1
:103E90002717034F0700834E1700034E27000343E5
:103EA00037008348470003485700034567008345B0
:103EB000770003468700834697000347A7002380C7
:103EC000E701A380D7012381C701A3816700238273
:103ED0001701A38207012383A700A383B7002384CC
:103EE000C700A384D7002385E700554697650000E7
:103EF0009385C511171500201305255397C00000A1
:103F0000E78080CEA305040423060404A30604046A
:103F100023070404B240224441018280130101DFDF
:103F200023261120232481202A84130600209305B0
:103F3000F00F0A8597E0FFFFE780002783473400F2
:103F4000E207034744004207D98F03475400220782
:103F5000D98F03476400D98F014709A803C607001A
:103F60001404BA962380C6E0850705079306F01F60
:103F700063ECE602B7060800E3E2D7FEB7D6FFDF40
:103F800093860680BE9611661306F67FE378D6FC0C
:103F9000B70600C0BE964166E3E2C6FCB746FF1F07
:103FA000BE961166E3ECC6FA8A851305002097E0F9
:103FB000FFFFE780604C8320C12003248120130190
:103FC00001218280397106DE22DC26DA4AD84ED6FB
:103FD00052D456D25AD05ECE62CC80000A8C93075F
:103FE000F0062306F4FC1307B006A306E4FC13074F
:103FF000E0062304E4FCA304F4FC93072007230257
:10400000F4FC93076006A302F4FC93878500918378
:1040100092073301F14003493500620983474500A7
:10402000C2073369F90083475500A2073369F900D5
:10403000834765003369F900B977CA97796763FAEE
:10404000E708AA8BB289938A95FF0A8A139B0A0113
:10405000135B0B015A86CA85528597F0FFFFE780F4
:104060000040814419A8930584FC094597E0FFFFAF
:10407000E78080406281B5A0850463DC5403B30708
:104080009A0083C707001307F00F6384E700E38CEF
:1040900009FC1307F00FE381E7FE8547E39EF9FC77
:1040A0001355C9004205418197F0FFFFE780A01C2E
:1040B000E1B713867B00DA854A8597F0FFFFE7803A
:1040C000E0369305C4FC094597E0FFFFE780C03A5E
:1040D00001A8930544FC094597E0FFFFE780C0393C
:1040E0006281130104FCF2506254D2544259B25915
:1040F000225A925A025BF24B624C2161828041113A
:1041000006C697170020238BA74497170020238EFD
:10411000B740971700202399C74097170020239195
:10412000074097170020239F073E81477D47636D17
:10413000F70017170020130767403E97230007007A
:10414000850793F7F70FDDB797170020A38807407F
:1041500097F0FFFFE7808010B2404101828041115B
:104160009717002083D7073C93D6870017170020A6
:104170001307C73B0347070011462390C5001546A8
:104180002300C500A300F5002301D500A301E5002D
:10419000014541018280130101DE232E1120232CD1
:1041A0008120232A9120232821212326312117141D
:1041B00000200344A43A171900200359E936B30933
:1041C00024039717002083C7473685073309F90270
:1041D0009717002083C7673563EB8700228597F028
:1041E000FFFFE780400905041374F40FD5B70144BD
:1041F00035A09314940013060020B38524010A858A
:1042000097F0FFFFE780A0250A86930500203385FD
:10421000340197F0FFFFE780602105049717002025
:1042200083D7873013D797009717002083C7A72F0E
:10423000B387E702E36FF4FA01458320C121032429
:10424000812183244121032901218329C1201301D4
:104250000122828093D7350013F775003E9585457E
:10426000B395E50083470500DD8D2300B50082800E
:10427000411106C622C40344050061E4A947638BCB
:10428000F500971700202383872A2285B240224415
:1042900041018280A2877D47636DF70017170020D8
:1042A0001307C7293E9723000700850793F7F70FE9
:1042B000DDB78346150097170020A388D72603474C
:1042C000250083473500A207D98F1717002023192F
:1042D000F7248347450083455500A205DD8D9717D8
:1042E00000202391B7248347650003477500220708
:1042F0005D8F83478500C2075D8F83479500E20786
:10430000D98F171700200357272233F6E70215E24B
:10431000B3D7E702171700202307F72091E20544DF
:10432000171500201305852197000000E780C0F2D3
:1043300089BFB3D7E7028507171700202305F71EAB
:10434000F1BF11443DBF93D735009D893E950305CC
:1043500005008547B395B7006D8D1375F50F828005
:104360008347050011476365F720011106CE22CC73
:1043700026CA4AC84EC652C42A848A071767000054
:10438000130747CBBA979C43BA9782870145F240FF
:104390006244D2444249B249224A0561828093076D
:1043A000C01D6384F5000145DDB703471500834751
:1043B0002500A207D98F171700202315F716834968
:1043C0003500171700200357A7156305071A63F573
:1043D000E71A014A014995A005476389E70809479B
:1043E000638AE70A93172900A29703C5470003C70A
:1043F00057002207498F03C567004205498F03C54F
:1044000077006205598D930789018607A29703C734
:10441000470083C45700A204D98C1306C4045296E3
:10442000A68597F0FFFFE7806000D294139A0401FD
:10443000135A0A0105091379F90F6371390997179E
:10444000002083C7C70BC9FB93172900A29703C598
:10445000470003C757002207498F03C5670042057D
:10446000498F03C577006205598D71BF93172900E5
:10447000A29703C5470003C757002207498F03C50A
:1044800067004205498F03C577006205598DC967EA
:104490003E9595BF93172900A29703C5470003C710
:1044A00057002207498F03C567004205498F03C59E
:1044B00077006205598DF9673E95B1B797150020D1
:1044C00083D5450617150020130545079700000002
:1044D000E78080D8014565BD930740056384F500FA
:1044E000014575B58347150083452500A205DD8D7F
:1044F000971700202398B7029717002083D7470209
:10450000B5CF63E4F500054559B51715002013052F
:10451000E50297000000E78020D4014497170020AF
:1045200083D70700FD176350F402A28517150020FA
:104530001305C50097000000E78020E131C10504A4
:104540001374F40FE1BF854717170020A308F70085
:10455000014535BD8D476384F50001450DBD171735
:1045600000200347B7FF8547630EF700014505B5F7
:1045700011458280054521BD054511BD054501BD9B
:10458000094531B50D4521B5834705001147636CD9
:10459000F730130101DE232E1120232C8120232A42
:1045A0009120232821212326312123244121232244
:1045B0005121AA848A07176700001307E7A8BA9752
:1045C0009C43BA97828701458320C121032481211E
:1045D00083244121032901218329C120032A812029
:1045E000832A41201301012282809307A01D638446
:1045F000F5000145D1BF0347150083472500A207F9
:10460000D98F17170020231FF7F0834A350017179B
:1046100000200357E7F0630A072863FAE728014AF6
:104620008DA02286CE850A8597F0FFFFE78020E3E4
:104630000A86A2854A8597F0FFFFE78020DF0144C4
:1046400015CC93070020E3FE87FC13060020CE85DF
:104650000A8597F0FFFFE78080E00A869305002037
:104660004A8597F0FFFFE78060DC938909201309F2
:104670000920130404E042044180D9B7050A137AE3
:10468000FA0F637A5A0993171A0013173A002697FC
:104690008349470083465700A206B3E636018349A3
:1046A0006700C209B3E6D90083497700E209B3E99C
:1046B000D90085078A07A69703C9470003C7570093
:1046C00022073369270103C76700420733672701C1
:1046D00003C9770062093367E90093078A0B8607ED
:1046E000A69783C6C70003C4D7002204558C1719A8
:1046F0000020034989E39717002083C727E6330981
:10470000F94093071900171900200359E9E133090B
:10471000F9023A9935B79715002083D5A5E017150A
:1047200000201305A5E197000000E780E0B20145F5
:1047300061BD9307C01D6384F500014571B5034752
:10474000150083472500A207D98F17170020231BC8
:10475000F7DC034A350017170020035767DC630AAC
:10476000071463FAE71481490149637E49079317E7
:104770002900A69703C5470003C757002207498FA2
:1047800003C567004205598D03C777006207498F4B
:10479000930789018607A69783C6470003C457007D
:1047A0002204558C1386C404171500200345E5D751
:1047B0009717002083C787DA1D8D050597170020FE
:1047C00083D787D63385A7024E96A2853A9597F070
:1047D000FFFFE780A0C5A299C20993D90901050985
:1047E0001379F90F59B79715002083D5A5D317155D
:1047F00000201305A5D497000000E780E0A501453F
:10480000E1B3930740056384F500014575BB834719
:10481000150083452500A205DD8D97170020239301
:10482000B7D09717002083D7A7CFC1CB63E4F5009B
:10483000054559BB17150020130545D0970000000A
:10484000E78080A101449717002083D767CDFD172B
:104850006350F402A28517150020130525CE97009A
:104860000000E78080AE21CD05041374F40FE1BF92
:10487000854717170020A303F7CE0145B1B38D4735
:104880006384F500014589B317170020034717CD4E
:1048900085476304F700014505BB97000000E780EA
:1048A000C08F0D4515B311458280054531BB0545C7
:1048B00021BB054511BB054501BB054531B3094584
:1048C00021B3411106C622C426C203440500631663
:1048D0000422A947638CF50097170020238887C41A
:1048E0002285B240224492444101828081477D4723
:1048F000636DF70017170020130747C43E97230086
:1049000007008507C207C183DDB783471500171766
:104910000020A30CF7C00347250083473500A207FA
:10492000D98F17170020231DF7BE03474500834783
:104930005500A207D98F171700202315F7BE83470C
:1049400065000347750022075D8F83478500C20716
:104950005D8F83479500E207D98F17170020035713
:10496000A7BCB3F6E702A5E633D7E7029716002007
:10497000238BE6BA9716002083C666B80947638082
:10498000E6069717002083C757BA639107121714DA
:1049900000200344C4B685476303F40A61E8171492
:1049A00000200344A4BB9717002083C727BB171719
:1049B0000020034747B7BA9763C8870A228597F054
:1049C000FFFFE780408B050442044180E9BF33D7F5
:1049D000E7020507971600202387E6B461BF13F7A7
:1049E000F70709EF9D8317170020231AF7B617174B
:1049F00000200357C7B6BA86814721A89D83850743
:104A000017170020231DF7B4DDB785072946B3C665
:104A1000C602E5FE971600202385F6B03DD3A945D2
:104A20003366B702FD171306060397160020938618
:104A300026B0BE962380C6003347B702C5B7971489
:104A4000002083C4A4B109A8268597F0FFFFE78062
:104A500080828504C204C1809717002083C707B0F5
:104A6000C507E3D397FEADA805449DA88947630415
:104A7000F4000544B5A017140020034404AB05045A
:104A800009A8228597E0FFFFE780E07E0504420445
:104A900041809717002083C747A9171700200347B5
:104AA00087A8BA97E3DF87FC05441DA817140020E8
:104AB0000344A4A705049717002083C707A7171767
:104AC0000020034747A6BA9763CB8700228597E06B
:104AD000FFFFE780407A050442044180E9BF0944B2
:104AE0009715002083D505A417150020130505A5EB
:104AF00097F0FFFFE7804076C5B31714002003440A
:104B0000D4A21DE497000000E780C0858947630BAD
:104B1000F50463FAA7008D476308F5049147E31D88
:104B2000F5DA154455BB8547E318F5DA0D446DB346
:104B300097000000E78080A589476309F50263FAC2
:104B4000A7008D476306F5029147631BF5001544E6
:104B500061B385476314F5000D44BDBB0144ADBB93
:104B600001449DBB11448DBB1944BDB31144ADB389
:104B70001D449DB3197186DEA2DCA6DACAD8CED652
:104B8000D2D4AA892E8A8D472306F10097170020D8
:104B900083D74799A306F100A1832307F10081443D
:104BA000014421A005041374F40F9717002083D744
:104BB0002797FD17635AF4021319040113590901C9
:104BC000CA85171500201305659797F0FFFFE7804A
:104BD000C07769F99387140086049810BA942398D3
:104BE00024FB93F4F70F7DBFA307910093074005C3
:104BF0002310FA00130640056C004E8597B00000A4
:104C0000E78080FE0145F6506654D6544659B659A1
:104C1000265A09618280197186DEA2DCA6DA971510
:104C200000209385458D17050020130565D397B0A7
:104C30000000E780E00A6DE9AA849755000093859B
:104C4000E541171500201305E58B97D0FFFFE7809E
:104C500020602A840DCD975500009385A540171537
:104C600000201305258A97D0FFFFE780605E61C5AD
:104C7000975500009385C53F1715002013058588BB
:104C800097D0FFFFE780C05C2DED8D4479A8971782
:104C900000202389078605669305F002494597F0B1
:104CA000FFFFE7800046971700209387C78483D5CE
:104CB0000700170500201305A5CA97F0FFFFE7803E
:104CC000605B85476308F5009717002023950782EE
:104CD0008544A1A893056100280097F0FFFFE780B5
:104CE000404885679387F7F963C58700010005048D
:104CF000CDBF2C000355610097D0FFFFE780C07740
:104D0000E1B791461146C945E81097E0FFFFE780FB
:104D1000A05A3657B78700206309F700970700208D
:104D2000239B077C8D4411A085442685F65066544C
:104D3000D654096182808D44CDBF011106CE9146C3
:104D400031469305E006680097E0FFFFE780C05614
:104D50000347C1009307E0046316F7020347D1003D
:104D6000930750046314F7020347E10093077005AB
:104D70006310F7020347F10093071002630CF7007A
:104D8000054511A00545F240056182800545E5BF56
:104D90000545D5BF0145C5BF397106DE22DC26DADF
:104DA0004AD84ED67D731A919709002083D9297B62
:104DB00093D9590093F9F90F850993F9F90F01492E
:104DC0006350390713140901418093042401C2047C
:104DD000C180268597E0FFFFE780E04913040403C4
:104DE00042044180FD770567410714083697BA975A
:104DF0003EC685660146A2853E8597E0FFFFE780B7
:104E0000A04BB24605668145268597E0FFFFE78007
:104E1000604C228597E0FFFFE780E04505094DB72C
:104E2000FD74138404FF0569930709011808BA97F4
:104E30003E94C14601469305E006228597E0FFFFB8
:104E4000E78080471305E00697E0FFFFE780A04278
:104E5000930709011808BA97A6973EC6FD5732472F
:104E6000230EF7FEA30EF7FE230FF7FEA30FF7FEA8
:104E7000A286414681451305E00697E0FFFFE780E3
:104E8000604505631A91F2506254D2544259B259A6
:104E90002161828005486302050B131885011358B0
:104EA0008841630908000948630E05110D48630431
:104EB000051B8280B717004003A7870C13670708FC
:104EC00023A4E70C03A7470D3D9B23AAE70C03A7E8
:104ED000070D1367070123A8E70C03A7070C3D9BE9
:104EE00023A0E70C03A7470D1377F7F723AAE70CD6
:104EF00003A7070C1367070823A0E70C3737004008
:104F0000930770F82301F7008D47A301F70093077B
:104F10000004A300F70085472307F70037767804DD
:104F20001306068CB357B60295072946B3D7C702B6
:104F3000C207C1832316F7008280B717004003A77A
:104F4000870A1367072023A4E70A03A7470B1377F1
:104F5000F7EF23AAE70A03A7070B1367071023A895
:104F6000E70A03A7070A1377F7EF23A0E70A03A7C7
:104F7000470B1377F7DF23AAE70A03A7070A13678C
:104F8000072023A0E70A37370040930770F8230172
:104F9000F7408D47A301F74093070004A300F740B3
:104FA00085472307F740B77678049386068CB3D7F6
:104FB000B6029507A946B3D7D702C207C183231605
:104FC000F7408280B717004083A6870C3705800022
:104FD000C98E23A4D70C83A6470D3707C0FF7D17C2
:104FE000F98E23AAD70C83A6070D37064000D18E71
:104FF00023A8D70C83A6070C758F23A0E70C83A6E4
:10500000470D370680FF7D16F18E23AAD70C03A724
:10501000070C498F23A0E70CB7460040930770F8B0
:105020002381F6808D47A381F68093070004A38037
:10503000F68085472387F680377778041307078C37
:10504000B357B70295072947B3D7E702C207C18311
:105050002396F6808280B717004003A7870A13675C
:10506000070223A4E70A03A7470B3D9B23AAE70AED
:1050700003A7070B1367070123A8E70A03A7070A7B
:105080003D9B23A0E70A03A7470B1377F7FD23AA4D
:10509000E70A03A7070A1367070223A0E70A3747AF
:1050A0000040930770F82301F7C08D47A301F7C0B4
:1050B00093070004A300F7C085472307F7C0B7771D
:1050C00078049387078CB3D7B7029507A946B3D75F
:1050D000D702C207C1832316F7C08280011106CE12
:1050E00022CC26CA4AC84EC62A892E84B2849790FA
:1050F0000000E780800125C181498547630EF906DC
:1051000093178901E1878DC789476305F90A8D47A0
:105110006300F90E63F28910014535A803C7040046
:10512000B73700402384E7007D14420441808504A2
:1051300015C0B737004083C7B70093F7F70F214773
:10514000E388E7FE81471307700CE349F7FC010091
:105150008507D5BF0545F2406244D2444249B24971
:105160000561828003C70400B73700402384E7400D
:105170007D1442044180850415C0B737004083C7C1
:10518000B74093F7F70F2147E388E7FE81471307FE
:10519000700CE349F7FC01008507D5BF4A8565BF60
:1051A00003C70400B74700402384E7807D1442040E
:1051B0004180850415C0B747004083C7B78093F787
:1051C000F70F2147E388E7FE81471307700CE34997
:1051D000F7FC01008507D5BF0545B5BF03C704002F
:1051E000B74700402384E7C07D1442044180850412
:1051F00015C0B747004083C7B7C093F7F70F2147E3
:10520000E388E7FE81471307700CE349F7FC0100D0
:105210008507D5BF054581B7054535BF0547630AF5
:10522000E50213178501618709CB0947630FE50282
:105230000D476308E5043E85828085472380F5009D
:10524000B737004003C7570083C7870093F7F70FAE
:10525000DDB785472380F500B737004003C75740C7
:1052600083C7874093F7F70FF9B785472380F50089
:10527000B747004003C7578083C7878093F7F70F6E
:105280005DBF85472380F500B747004003C757C07F
:1052900083C787C093F7F70F79BF411106C622C4B1
:1052A0002A8497900000E78040E611CD854763058A
:1052B000F40493178401E18799CB89476309F406C5
:1052C0008D47630AF408B240224441018280B73717
:1052D000004003C7170013675700A380E70003C708
:1052E0000700136787002380E700B7E700E0370770
:1052F000000423A0E710C1BFB737004003C7274011
:105300001367070C2381E74003C717401367570053
:10531000A380E74003C70740136787002380E74067
:10532000B7E700E03707000823A0E71069BFB747D9
:10533000004003C7178013675700A380E78003C7A7
:105340000780136787002380E780B7E700E00947FD
:1053500023A2E7108DBFB747004003C717C01367EC
:105360005700A380E7C003C707C0136787002380E7
:10537000E7C0B7E700E0114723A2E710A9B7411142
:1053800006C622C42A8497900000E78000D811CD79
:1053900085476306F40293178401E18799CB894717
:1053A0006305F4028D476308F402B24022444101D0
:1053B0008280B737004003C547003D89FDB7B73746
:1053C000004003C547403D89CDB7B747004003C5FE
:1053D00047803D89D9BFB747004003C547C03D89D5
:1053E000E9B7411106C622C426C22E84939705014F
:1053F000C18763C7070293F71500B1E393F7250050
:10540000A9EF93F74500A5EB93F78500C9EB93F758
:105410000502DDEF0145B240224492444101828001
:1054200097100000E780203209C597100000E78040
:10543000C02E6175298C131504014181E9BF130643
:10544000803E8945170500200345459997100000C7
:10545000E780E074134514007DBF1306803E894544
:10546000170500200345859797100000E7802073FB
:10547000134514004DB797300000E780602A93066B
:10548000F00F1306F00FA94517050020130545F589
:1054900097300000E780A0CA13454400ADBF9730A5
:1054A0000000E780E0279705002083C5359381E55C
:1054B000134584008DB79306F00F1306F00F170500
:1054C00000201305E58197300000E780009BCDB7F1
:1054D00017550000130505BC97100000E7808020D9
:1054E000970400209384E4F083D50400175500004E
:1054F000130545BB97100000E780C01E97F7FF1FFC
:105500009387077E130730052380E70013073004D5
:10551000A380E70003D70400935687002381D700B8
:10552000A381E70023820700A382070023830700EB
:1055300013078004A383E700A14717070020A30FE8
:10554000F788A145170500200345458997100000FD
:10555000E780C05017550000130505B697100000EE
:10556000E7804018134504027DB5797106D622D430
:1055700026D24AD04ECE52CC56CA5AC82A84834428
:1055800015009707002083C7D7F605476380E70417
:1055900005476381E71A17070020034767E585473A
:1055A0006309F7268347240013072005638BE72E42
:1055B00013076004638BE752B2502254925402598D
:1055C000F249624AD24A424B4561828083462500B5
:1055D00013073005E39EE6FA8346350013073004CF
:1055E000E398E6FA33079500834617001307800413
:1055F000E390E6FA83474500A207034955003E9928
:1056000042091359090183476500139787008347AF
:105610007500BA979399070193D90901CA8517555F
:105620000000130525AA97100000E780A00B97F74C
:10563000FF1F2393072C9707002083D7E7E0638F92
:105640002703E3FB27F7E3F9F9F63309940003474F
:105650000900E373F7F617550000130565A89710C6
:105660000000E780200897F7FF1FA38997768347FC
:10567000090085072300F90081474DA01755000058
:10568000130545A597100000E780C00597F7FF1F99
:1056900093870765130730052380E70093065005BD
:1056A000A380D700930630042381D700A381D700BD
:1056B000930650042382D700A382E7002383E700E8
:1056C00017070020035747D893568700A383D700B6
:1056D0002384E700A3840700A94717F7FF1FA30F40
:1056E000F76EFD5717070020232EF7E6A14517F5A3
:1056F000FF1F0345A56E97100000E78020366DBDA3
:105700003307F4008346270017F7FF1F1307475D91
:105710003E972300D700850793F7F70FE3E297FE44
:10572000A14517F5FF1F0345656B97100000E78043
:10573000E03259B50347240093073005E31DF7E431
:105740000347340093075005E317F7E40347440089
:1057500093073004E311F7E403475400E31DF7E235
:105760000347640093075004E317F7E2034774000C
:1057700093073005E311F7E203478400E31DF7E0E8
:1057800083479400139787008347A400BA97C20702
:10579000C18317F7FF1F23110716170700200357B0
:1057A000A7CAE37BF7E0175500001305659497102F
:1057B0000000E78020F397F7FF1FA38197628147DE
:1057C00039A83307F4008346270017F7FF1F130794
:1057D00027513E972300D700850793F7F70FE3E2A1
:1057E00097FE17070020035727C697F7FF1F9387D9
:1057F000274F93568700A383D7002384E700A14552
:1058000017F5FF1F0345855D97100000E780002511
:1058100065B30347240093073005E315F7D8034722
:10582000340093075005E31FF7D60347440093075E
:105830003004E319F7D603475400E315F7D60347BE
:10584000640093075004E31FF7D4034774009307E1
:105850003005E319F7D403478400E315F7D417554F
:1058600000001305258A97100000E780A0E7970540
:10587000002083D505B8175500001305A58997109A
:105880000000E78020E6854717070020A304F7C63D
:10589000170700202302F7C617070020230CF7B4D0
:1058A00021BB330794008346170013076004E3917C
:1058B000E6D097F7FF1F239107049707002083D7AF
:1058C000A7B8E38B07CE175500001305A5859710E1
:1058D0000000E78020E1930580081305340097D08D
:1058E000FFFFE780E0A88347B4081397870083474A
:1058F000C408BA97C207C1836313F508034944007B
:10590000931A090193DA0A01834754001397870019
:1059100083476400BA97C207C1831707002023108A
:10592000F7C4CA89130B1900BE846303FB06CA853A
:10593000175500001305858197100000E78080DA75
:10594000170A0020130A0AC283250A00175500000F
:105950001305058197100000E780C0D883270A004F
:1059600063CF3703638AF916E3D8F9C417550000EB
:105970001305C58797100000E780C0D635B91745D5
:1059800000001305E57A97100000E780A0D52DB13F
:105990009307807017F7FF1F2310F7F649BF1745CD
:1059A00000001305257D97100000E780A0D393DA4F
:1059B0005A009379F9016387090A9306B400130624
:1059C00000089395790013850A0397E0FFFFE780AD
:1059D0006090170700201307E7B81C4385071CC316
:1059E00063099B08174500001305457F97100000C9
:1059F000E78040CF17F4FF1F1304842E9307600441
:105A00002300F400A30004002301240197070020D1
:105A100083D787A313D78700A301E4002302F400F0
:105A2000914517F5FF1F1305B52B97D0FFFFE780B2
:105A3000209493578500A302F4002303A400930746
:105A40002005A303F400A14717F7FF1FA308F738A9
:105A5000A14517F5FF1F0345653897100000E78043
:105A6000E0FF99BE13850A0397E0FFFFE780A0805F
:105A7000A9B797F4FF1F938444E817F4FF1F13049A
:105A800004E7C14603D60400834504000A8597E075
:105A9000FFFFE78060820345040097D0FFFFE780A7
:105AA000807D9307E0042306F10093075004A306CA
:105AB000F100930770052307F10093071002A30775
:105AC000F1008A86414683D504000345040097E02F
:105AD000FFFFE780208039B7174500001305856C6C
:105AE00097100000E78000C0F5BDB307940003C71E
:105AF000170093072005E311F7AC83475400139771
:105B0000870083476400BA97C207C18317F7FF1F56
:105B1000231407DE17070020035707930DC3E37D07
:105B2000F7A8174500001305E57497100000E780FB
:105B300060BB97F7FF1FA383972A8147D9A8174512
:105B400000001305656D97100000E780A0B991452E
:105B50001305340097D0FFFFE780808183477400EE
:105B60001397870083478400BA97C207C183630BEA
:105B7000F500174500001305A55B97100000E780AE
:105B800060B61DBC83473400A207034444003E9422
:105B900042044180A285174500001305A5689710AF
:105BA0000000E78020B497F7FF1F83D7C7D4638E28
:105BB0008700E373F4A0A2851745000013058569EB
:105BC00097100000E78000B2C5BA17450000130522
:105BD000256797100000E780E0B017F7FF1F130755
:105BE00087D18357070085072310F7009707002008
:105BF00023880796D1B23307F4008346270017F7AE
:105C0000FF1F1307E70D3E972300D700850793F783
:105C1000F70FE3E297FE170700200357E78293563A
:105C2000870097F7FF1F9387A70BA381D7002382D5
:105C3000E700A14517F5FF1F0345451A971000001F
:105C4000E780C0E195BA411106C622C426C22E845F
:105C5000B2848947630DF50463F2A7028D4763019F
:105C6000F50691476310F504914517F5FF1F0345AD
:105C7000E51697100000E78060DE2DA085476313CE
:105C8000F50297300000E780A0A99306F00F1306F5
:105C9000F00FA94517F5FF1F130585749720000025
:105CA000E780E049B2402244924441018280FDF9FC
:105CB00083C71400E378F4FE05041374F40FCDBF1A
:105CC000174500001305853B97100000E78080A171
:105CD0007D141374F40F854763F1870226859700BE
:105CE0000000E780C088914517F5FF1F0345050FA9
:105CF00097100000E78080D675B7010017450000B7
:105D00001305853897100000E780C09DE9BF411159
:105D100006C622C42E841C420547638CE70009474F
:105D2000638EE7001C4085071CC0B240224441013D
:105D300082805C42620561858297EDB71C462380B4
:105D4000A7001C4685071CC6F1BF130715002300DA
:105D500005001DCE9C4199C3014505A09307000392
:105D6000A300F5000545828093050003B387F54045
:105D70002300F70005050507B28791CB33C6D7028C
:105D8000B3E7D702E3C207FE93870703D5B7828044
:105D90009C4191EF93070003A300F5000545828025
:105DA000938777032300F70005060507AE8781CFA9
:105DB000B3D5D7023385B602898F2545E362F5FE58
:105DC00093870703C5B732858280011106CE22CCA6
:105DD00026CA4AC84EC62A84AE84B2893689635C14
:105DE00094004A86CE851305000397000000E780E3
:105DF00040F20504EDB7F2406244D2444249B24950
:105E000005618280011106CE22CC26CA4AC84EC640
:105E10002A84AE84B2893689635C94004A86CE8532
:105E20001305000297000000E780A0EE0504EDB71F
:105E3000F2406244D2444249B24905618280411134
