:020000021000EC
:042000006F1000005D
:1020040000800020000000006F0080086F0080083E
:1020140000000000000000000000000000000000BC
:1020240000000000000000000000000000000000AC
:102034006F008006000000006F00400600000000F2
:102044006F0000066F0000066F0000066F000006B8
:102054006F0000066F0000066F000006000000001D
:102064006F00C0056F00C0056F00C0056F00C0059C
:102074006F00C0056F00C005000000006F00800500
:102084006F0080056F0080056F0080056F0080057C
:102094006F0000006F0000006F0000006F00000080
:1020A4006F0000006F0000006F0000006F00000070
:1020B4006F0000006F0000006F0000006F00000060
:1020C4006F0000006F0000006F0000006F00000050
:1020D4006F0000006F0000006F0000006F00000040
:0820E4006F0000006F00000016
:103000009731FF1F938101E81751FF1F130181FFC3
:1030100017050000130505FF9725FF1F9385855EA3
:103020001726FF1F1306065E63FCC50083220500FA
:1030300023A055001305450093854500E3E8C5FE30
:1030400017350000130585219725FF1F938585639C
:103050001726FF1F1306066363FCC50083220500C5
:1030600023A055001305450093854500E3E8C5FE00
:103070001725FF1F130505619725FF1F9385C56061
:103080006378B5002320050013054500E36CB5FE09
:10309000B72200009382028873A00230EF00607CA8
:1030A00097F2FFFF938242F693E212007390523040
:1030B000970200009382820B7390123473002030C9
:1030C0003D432A876373C3029377F700BDEFADE5F5
:1030D000937606FF3D8ABA960CC34CC30CC74CC707
:1030E0004107E36BD7FE11E28280B306C3408A0634
:1030F0009702000096966780A6002307B700A306F4
:10310000B7002306B700A305B7002305B700A30443
:10311000B7002304B700A303B7002303B700A3023B
:10312000B7002302B700A301B7002301B700A30033
:10313000B7002300B700828093F5F50F93968500C2
:10314000D58D93960501D58D61B79396270097028B
:10315000000096968682E78086FA9680C1171D8FBA
:103160003E96E374C3F8A5B7197186DEA2DCA6DA31
:10317000CAD8CED6D2D4D6D2DAD0173500001305AD
:10318000E5B697100000E780E03217350000130520
:1031900065B997100000E780E0311735000013058E
:1031A00025BC97100000E780E030173500001305BC
:1031B000E5BE97100000E780E02F173500001305EB
:1031C000A5C197100000E780E02E17350000130519
:1031D00065C497100000E780E02D17350000130547
:1031E00025C797100000E780E02C17350000130575
:1031F000E5C997100000E780E02B173500001305A4
:10320000A5CC97100000E780E02A173500001305D1
:1032100025AA97100000E780E029231F01009307EB
:1032200010042300F10093072004A300F10093078A
:1032300030042301F10093074004A301F100930738
:1032400050042302F10093076004A302F1009307E6
:1032500070042303F10013070002A303E1009306A7
:1032600040072304D1009307F006A304F1002305CF
:10327000E10013063005A305C1002306F100A306F3
:10328000F100130630062307C10013068006A307CA
:10329000C1002308F10093077007A308F100230978
:1032A000E10093075005A309F1009307E006230A04
:1032B000F10093079006A30AF10013076007230BA0
:1032C000E10013075006A30BE10013072007230CAE
:1032D000E10013073007A30CE100230DF100A30D5B
:1032E000D10093079007230EF10093071002A30E5D
:1032F000F100A14273B00230014685451305E0108C
:1033000097000000E780C04297000000E78040146B
:10331000A14273A002301305400697000000E78029
:103320002015973600009386E6BD130600028145FE
:103330001305400697000000E780E028930600028E
:10334000014693054006880097000000E780A0141E
:10335000900093054006173500001305A5BC971093
:103360000000E78020151305400697000000E78065
:1033700020100A86930500023745060097000000DA
:10338000E780203113060002B745060008109700B9
:103390000000E780A01210109305400617350000CA
:1033A000130545BB97100000E780C0108565130525
:1033B000400697000000E78060122A8693054006C9
:1033C00017350000130585BC97100000E780800EBC
:1033D00081441307100437891E001304C004973971
:1033E00000009389A9C1173B0000130BEBBD973A6E
:1033F0000000938AAABE130A100431A8854513055C
:10340000E01097000000E780802B4E8597100000A9
:10341000E780400A228793071948FD17FDFFE31F45
:1034200087FC81451305E01097000000E780202904
:103430005A8597100000E780E0078504A685568529
:1034400097100000E78000075287F1B7411106C6C8
:103450009727FF1F938707239C43FC57814601460C
:10346000814521458297B24041018280411106C6C3
:103470009727FF1F938707219C43FC5785660146CA
:103480009315C500054582971375F50FB2404101AC
:1034900082808D068982B2052E9691CE8A06AA96E2
:1034A000AA873305A6403387A7009107184323AEA8
:1034B000E7FEE39AD7FE82800D06098609CEAA8729
:1034C0000147898DB386B7009107944223AED7FE9A
:1034D0000507E319E6FE8280411106C622C426C212
:1034E0004AC00008AE849387F500918392073301A8
:1034F000F1402E869315C5000A8597200000E780CD
:10350000806EC1C80A8901470545130ED00B13030D
:10351000900A89459308900F0D461308500F29A86B
:10352000B307E90083C7070063976706050793178A
:103530000701C18363F69704937737006382A7027C
:1035400093960701C186E9DE6384B702E390C7FE64
:10355000B307E90083C70700E38A07FD014515A00B
:10356000B307E90083C70700E382C7FD014511A83F
:10357000B307E90083C70700E38A17FB014511A0E1
:103580000545130104FFB24022449244024941011F
:1035900082800545FDB70145EDB7411106C6368766
:1035A00032059727FF1F9387E70D9C43FC57B28690
:1035B0003A86AA95094582971375F50FB2404101E5
:1035C0008280797106D622D426D24AD04ECE7D731F
:1035D0001A91AA892E89B28436843307B60085678A
:1035E00063D6E70405660D8E42064182970000000F
:1035F000E78060FD8566B38626417D7626964A96ED
:1036000013851900A29642064182814542054181F7
:1036100097000000E78020FB014505631A91B25036
:10362000225492540259F2494561828085660146CE
:10363000AA857D7585671808BA973E9597000000A2
:10364000E78060E585C8A2877D7785661008B29619
:1036500036973AC6B305270105049386F4FFC206E0
:10366000C182A29603C707002380E5008507850570
:10367000E39AD7FEFD7685671808BA97BE96056669
:1036800081454E8597000000E78060F171B74111D8
:1036900006C69357C500C207C1831397C700198D8B
:1036A000B2862E8693150501C1813E8597000000E4
:1036B000E78060F1B2404101828093578500137525
:1036C000F50F89C70547638BE70282808547638DC5
:1036D000F500371700408326C70A85473395A700B2
:1036E000558D2326A70A8280371700408326870A34
:1036F0003395A700558D2324A70A82808547638DC3
:10370000F500371700408326C70C85473395A7007F
:10371000558D2326A70C8280371700408326870CFF
:103720003395A700558D2324A70C8280411106C62E
:10373000935785009376F50F99C70547638EE70287
:10374000B2404101828085476389F500B717004088
:1037500003A7070A23A0E70AE5B737170040832528
:10376000070AB396D700CD8E2320D70AB2859700DB
:103770000000E780C0F4E9B785476389F500B71713
:10378000004003A7070C23A0E70C5DBF37170040DC
:103790008325070CB396D700CD8E2320D70CB28596
:1037A00097000000E780A0F161BFB1476305F50213
:1037B000B9476307F5086D4781476311E50817F8B6
:1037C000FFFF1308E8909727FF1F9387A7EB9C4301
:1037D000B05FB85921A817F8FFFF1308688C972726
:1037E000FF1F938727EA9C43B05BD85963460706BF
:1037F00093579700856693860680F58FB7F60F007E
:10380000B375D700CD8F51831377E77FD98F3306F8
:103810000641B2971395B70037070080798D13974B
:10382000970037061000718F598DFD8E558DD20788
:103830003707E07FF98FC98F93E7F7063E858280CF
:1038400017F8FFFF130808869727FF1F938787E362
:103850009C43F05BD85D59BF05050A052E951C41B8
:10386000F1BF6D7123261110C1671727FF1F232B8E
:10387000F7E0930600100146C9450A85970000004D
:10388000E78060C1494597000000E78060BE8A85F7
:103890006D4597000000E78080F1AAD88A8613065C
:1038A00000108145494597000000E780C0D11725E9
:1038B00000001305E57597100000E780A0BF832086
:1038C000C110516182800D476364A71005476308EA
:1038D000E50613178501618749CB0947630BE502AC
:1038E0000D47631FE50AB747004083C757C093F7EA
:1038F0000702E9EB854737460040C1669386B6BBB1
:10390000034756C0137707025DEF8507E39AD7FE9A
:1039100041A8B747004083C7578093F70702C9EF14
:10392000854737460040C1669386B6BB034756803D
:103930001377070259E38507E39AD7FE95A0B737B7
:10394000004083C7574093F70702ADE385473736FA
:103950000040C1669386B6BB034756401377070203
:1039600039E78507E39AD7FE25A8B737004083C714
:10397000570093F7070285E3854737360040C16655
:103980009386B6BB034756001377070211E78507F6
:10399000E39AD7FE31A08147373700402304B700B0
:1039A00041651305B5BB33B5A70082808147373722
:1039B00000402304B740EDB7814737470040230458
:1039C000B780F9BF8147374700402304B7C0C9BF5C
:1039D00001458280411106C622C42E841C4205473F
:1039E000638CE7000947638EE7001C4085071CC015
:1039F000B2402244410182805C4262056185829727
:103A0000EDB71C462380A7001C4685071CC6F1BFE6
:103A100093071500230005001DCE984113080003ED
:103A200015E393070003A300F50005463285828065
:103A30003306E8408507A38FC7FE1386F7FF098E7C
:103A40002E87EDD5B345D7023367D7021306070398
:103A5000E35207FEF1BF98413683A54805E393077B
:103A60000003A300F5000546D1B78507A38FB7FE75
:103A70001386F7FF098EE36B67FA42873358D70244
:103A80003376D70293057603E3E1C8FE9305060378
:103A9000E9BF011106CE22CC26CA4AC84EC62A84E6
:103AA000AE84B2893689635DB5004A86CE8513053A
:103AB000000297000000E78020F20504E39784FEEF
:103AC000F2406244D2444249B249056182804111C8
:103AD00006C69375F50F054597000000E780E0DE08
:103AE000B24041018280130101C8232E1136232CDC
:103AF0008136232A91362328213723263137232460
:103B000041372322513723206137232E7135232C4F
:103B10008135232A91352328A1352326B1352A84DE
:103B20002E8B328C130600198145081B97F0FFFF7E
:103B3000E7804059130600198145081097F0FFFFF0
:103B4000E7804058444000402285A6859720000029
:103B5000E780E0DEAA8CAE8BAA8A2E8A972000002E
:103B6000E780C0E72A86AE862285A68597100000EA
:103B7000E78080682A84AE8463060C02130DFCFF84
:103B8000972700009387875803A9070083A9470058
:103B9000FD5D4A86CE8697100000E78060197D1D86
:103BA000E319BDFF97200000E78060D92ACEAE8DD3
:103BB0002A8DAE89972700009387C7559043D44339
:103BC0002285A68597100000E780200B635E050E16
:103BD000014681462285A68597100000E7804003B4
:103BE00001496DC5972700009387475203A84700F6
:103BF0009C433EC842CA972700009387A75103A859
:103C000047009C433EC442C64246D2462285A68512
:103C100097100000E780C0112A84AE84050922466F
:103C2000B24697100000E7804005635B050001463F
:103C300081462285A68597100000E78060FD69F522
:103C4000B3EB9B0163960B08930700032300FB0073
:103C5000854413841400B3079B001307E0022380FC
:103C6000E7007247B3EDED00639A0D0C630D0C0095
:103C700033078B01BA9413070003A380E70085077D
:103C8000E39DF4FE6294229B23000B002285832097
:103C9000C13703248137832441370329013783291E
:103CA000C136032A8136832A4136032B0136832B02
:103CB000C135032C8135832C4135032D0135832DEE
:103CC000C13413010138828001499DBF01498DBF74
:103CD000930C011B6684814B21A0AA8A2E8AA68B95
:103CE00093841B00294681465685D2859710000093
:103CF000E78020B908C0294681465685D2859700BD
:103D00000000E780807E1104E3190AFC63150A00B5
:103D1000A547E3E457FD95DC8A0B1C1BBE9B5A8725
:103D200011A0BE8B83A70B00938707032300F70026
:103D30009387CBFF0507E3969BFF21BF130A010280
:103D4000D28A8144A54B19A02A8DAE8985042946C3
:103D500081466A85CE8597100000E78080B223A057
:103D6000AA00294681466A85CE8597000000E78033
:103D7000C077910AE39A09FC63940900E3E6ABFD7E
:103D8000630F0900939724001810BA97CA941397E9
:103D90002400529723A007009107E39DE7FEE384E8
:103DA00004EE939724009806BA979387C7CDB3067D
:103DB0008B0011A0BA879843130707032380E600FE
:103DC0001387C7FF8506E317FAFE26946DBD75714C
:103DD00006C722C526C34AC1CEDED2DCD6DADAD87F
:103DE000DED6E2D4E6D2EAD0EECE2A8A02D602D8D5
:103DF00002DA02DC02DE82C082C282C4230601042F
:103E0000930700032306F10202D403850500630132
:103E100005682E8BB28B054D814C172400001304CE
:103E20002422172C0000130CEC2535A052862C10F0
:103E3000354597000000E78020BA52862C102945AE
:103E400097000000E78040B9DA8A138B1A000385D7
:103E50001A00630F056293075002630DF500A9472E
:103E6000E306F5FC52862C1097000000E780C0B6F0
:103E7000DA8AE1BF8144414621A093E41400368BE5
:103E800093061B0083471B00811713F7F70F636C22
:103E9000E60893172700A2979C43A297828793E492
:103EA0002400F1BF93E44400D9BF93E48400C1BF70
:103EB00093E40401E9B7931729003E9906093A995A
:103EC000368B93061B0003071B00130707FDE374E3
:103ED000E6FE03071B009307E0026309F70481492C
:103EE000014D93061B0083071B0013078006638A9E
:103EF000E7061307C006638EE7041307C004638E4A
:103F0000E704930A1B0003051B00930785FA93F649
:103F1000F70F130700026367D74C93972600E297C9
:103F20009C43E29782870149254661BF368B8149D0
:103F3000254639A093972900BE998609BA99368BF0
:103F400093061B0003071B00130707FDE374E6FE3F
:103F500049BF93EC1C00368B6DB793EC2C00368B6D
:103F60004DB7368B79BF93874B003EC683A70B00B6
:103F70003ED2A94605464C10681097000000E78025
:103F800060A92A8B7C10B389A700925763CA0700E7
:103F900093F724008DCF130B1500930DB00229A0C9
:103FA000130B1500930DD00293F7840095EB93F754
:103FB0001400638E074AB24B638D0D2852862C1075
:103FC0006E8597000000E78020A1B24B59A493F7BB
:103FD000440063860746130B1500930D0002E9B7F2
:103FE00052862C106E8597000000E780E09E635992
:103FF0002B3352862C101305000397000000E78036
:10400000A09D050BE3172BFF4A8BB24BE9A4138B42
:10401000CB0083AD4B0083AB8B006ECC5ECE0146F4
:1040200081466E85DE8597100000E78000C5634EEF
:10403000050093F72400930BB00285E393FB440043
:10404000638D0B00930B000209A86ECCB7070080AC
:10405000B3C777013ECE930BD002631C0D0663936A
:104060000C0819466C10280897000000E780E0A7AC
:10407000AA8993F78400C1CB639F0B0663DD2901F6
:1040800052862C101305000397000000E780C094AF
:104090008509E39729FF0305C102CA8909CD930B5E
:1040A000C102850B52862C1097000000E780C09259
:1040B00003850B007DF58588DA8BE38804D8D286EA
:1040C0003010CA854E8597000000E780C09CDA8BCF
:1040D000ADBB4E866C10280897000000E780E0A07A
:1040E000AA8941BF19466C10280897000000E78094
:1040F000C09FAA89BDBF52862C105E859700000024
:10410000E780808DA5BF93F7140099C7639D0B02CC
:104110000305C10249F565B7D2863010CA854E85C0
:1041200097000000E780209763970B000305C1020A
:10413000DA8B35F519BB52862C105E85970000008E
:10414000E7808089E5B752862C105E8597000000D5
:10415000E780808875BF938D4B0083A70B003ECA14
:10416000C14601464C08681097000000E780808A2D
:104170002A8B7C10B389A70093F78400A5C393FB17
:10418000040163980B025EC6635B252952862C10DE
:104190001305000397000000E7800084050BE34748
:1041A0002BFF63850B184A8BEE8BB2476395071282
:1041B000A1A452862C101305000397000000E7808D
:1041C000A08152862C101305800797000000E7801D
:1041D000A080635A2B1585473EC64DBF93F7140048
:1041E0006399072093F70401638E0722130B2500C0
:1041F000D2863010CA855A8597000000E780A089D2
:1042000052862C101305000397F0FFFFE780C07C57
:1042100052862C101305800797F0FFFFE780C07BC4
:1042200009AC93894B0083A70B003ECAA146014607
:104230004C08681097F0FFFFE780C07D2A8BCE8B7B
:104240007C10B389670193F78400A5EB93F7140002
:10425000C5CF0385090059E179A893894B0083A74D
:104260000B003ECA894601464C08681097F0FFFFD4
:10427000E780407A2A8BCE8BE1B793894B0083A7E6
:104280000B003ECAC14601464C08681097F0FFFF7C
:10429000E78040782A8BCE8B65B793894B0083A744
:1042A0000B003ECAA94601464C08681097F0FFFF74
:1042B000E78040762A8BCE8B61B7635C2B075286F2
:1042C0002C101305000397F0FFFFE780E070050B4B
:1042D000E3172BFF4A8B0385090019C9FD19528684
:1042E0002C1097F0FFFFE780206F038509007DF514
:1042F0008588E38C04B4D2863010CA855A8597F03D
:10430000FFFFE780407991B6D2863010CA855A8582
:1043100097F0FFFFE78020780385090061F135B64B
:104320004A8BB24B4DBF4A8BEE8B75B74A8BEE8BE7
:104330005DB74A8B4DB793844B0052862C10038592
:104340000B0097F0FFFFE7802069A68BFDBC938DE3
:104350004B0003AB0B00EE8BE3090BAE5A859720A5
:104360000000E780A0932AC6858885CC6393090462
:1043700003050B0019C9050B52862C1097F0FFFF9F
:10438000E780806503050B007DF5EE8BE38F04AAC3
:10439000D2863010CA85324597F0FFFFE780A06FC4
:1043A0006DB4D2863010CA8597F0FFFFE780A06E0B
:1043B00075BFE35C30FD03050B0061D9DA99050B8D
:1043C00052862C1097F0FFFFE7800061E30F3BFB64
:1043D00003050B006DF555BF83A70B00225798C34B
:1043E000910BA5B452862C1097F0FFFFE780C05EBA
:1043F000A9BC93F70401B5C752862C10130500031E
:1044000097F0FFFFE780405D52862C101305800770
:1044100097F0FFFFE780405C090BEE8B6DBD4A8B88
:10442000EE8B55BDD2863010CA8597F0FFFFE7802E
:10443000806603850900EE8BE31205EA39B493FD2B
:104440008400E3960DBA93F71400E39607B6D2867C
:104450003010CA855A8597F0FFFFE780C063B24BE2
:1044600065BD03850900EE8BE31A05E669B5D286C2
:104470003010CA855A8597F0FFFFE780C0615286E9
:104480002C106E8597F0FFFFE7800055B24B69B5A1
:104490002255BA402A449A440A49F659665AD65ACD
:1044A000465BB65B265C965C065DF64D4961828094
:1044B000397106CE2ED232D436D63AD83EDA42DC24
:1044C00046DE85473EC097F7FFFF938787603EC271
:1044D000501032C6AA850A8597000000E780608FD9
:1044E000F24021618280B687B2882A832E88639D3C
:1044F000061463F9C50A4167636EE61AB70700013F
:104500006363F63493568601E147172700001307CB
:10451000E7C4369703470700BA97130700021D8FB9
:1045200019CB3398E500B357F500B318E60033E82C
:1045300007013313E50013D608013355C8029396DB
:104540000801C182935703013377C802B385A602DD
:1045500042073368F700637AB80046989307F5FF7F
:10456000636418016367B8303E853308B840335739
:10457000C8024203135303013378C802B386E6022C
:10458000420833686800637BD80046989307F7FFBA
:104590006365180179176363D8003E874205598D1A
:1045A0008145828001E60547B358C702416763EA47
:1045B000E80EB707000163ECF82893D68801E147BD
:1045C00017270000130787B9369783460700BE9662
:1045D00093070002958FE5EB939E08013387154101
:1045E00013DF080193DE0E01854593570301335510
:1045F000E7033377E703B306D5034207D98F63FA9E
:10460000D700C6971307F5FF63E4170163E6D726C3
:104610003A85958F33D7E703420313530301B3F76A
:10462000E703B30ED703C207B3E7670063FBD70105
:10463000C6979306F7FF63E51701791763E3D70180
:1046400036874205598D828063E2D504C16763E2F3
:10465000F604B707000163E4F61E13D7860161482C
:1046600097270000938787AFBA9703C70700130EF9
:1046700000024297330EEE40631A0E0C63EDB61C37
:104680003335C500134515008145828081450145BC
:1046900082809307F00F63F3D71C13D7860021485D
:1046A000C1B71307F00FC686E37C17F193D68800D5
:1046B000A14739B71307F00FB286E378C7E49356E2
:1046C0008600A14799B5B398F80033D6D50013DF1B
:1046D0000801335EE6033397F500B356D500558FD6
:1046E000939E080193DE0E013313F50093550701E5
:1046F000B376E603B387CE03C206CD8E63FBF60026
:10470000C6961306FEFF63E4161763F2F616791ECB
:10471000C6969D8E33D6E60393170701C183B3F681
:10472000E6033385CE02139706015D8F637BA700F6
:1047300046979307F6FF636817136376A7127916F7
:10474000469793150E01098FD18D45B5B357E600F5
:10475000B396C601DD8E33D3E50013DF0601B357F0
:10476000E303939E060193DE0E013398C501335790
:10477000E50033680701935808013316C601337307
:10478000E303B385FE024203B368130163FBB80081
:10479000B6981387F7FF63EAD80C63F8B80CF917DB
:1047A000B698B388B84033D7E803420813580801D5
:1047B000B3F8E8033383EE02C208B3E5080163FBF4
:1047C0006500B6951308F7FF63EDD50863FB650830
:1047D0007917B695C207416FD98F1307FFFFB3F65C
:1047E000E70093D80701718F4182B38EE602B3854B
:1047F0006540B386C60213D80E013387E802BA9625
:10480000C2963386C80263F3E6007A9693D806010F
:10481000469663E2C5026385C5003E858145828078
:1048200041677D17F98EC206B3FEEE003315C50150
:10483000F696E374D5FE1385F7FF8145828013D782
:104840000601414831BD93560601C1477DB993D653
:104850000801C147B5B381450545828036870148C7
:1048600001B5428785BF3E86E9BDBA871DBF328E3E
:104870004DB579154698D5B97915C69759BBB68700
:1048800032882A832E872E8E6393061463F1C50A1D
:1048900041676378E61A1307F00FB2866375C700A5
:1048A00093568600A147172700001307278B3697DA
:1048B0000347070093080002BA97B388F840638C57
:1048C0000800B3951501B357F5003318160133EE00
:1048D000B7003313150113560801B357CE02131551
:1048E0000801418193560301337ECE02B307F502DE
:1048F000420E3367DE006378F70042976365070175
:104900006373F70042971D8FB356C70293170301D5
:10491000C1833377C7023305D5024207D98F63ECD1
:10492000A7083385A740335515018145828001E6EC
:1049300005473358C7024167636CE80EB7070001AB
:104940006365F82A93568801E1471727000013078B
:10495000E78036970347070093080002BA97B388A9
:10496000F840639A081E131E0801B38505411356CB
:104970000801135E0E0113570301B3D6C502B3F548
:10498000C502B386C603C2054D8F6377D700429731
:1049900063640701636AD726158F3355C702420344
:1049A000135303013377C7023305C5034207B367C7
:1049B000670063F8A700C29763E5070163F3A700E8
:1049C000C2973385A74033551501814582802A88D7
:1049D000E3EED5F4C16763E5F604B707000163E2CF
:1049E000F62013D38601E1489717000093870777D5
:1049F0009A9703CE070013030002469E3303C34178
:104A00006319030463E4B6006369C5003308C54055
:104A1000958D333705013387E5404285BA8582801D
:104A20009307F00F63FBD71C13D38600A1486DBF1B
:104A30001307F00FC286E37A07F193568800A14767
:104A400029B7B70700016366F61A93568601E14756
:104A500099BDB357C601B3966600DD8EB3D8C501C4
:104A600013D70601B3DEE802139F0601B357C50151
:104A7000135F0F01B3956500DD8D13D80501331663
:104A8000660033156500B3F8E802B307DF03C20818
:104A900033E80801637BF80036989388FEFF636370
:104AA000D8166371F816F91E36983308F840B357D4
:104AB000E802C205C1813378E802330FFF02131701
:104AC00008014D8F637BE70136979385F7FF636994
:104AD000D7126377E713F9173697C20EC162B3EEA8
:104AE000FE001388F2FFB3F80E019355060193DE22
:104AF0000E0133780601B38F08033307E74133888B
:104B00000E0393D70F01B388B802C298C697B38E2D
:104B1000BE0263F30701969E41687D1893D5070195
:104B2000B3F70701C207B3FF0F01F695FE97636263
:104B3000B70A630EB708B307F5403335F500B30580
:104B4000B740898D339EC50133D567003365AE000C
:104B5000B3D5650082803318180133D7F50013569A
:104B60000801B356C702131E0801B357F500135EC0
:104B70000E01B3951501DD8D93DE0501331315018B
:104B80003377C702B307DE0293160701B3E6D601F7
:104B900063F8F600C29663E5060163F3F600C29679
:104BA0009D8E33D7C60293970501C183B3F6C60223
:104BB0003307EE0293950601DD8D63F8E500C2959B
:104BC00063E5050163F3E500C295998D6DB3E37468
:104BD000F5F63386C740B3B7C700B6979D8DB28749
:104BE00099BF13D30601C14801B593560801C147C7
:104BF000A9BB93560601C1477DB136838148EDB309
:104C0000AE87E1BDC68E55B5429779B313D745013E
:104C1000B7071000FD1713D846011377F77F9308E5
:104C2000F07F33FEB700AA8EF58FFD81328F1378A7
:104C3000F87FFD82630B17010543630618016314B7
:104C40000701630DFE001A858280B368AE0005433C
:104C5000E39B08FEE319E8FED18FF5F70543E394E3
:104C6000EEFF0143E381D5FE054371FF3365AE00DE
:104C70003333A000C9BF13D74501B7071000FD1794
:104C800013D846011377F77F9308F07F33FEB70000
:104C9000AA8EF58FFD81328F1378F87FFD82630E27
:104CA0001703630D180129E3B368AE00631F080002
:104CB0005D8E01EE0143638C080421A8B3E8C700B0
:104CC0000943639608046DD305A0638408046385D3
:104CD000D50205438DCD7D531DA8B368AE000943B1
:104CE00063970802630AE802631408005D8E75D2B8
:104CF000E391D5FEE34FE8FC63490701E3EBC7FD11
:104D0000630FFE0001436374FE00F1D505431A856D
:104D10008280EDFE7D53E5BF5D8E79DACDBFE36A1B
:104D2000DFFB0143E3F5EEFFF5F175B739714AD8C2
:104D300013D945014ED652D456D29399C50006DEFA
:104D400022DC26DA5AD05ECE1379F97F2A8A93D9EB
:104D5000C90093DAF501630D090E9307F07F630A2A
:104D6000F9181354D5018E09B36934013704800052
:104D700033E4890093143500130919C08149814B2C
:104D800013D74601139AC6001377F77FB285135ADB
:104D9000CA0013DBF601630D07109307F07F63036E
:104DA000F7049357D6010E0A33EA4701130717C0D9
:104DB000B7078000B367FA00931536003A99814827
:104DC00033C76A01BD463A851308190063EC3617EC
:104DD00017160000130686348A09B29983A60900C3
:104DE000B2968286B367CA001309F97F639D0712E2
:104DF00093E9290081458948E1B701479307F07F8E
:104E00003704080081443204D20731807E075D8C6C
:104E1000598CA285F250625426854259D254B25917
:104E2000225A925A025BF24B216182805A853E845B
:104E3000AE84C68B89476381FB108D47E38FFBFAF5
:104E400085472A876396FB3A81470144814465BFC1
:104E500033E4A90061C436C632C46382092C4E858E
:104E600097100000E780C0D02246B246AA871307F9
:104E700055FF7544938487FF198CB3999900335477
:104E80008A0033643401B3149A0013D7460113091E
:104E9000D0C0139AC6001377F77F3309F9408149D0
:104EA000814BB285135ACA0013DBF601E31707EEF4
:104EB000B367CA00A1CB63010A24528532C497109C
:104EC0000000E780E0CA22462A87930655FFF5478F
:104ED000930587FF958F331ABA00B357F600B3E7EF
:104EE0004701B315B6003309E9401309D9C0814819
:104EF000C1BD33E4A90001ECA14981441309F07F4D
:104F0000894BBDBD93E919008145854855BD4E8447
:104F1000AA84B1491309F07F8D4B9DB59149814415
:104F20000149854BB1BD93E93900D2878D4849BD10
:104F300089475685E393FBF02A879307F07F014466
:104F40008144D1B5C16E1386FEFF93D6040113DEF2
:104F50000501F18CF18D338695023383B6029358A7
:104F6000060133059E021A95AA98B382C60363F31D
:104F70006800F692C16F1383FFFF33F5670093D388
:104F80000701B3F76800C207337366003E93330628
:104F9000950293D80801B387A602135F0601B38474
:104FA0009302BE94FA94B38E760263F3F400FE9EED
:104FB000416A9307FAFF935F0401B376F400B3F9F3
:104FC000F4007D8EC1803384D502C209338FD401B1
:104FD000B299CE98B307DE02935E0401B385BF0297
:104FE000AE97BE9E330EFE0363F3BE00529EC167B2
:104FF0009385F7FF33F6BE006D8C4206229693DE52
:105000000E01B305D502769E3385AF0213D4050198
:10501000B386D302AA96A296B38FF30363F3A600D6
:10502000BE9F41657D15B3F7A600C2076D8DAA9797
:10503000B3855800B3B93501FA97B2953384370177
:1050400033B6C500B30EC4013385CE00333434010A
:10505000B3B7E701C18F33BECE0113D40601333697
:10506000C5003E943366CE009394950032947E94AE
:10507000B3E46400260493567501B3349000DD81D7
:1050800093179500CD8C558CDD8C9317740063DBE2
:10509000070093D7140085889316F401DD8CD58C16
:1050A000058042899307F93F635DF00893F6740029
:1050B00081CE93F6F40011466388C60093864400BF
:1050C000B3B496002694B6849316740063D8060091
:1050D000B70700FFFD177D8C930709409306E07F1B
:1050E00063C3F61093D634009314D4012604D58CF0
:1050F000318093F7F77F01BB328532C497100000EF
:10510000E78000A793065501F147130705022246E1
:10511000E3DFD7DA6115B317A6008145E9B397102D
:105120000000E780E0A413075501F145930705024D
:105130002246B246E3DFE5D261153314AA0081446A
:10514000A9B385469D8EB1E71309E941B3972401C0
:10515000B3D4D40033192401B337F000B3649900F9
:10516000DD8C93F77400B356D40081CF93F7F4002D
:1051700011466388C70093874400B3B49700A6968E
:10518000BE849397860063D8070485470144814411
:105190009DB913068003E349D6CA7D46E356D6FA85
:1051A0000556B307F640930500023356F4006387B3
:1051B000B6001309E943B3172401DD8CB334900022
:1051C000D18C93F67400014499CA93F7F400114608
:1051D0008146E392C7FA139496003180F6068D80DB
:1051E000D58C81470DB19307F07F0144814421B9EB
:1051F00042894DBD370710007D1701113373B70089
:1052000093D84601758F935ED60122CC26CA0E0331
:1052100093D445019357D5010E0706CE4AC84EC612
:1052200093F8F87F130EF07F33E7EE0093F4F47FEA
:1052300013D4F50133E36700131F3500FD82931E7D
:1052400036006382C81993C61600B38514416307FC
:10525000D4126353B018638D081AB70780005D8FAE
:105260006385C4599307800363C8B734FD4763C996
:10527000B748930700028D8FB3D9BE003318F700EB
:10528000B39EFE00336838013357B700B339D001FD
:10529000336838013303E340B3090F41B3373F01AB
:1052A0003306F3409317860063D50724370980003F
:1052B0007D19337926016301092E4A859710000074
:1052C000E780008B130785FF93070002998FB3D700
:1052D000F9003316E900D18FB399E9006344972AA6
:1052E000058F13061700FD4663C7C63A1307000271
:1052F000118FB3D6C9003398E9003397E700558F73
:1053000033380001B369070133D6C700814493F7EE
:10531000790081CF93F6F90091476388F600938670
:10532000490033B836014296B6899317860063D692
:10533000071C138714009307F07F05886306F72086
:10534000B70780FFFD17F18F1398D70193D9390064
:10535000A60733683801B1831377F77F9396C700A8
:105360005207B1827E04D98EC18EF2406244D2448B
:105370004249B2494285B685056182806356B00ACA
:10538000638A0812B70780005D8F6389C42D930775
:10539000800363C7B718FD4763D4B73C138805FE85
:1053A00093070002B3590701638AF50093070004CD
:1053B000B385B7403317B700B3EEEE003338D001F2
:1053C0003368380195A2B367D7019385148099E3B8
:1053D00093C61600630AD404D1E19387140093F7AF
:1053E000E77F639B071EB367E3013368D7016392CE
:1053F00004166384073C631808421318350093169B
:10540000D3011358380033E806019357330019A22B
:10541000B367D7016387071A9387F5FF638D073A50
:10542000638EC523BE853DBD639B051C938614001A
:1054300093F7E67FC1EFB367E30163920436638FAE
:105440000744B367D701639607460E051318D301C7
:105450000D813368A800935733006DA8B385984039
:1054600063990420B367E301638F07309387F5FFE7
:10547000638B07401305F07F6385A520BE859307E6
:10548000800363C4B72AFD4763CAB73C9307000291
:105490008D8F3318F3003356BF00B317FF00336806
:1054A000C800B339F0003353B30033683801330711
:1054B000674041A4B367D701638507109387F5FF61
:1054C000638107206382C52FBE85D1B59307F07F26
:1054D000638BF606FA9E33B6EE01B307E300B2978C
:1054E0001398F70193DE1E00B369D80113D6170095
:1054F000B68493F77900E39F07E09317D60113D89A
:1055000039003368F800A685935736001307F07FFB
:105510006380E506B207B18313F7F57F05883DBDCB
:105520003367D7013338E000B309E801B3B7E901C5
:105530003386670093178600E3DD07FA8504930737
:10554000F07F639EF41805881307F07F81470148B8
:1055500031B5639307106303083C131836009317A3
:10556000D701135838003368F80036849357370052
:10557000B367F800E9DB01441307F07FB7070800C1
:105580000148E9BB370680FF7D167D8E93F77900D1
:10559000998CE39107D895B74E8597000000E78076
:1055A000205D13078501FD47E3D0E7D2130685FF91
:1055B000B397C90081491DB33368D701333800015F
:1055C000E1B9131835009317D30113583800336825
:1055D000F800935733001DBFB309DF413309E3409F
:1055E00033363F013309C9409317890063CA072046
:1055F00033E82901E31108CC8147014421BFB38579
:10560000984063810414B70680009307F07F3363EA
:10561000D3006381F8209307800363CCB722FD4752
:1056200063C9B72C930700028D8F3318F300B3566C
:10563000BF00B317FF003368D800B339F00033530D
:10564000B300336838011A97B309D801B3B7D90149
:105650003386E700C684F9BDE31F08F01318350050
:105660009317D301135838003368F8009357330069
:1056700001B7370580009307F07F3363A300E39001
:10568000F8E00E061318D7010D823368C80093574F
:1056900037003684F1BD05179306000233D7E700C3
:1056A000630AD600930600043386C6403396C700CB
:1056B000B3E9C90033383001B369E80001468144D9
:1056C0000DBDB309DF01B307E30033BFE901338642
:1056D000E701931786008544E3DD07E08944B707B7
:1056E00080FFFD17F18F13D7190013F819003368E5
:1056F00007019399F701B3E9090113D6170001B91E
:10570000138805FE93070002B3590701638AF50069
:1057100093070004B385B7403317B700B3EEEE002C
:105720003338D0013368380185BE3363E301333841
:105730006000B3890E41B3B73E013306F740C6841B
:1057400036848DB6B367E301638707189387F5FF47
:10575000638C071C9306F07F638ED50ABE8565BDFA
:10576000930700028D8FB3D9BE003318F700B39EA4
:10577000FE00336838013357B700B339D0013368BE
:1057800038013A9355B3131836009317D7011358BD
:10579000380033E8070136849357370085BBBDCB0B
:1057A0003367D701E31907DC0E051318D3010D8108
:1057B0003368A8009357330065BBE30F08E2131862
:1057C00036009317D701135838003368F800368431
:1057D0009357370081B3B309DF41B307E340333F49
:1057E0003F013386E741854475BC13183500931695
:1057F000D3011358380033E80601935733008DBBAB
:10580000B389EE413306674033B93E01330926417F
:10581000368455B40E061318D7010D823368C800BC
:1058200093573700B1B3B309DF41B307E3403336D1
:105830003F013386C7409317860063D7070AB389B1
:10584000EE41B3076740B3BE3E013386D74136848D
:105850007DBC3363E30133386000FDB3138805FE7C
:1058600093070002B3590301638AF500930700040C
:10587000B385B7403313B300336F6F003338E001A3
:10588000336838017DB5B389EE41B3076740B3BED5
:105890003E013386D7413684854429B41318360037
:1058A0009317D701135838003368F800935737001F
:1058B00095B1B309DF01B307E30033BFE9013386D4
:1058C000E70193178600E3D607C2B70780FFFD17ED
:1058D0007D8E854439B90E061318D7010D823368C1
:1058E000C800935737001DB133E8C900E30608D05C
:1058F00009B1138805FE93070002B3590301638AB7
:10590000F50093070004B385B7403313B300336F3A
:105910006F003338E001336838013DB301441307A9
:10592000F07FB70708001DBCB309DF01B307E30030
:10593000B3BED9013386D70169BB93D74501B706FA
:1059400010001387F6FF93F7F77F1306E03F6D8F84
:10595000FD816353F60081C50145814582801306B0
:10596000E0436355F6007D55FD55828013062043C4
:10597000B365D700635CF6001387D7BA9387D7BCAB
:1059800063400704B315E500014582809306304368
:105990009D8E7D47635BD70013073041B307F74007
:1059A000B3D7F50081453E8582801387D7BE3397F4
:1059B000E5003355D500B367A700B3D5D500E5B7EB
:1059C000FD46135715009D8E3357D700B395F5004C
:1059D000D98D3315F5008280B367B500B1C341118D
:1059E00022C426C24AC006C6AA842E892E84B9C102
:1059F0002E8597000000E780A0179306E043898E6C
:105A00009307304363C7D7069317C9002D462687EF
:105A100093F6F67FB183635FA60C130655FF25A8A6
:105A200081478146B207D206B1830147D58F3A85B7
:105A3000BE85828097000000E78080132A86930647
:105A4000E04313050502898E1307A00293F6F67F43
:105A5000634CA70C55061307B002098FB317C90092
:105A600033D7E4005D8F9317C700B1833397C40029
:105A700051A09307604363D9D702130785019307A9
:105A800085036347070C3396E40001472144098CE2
:105A9000518F930704FE3337E00063CF0708B354F8
:105AA000F9008147D98C3E84A14763C1A706370717
:105AB00080FF7D1713F67400B377E40005C613F674
:105AC000F40091456300B60213864400B334960097
:105AD000A6979395870063D905089306F043F98F3D
:105AE000898EB2841397D7018D80A607458FB18325
:105AF00093F6F67FB2402244B207D206B183D58F27
:105B0000924402493A85BE85410182801307800292
:105B1000130685FF098F33D7E400B317C40033643D
:105B2000F700B394C40061B7930756FFB397F4002E
:105B3000B207B18301477DBF7D4693171900018EDF
:105B4000B397C700B3D48400DD8CB357890099BFE5
:105B50007D461D8E13D714003357C7003316F90046
:105B6000598E3397F4001DB7B284ADBFC167637E11
:105B7000F5029307F00F1307000263ECA7009707E5
:105B800000009387A75DAA9703C507003305A740C8
:105B900082802181970700009387475CAA9703C5FD
:105BA000070061473305A7408280B7070001636E95
:105BB000F5006181970700009387475AAA9703C5AC
:105BC000070021473305A7408280418197070000E5
:105BD0009387C758AA9703C5070041473305A740D5
:105BE0008280B3C7A5008D8B3307C50081E78D4741
:105BF00063EEC700AA876370E50A83C605008507C0
:105C00008505A38FD7FEE3EAE7FE82809376350011
:105C1000AA8791CA83C6050085078505A38FD7FE8D
:105C200093F63700FDB79376C7FF138606FE63F041
:105C3000C70683A3050083A2450083AF850003AF99
:105C4000C50083AE050103AE450103A3850183A80A
:105C5000C5019385450223A0770003A8C5FF23A2B1
:105C6000570023A4F70123A6E70123A8D70123AAFD
:105C7000C70123AC670023AE17019387470223AE09
:105C800007FF75B790419107910523AEC7FEE3EB7F
:105C9000D7FEE3E4E7F68280AA87850703C7F7FF0C
:105CA0006DFF3385A7407D15828000002D2D2D2DA1
:105CB0002D2D2D2D2D2D2D2D2D2D2D2D2D2D2D2D14
:105CC0002D2D2D2D2D2D2D2D2D2D2D2D2D2D2D2D04
:105CD0002D2D2D2D2D2D2D2D2D2D2D2D2D2D2D2DF4
:105CE0002D2D0A00000000002D2D2D2D2D2D2D2DE8
:105CF0002D2D2D2D2D2D2D2D2D2D2D2D2D2D2D2DD4
:105D00002D2D2D2D2D2D2D2D2D2D2D2D2D2D2D2DC3
:105D10002D2D2D2D2D2D2D2D2D2D2D2D2D2D0A0003
:105D2000A1EFBDF0BAF9C2ABCCE1CABEA1EF202011
:105D30002020202020202020202020202020202063
:105D40002020202020202020202020202020202053
:105D5000202020202020200A00000000A1BED6D054
:105D6000CEC4C3FBB3C6A1BF474543B5C44E4F53D2
:105D7000B1E0B3CCBFF2BCDCA3A8466C617368C9C8
:105D8000C8C7F8B6C1D0B4CAFDBEDDB2E2CAD429D4
:105D900020202020200A0000A1BEB3CCD0F2B9A65A
:105DA000C4DCA1BF20202020202020202020202073
:105DB00020202020202020202020202020202020E3
:105DC0002020202020202020202020202020200AE9
:105DD000000000002020202020A2D920C0B6C9AB9E
:105DE000C9C1CBB8A3BB2020202020202020202008
:105DF00020202020202020202020202020202020A3
:105E00002020202020202020202020200A00000008
:105E10002020202020A2DA20CFF2464C415348D641
:105E2000D0D0B4C8EBCAFDBEDDA3ACB2A2B4F2D3ED
:105E3000A1B2E9BFB4202020202020202020202053
:105E4000202020202020202020200A00A1BEB2E215
:105E5000CAD4B9FDB3CCA1BF20202020202020200F
:105E60002020202020202020202020202020202032
:105E70002020202020202020202020202020202022
:105E80002020200A000000002020202020A2D9206D
:105E9000CFF2C4B3C9C8C7F8D6D0D0B4C8EBCAFDD6
:105EA000BEDDA3ACD3C37072696E7466B4F2D3A1C5
:105EB000B2E9BFB420202020202020202020202054
:105EC00020200A002020202020A2DA20CFF2BEF8D5
:105ED000B6D4B5D8D6B7B4A6BFAACABCD0B4C8EB9E
:105EE000CAFDBEDDB1EDA3ACD3C37072696E74663A
:105EF000B2E9BFB4202020202020202020200A004A
:105F000057656C636F6D6520746F20536F6F6368A6
:105F10006F7720556E697665727369747921000018
:105F2000A3A831A3A9C2DFBCADB6C1B7BDCABDB677
:105F3000C1C8A1B5DA2564C9C8C7F8B5C43332D71A
:105F4000D6BDDAB5C4C4DAC8DD3A202025730A000C
:105F5000A3A832A3A9B2C1B3FDD6D8D0B4BAF3CEA8
:105F6000EFC0EDB7BDCABDB6C1B5DA2564C9C8C7B3
:105F7000F8B5C43332D7D6BDDAB5C4C4DAC8DD3A11
:105F8000202025730A000000A3A833A3A9C5D0B11F
:105F9000F0B5DA2564C9C8C7F8CAC7B7F1CEAABF39
:105FA000D5A3AC31B1EDCABEBFD5A3AC30B1EDCAFB
:105FB000BEB2BBBFD5A3ACBDE1B9FBCAC7A3BA256E
:105FC000640A0000204C494748545F424C55453A0A
:105FD0004F4E2020200A000020B5C6C9C1CBB8B45E
:105FE000CECAFD6D4C69676874436F756E74203D51
:105FF0002025640A0A000000204C494748545F42AB
:106000004C55453A4F464620200A00002020A1BEAC
:1060100055736572CCE1CABEA1BFA3BABDABBDF8D2
:10602000C8EB55736572B5C46D61696EBAAFCAFDD0
:10603000D6B4D0D02E2E2E0D0A0A000068DEFFFF47
:10604000EADEFFFFEADEFFFF74DEFFFFEADEFFFFAE
:10605000EADEFFFFEADEFFFFEADEFFFFEADEFFFF28
:10606000EADEFFFFEADEFFFF62DEFFFFEADEFFFFA0
:106070003EDEFFFFEADEFFFFEADEFFFF6EDEFFFF30
:10608000D6E0FFFF64E3FFFF64E3FFFF64E3FFFF8D
:1060900064E3FFFF64E3FFFF64E3FFFF64E3FFFFEC
:1060A00064E3FFFF64E3FFFFDAE1FFFFB6E2FFFF17
:1060B000E6DEFFFF64E3FFFF8EDFFFFF64E3FFFF29
:1060C00064E3FFFFE6DEFFFF64E3FFFF64E3FFFF3F
:1060D00064E3FFFF64E3FFFF58E3FFFFA2E1FFFF7C
:1060E000FAE1FFFF64E3FFFF64E3FFFFCEE2FFFF9F
:1060F00064E3FFFF1AE2FFFF64E3FFFF64E3FFFFD7
:10610000D6E0FFFF00000000000000000000244077
:106110009A9999999999B93F2CEEFFFF16EDFFFFD7
:1061200016EDFFFF14EDFFFF1CEDFFFF1CEDFFFF61
:10613000E2ECFFFF14EDFFFF1CEDFFFFE2ECFFFFC1
:106140001CEDFFFF14EDFFFF18EEFFFF18EEFFFF41
:1061500018EEFFFFE2ECFFFF00010202030303035E
:1061600004040404040404040505050505050505E7
:1061700005050505050505050606060606060606C7
:1061800006060606060606060606060606060606AF
:106190000606060606060606070707070707070797
:1061A000070707070707070707070707070707077F
:1061B000070707070707070707070707070707076F
:1061C000070707070707070707070707070707075F
:1061D0000707070707070707080808080808080847
:1061E000080808080808080808080808080808082F
:1061F000080808080808080808080808080808081F
:10620000080808080808080808080808080808080E
:1062100008080808080808080808080808080808FE
:1062200008080808080808080808080808080808EE
:1062300008080808080808080808080808080808DE
:1062400008080808080808080808080808080808CE
:08625000080808080808080806
:0400000310002000C9
:00000001FF
